{
  "contractName": "ChallengeManager",
  "abi": [
    {
      "constant": false,
      "inputs": [],
      "name": "acceptOwnership",
      "outputs": [],
      "payable": false,
      "stateMutability": "nonpayable",
      "type": "function"
    },
    {
      "constant": true,
      "inputs": [],
      "name": "challengesLength",
      "outputs": [
        {
          "name": "",
          "type": "uint256"
        }
      ],
      "payable": false,
      "stateMutability": "view",
      "type": "function"
    },
    {
      "constant": true,
      "inputs": [],
      "name": "owner",
      "outputs": [
        {
          "name": "",
          "type": "address"
        }
      ],
      "payable": false,
      "stateMutability": "view",
      "type": "function"
    },
    {
      "constant": true,
      "inputs": [
        {
          "name": "",
          "type": "uint256"
        }
      ],
      "name": "challenges",
      "outputs": [
        {
          "name": "name",
          "type": "string"
        },
        {
          "name": "description",
          "type": "string"
        },
        {
          "name": "targetDescription",
          "type": "string"
        },
        {
          "name": "timestamp",
          "type": "uint256"
        },
        {
          "name": "prize",
          "type": "uint256"
        },
        {
          "name": "target",
          "type": "uint256"
        },
        {
          "name": "fee",
          "type": "uint256"
        },
        {
          "name": "owner",
          "type": "address"
        },
        {
          "name": "challengeHash",
          "type": "bytes32"
        }
      ],
      "payable": false,
      "stateMutability": "view",
      "type": "function"
    },
    {
      "constant": true,
      "inputs": [],
      "name": "newOwner",
      "outputs": [
        {
          "name": "",
          "type": "address"
        }
      ],
      "payable": false,
      "stateMutability": "view",
      "type": "function"
    },
    {
      "constant": false,
      "inputs": [
        {
          "name": "_newOwner",
          "type": "address"
        }
      ],
      "name": "transferOwnership",
      "outputs": [],
      "payable": false,
      "stateMutability": "nonpayable",
      "type": "function"
    },
    {
      "constant": true,
      "inputs": [],
      "name": "contractAddress",
      "outputs": [
        {
          "name": "",
          "type": "address"
        }
      ],
      "payable": false,
      "stateMutability": "view",
      "type": "function"
    },
    {
      "inputs": [],
      "payable": false,
      "stateMutability": "nonpayable",
      "type": "constructor"
    },
    {
      "anonymous": false,
      "inputs": [
        {
          "indexed": false,
          "name": "own",
          "type": "address"
        }
      ],
      "name": "Creation",
      "type": "event"
    },
    {
      "anonymous": false,
      "inputs": [
        {
          "indexed": true,
          "name": "_from",
          "type": "address"
        },
        {
          "indexed": true,
          "name": "_to",
          "type": "address"
        }
      ],
      "name": "OwnershipTransferred",
      "type": "event"
    },
    {
      "constant": false,
      "inputs": [
        {
          "name": "nameCreate",
          "type": "string"
        },
        {
          "name": "descriptionCreate",
          "type": "string"
        },
        {
          "name": "targetDescriptionCreate",
          "type": "string"
        },
        {
          "name": "prizeCreate",
          "type": "uint256"
        },
        {
          "name": "targetCreate",
          "type": "uint256"
        },
        {
          "name": "feeCreate",
          "type": "uint256"
        },
        {
          "name": "hash",
          "type": "bytes32"
        },
        {
          "name": "nowUnix",
          "type": "uint256"
        }
      ],
      "name": "createChallenge",
      "outputs": [
        {
          "name": "success",
          "type": "bool"
        }
      ],
      "payable": false,
      "stateMutability": "nonpayable",
      "type": "function"
    },
    {
      "constant": false,
      "inputs": [
        {
          "name": "contracadd",
          "type": "address"
        },
        {
          "name": "hash",
          "type": "string"
        }
      ],
      "name": "participateToChallenge",
      "outputs": [
        {
          "name": "success",
          "type": "bool"
        }
      ],
      "payable": false,
      "stateMutability": "nonpayable",
      "type": "function"
    },
    {
      "constant": false,
      "inputs": [
        {
          "name": "contAdd",
          "type": "address"
        }
      ],
      "name": "setContractAddress",
      "outputs": [
        {
          "name": "success",
          "type": "bool"
        }
      ],
      "payable": false,
      "stateMutability": "nonpayable",
      "type": "function"
    },
    {
      "constant": true,
      "inputs": [
        {
          "name": "challIndex",
          "type": "uint256"
        }
      ],
      "name": "getChallengeParticipantsLength",
      "outputs": [
        {
          "name": "length",
          "type": "uint256"
        }
      ],
      "payable": false,
      "stateMutability": "view",
      "type": "function"
    },
    {
      "constant": false,
      "inputs": [
        {
          "name": "index1",
          "type": "uint256"
        },
        {
          "name": "index2",
          "type": "uint256"
        }
      ],
      "name": "getChallengeParticipants",
      "outputs": [
        {
          "name": "participant",
          "type": "address"
        }
      ],
      "payable": false,
      "stateMutability": "nonpayable",
      "type": "function"
    }
  ],
  "bytecode": "0x608060405234801561001057600080fd5b50336000806101000a81548173ffffffffffffffffffffffffffffffffffffffff021916908373ffffffffffffffffffffffffffffffffffffffff1602179055507f2ae68230dd9c1c06842490953a33785a09292650f8c76b1a20b2fbbb214a896c6000809054906101000a900473ffffffffffffffffffffffffffffffffffffffff16604051808273ffffffffffffffffffffffffffffffffffffffff1673ffffffffffffffffffffffffffffffffffffffff16815260200191505060405180910390a16113b8806100e46000396000f3006080604052600436106100ba576000357c0100000000000000000000000000000000000000000000000000000000900463ffffffff168063477bddaa146100bf57806347f8fc391461011a57806379ba50971461025d5780637db4ddba146102745780638199e461146102b55780638da5cb5b146102e05780638dd70850146103375780638f1d3776146103d8578063b75c2627146105b4578063d4ee1d901461062b578063f2fde38b14610682578063f6b4dfb4146106c5575b600080fd5b3480156100cb57600080fd5b50610100600480360381019080803573ffffffffffffffffffffffffffffffffffffffff16906020019092919050505061071c565b604051808215151515815260200191505060405180910390f35b34801561012657600080fd5b50610243600480360381019080803590602001908201803590602001908080601f0160208091040260200160405190810160405280939291908181526020018383808284378201915050505050509192919290803590602001908201803590602001908080601f0160208091040260200160405190810160405280939291908181526020018383808284378201915050505050509192919290803590602001908201803590602001908080601f01602080910402602001604051908101604052809392919081815260200183838082843782019150505050505091929192908035906020019092919080359060200190929190803590602001909291908035600019169060200190929190803590602001909291905050506107c3565b604051808215151515815260200191505060405180910390f35b34801561026957600080fd5b506102726109cc565b005b34801561028057600080fd5b5061029f60048036038101908080359060200190929190505050610b6b565b6040518082815260200191505060405180910390f35b3480156102c157600080fd5b506102ca610b98565b6040518082815260200191505060405180910390f35b3480156102ec57600080fd5b506102f5610b9e565b604051808273ffffffffffffffffffffffffffffffffffffffff1673ffffffffffffffffffffffffffffffffffffffff16815260200191505060405180910390f35b34801561034357600080fd5b506103be600480360381019080803573ffffffffffffffffffffffffffffffffffffffff169060200190929190803590602001908201803590602001908080601f0160208091040260200160405190810160405280939291908181526020018383808284378201915050505050509192919290505050610bc3565b604051808215151515815260200191505060405180910390f35b3480156103e457600080fd5b5061040360048036038101908080359060200190929190505050610e88565b604051808060200180602001806020018a81526020018981526020018881526020018781526020018673ffffffffffffffffffffffffffffffffffffffff1673ffffffffffffffffffffffffffffffffffffffff168152602001856000191660001916815260200184810384528d818151815260200191508051906020019080838360005b838110156104a3578082015181840152602081019050610488565b50505050905090810190601f1680156104d05780820380516001836020036101000a031916815260200191505b5084810383528c818151815260200191508051906020019080838360005b838110156105095780820151818401526020810190506104ee565b50505050905090810190601f1680156105365780820380516001836020036101000a031916815260200191505b5084810382528b818151815260200191508051906020019080838360005b8381101561056f578082015181840152602081019050610554565b50505050905090810190601f16801561059c5780820380516001836020036101000a031916815260200191505b509c5050505050505050505050505060405180910390f35b3480156105c057600080fd5b506105e960048036038101908080359060200190929190803590602001909291905050506110cd565b604051808273ffffffffffffffffffffffffffffffffffffffff1673ffffffffffffffffffffffffffffffffffffffff16815260200191505060405180910390f35b34801561063757600080fd5b5061064061112f565b604051808273ffffffffffffffffffffffffffffffffffffffff1673ffffffffffffffffffffffffffffffffffffffff16815260200191505060405180910390f35b34801561068e57600080fd5b506106c3600480360381019080803573ffffffffffffffffffffffffffffffffffffffff169060200190929190505050611155565b005b3480156106d157600080fd5b506106da6111f4565b604051808273ffffffffffffffffffffffffffffffffffffffff1673ffffffffffffffffffffffffffffffffffffffff16815260200191505060405180910390f35b60008060009054906101000a900473ffffffffffffffffffffffffffffffffffffffff1673ffffffffffffffffffffffffffffffffffffffff163373ffffffffffffffffffffffffffffffffffffffff1614151561077957600080fd5b81600260006101000a81548173ffffffffffffffffffffffffffffffffffffffff021916908373ffffffffffffffffffffffffffffffffffffffff16021790555060019050919050565b60008084101515156107d457600080fd5b600086101515156107e457600080fd5b600085101515156107f457600080fd5b6003610140604051908101604052808b81526020018a81526020018981526020018481526020018881526020018781526020018681526020013373ffffffffffffffffffffffffffffffffffffffff1681526020018560001916815260200160006040519080825280602002602001820160405280156108835781602001602082028038833980820191505090505b508152509080600181540180825580915050906001820390600052602060002090600a02016000909192909190915060008201518160000190805190602001906108ce92919061121a565b5060208201518160010190805190602001906108eb92919061121a565b50604082015181600201908051906020019061090892919061121a565b50606082015181600301556080820151816004015560a0820151816005015560c0820151816006015560e08201518160070160006101000a81548173ffffffffffffffffffffffffffffffffffffffff021916908373ffffffffffffffffffffffffffffffffffffffff16021790555061010082015181600801906000191690556101208201518160090190805190602001906109a692919061129a565b505050506004600081548092919060010191905055506001905098975050505050505050565b600160009054906101000a900473ffffffffffffffffffffffffffffffffffffffff1673ffffffffffffffffffffffffffffffffffffffff163373ffffffffffffffffffffffffffffffffffffffff16141515610a2857600080fd5b600160009054906101000a900473ffffffffffffffffffffffffffffffffffffffff1673ffffffffffffffffffffffffffffffffffffffff166000809054906101000a900473ffffffffffffffffffffffffffffffffffffffff1673ffffffffffffffffffffffffffffffffffffffff167f8be0079c531659141344cd1fd0a4f28419497f9722a3daafe3b4186f6b6457e060405160405180910390a3600160009054906101000a900473ffffffffffffffffffffffffffffffffffffffff166000806101000a81548173ffffffffffffffffffffffffffffffffffffffff021916908373ffffffffffffffffffffffffffffffffffffffff1602179055506000600160006101000a81548173ffffffffffffffffffffffffffffffffffffffff021916908373ffffffffffffffffffffffffffffffffffffffff160217905550565b6000600382815481101515610b7c57fe5b90600052602060002090600a0201600901805490509050919050565b60045481565b6000809054906101000a900473ffffffffffffffffffffffffffffffffffffffff1681565b60008060006003805490509150600090505b81811015610e7b57836040518082805190602001908083835b602083101515610c135780518252602082019150602081019050602083039250610bee565b6001836020036101000a038019825116818451168082178552505050505050905001915050604051809103902060001916600382815481101515610c5357fe5b90600052602060002090600a020160080154600019161415610e6e578473ffffffffffffffffffffffffffffffffffffffff1662ac443433600384815481101515610c9a57fe5b90600052602060002090600a020160070160009054906101000a900473ffffffffffffffffffffffffffffffffffffffff16600385815481101515610cdb57fe5b90600052602060002090600a0201600601546040518463ffffffff167c0100000000000000000000000000000000000000000000000000000000028152600401808473ffffffffffffffffffffffffffffffffffffffff1673ffffffffffffffffffffffffffffffffffffffff1681526020018373ffffffffffffffffffffffffffffffffffffffff1673ffffffffffffffffffffffffffffffffffffffff1681526020018281526020019350505050602060405180830381600087803b158015610da557600080fd5b505af1158015610db9573d6000803e3d6000fd5b505050506040513d6020811015610dcf57600080fd5b810190808051906020019092919050505050600381815481101515610df057fe5b90600052602060002090600a02016009013390806001815401808255809150509060018203906000526020600020016000909192909190916101000a81548173ffffffffffffffffffffffffffffffffffffffff021916908373ffffffffffffffffffffffffffffffffffffffff1602179055505060019250610e80565b8080600101915050610bd5565b600092505b505092915050565b600381815481101515610e9757fe5b90600052602060002090600a0201600091509050806000018054600181600116156101000203166002900480601f016020809104026020016040519081016040528092919081815260200182805460018160011615610100020316600290048015610f435780601f10610f1857610100808354040283529160200191610f43565b820191906000526020600020905b815481529060010190602001808311610f2657829003601f168201915b505050505090806001018054600181600116156101000203166002900480601f016020809104026020016040519081016040528092919081815260200182805460018160011615610100020316600290048015610fe15780601f10610fb657610100808354040283529160200191610fe1565b820191906000526020600020905b815481529060010190602001808311610fc457829003601f168201915b505050505090806002018054600181600116156101000203166002900480601f01602080910402602001604051908101604052809291908181526020018280546001816001161561010002031660029004801561107f5780601f106110545761010080835404028352916020019161107f565b820191906000526020600020905b81548152906001019060200180831161106257829003601f168201915b5050505050908060030154908060040154908060050154908060060154908060070160009054906101000a900473ffffffffffffffffffffffffffffffffffffffff16908060080154905089565b60006003838154811015156110de57fe5b90600052602060002090600a0201600901828154811015156110fc57fe5b9060005260206000200160009054906101000a900473ffffffffffffffffffffffffffffffffffffffff16905092915050565b600160009054906101000a900473ffffffffffffffffffffffffffffffffffffffff1681565b6000809054906101000a900473ffffffffffffffffffffffffffffffffffffffff1673ffffffffffffffffffffffffffffffffffffffff163373ffffffffffffffffffffffffffffffffffffffff161415156111b057600080fd5b80600160006101000a81548173ffffffffffffffffffffffffffffffffffffffff021916908373ffffffffffffffffffffffffffffffffffffffff16021790555050565b600260009054906101000a900473ffffffffffffffffffffffffffffffffffffffff1681565b828054600181600116156101000203166002900490600052602060002090601f016020900481019282601f1061125b57805160ff1916838001178555611289565b82800160010185558215611289579182015b8281111561128857825182559160200191906001019061126d565b5b5090506112969190611324565b5090565b828054828255906000526020600020908101928215611313579160200282015b828111156113125782518260006101000a81548173ffffffffffffffffffffffffffffffffffffffff021916908373ffffffffffffffffffffffffffffffffffffffff160217905550916020019190600101906112ba565b5b5090506113209190611349565b5090565b61134691905b8082111561134257600081600090555060010161132a565b5090565b90565b61138991905b8082111561138557600081816101000a81549073ffffffffffffffffffffffffffffffffffffffff02191690555060010161134f565b5090565b905600a165627a7a7230582038dc81d26c5bc733c74240f4199fb520fc3cfd7426dde9f18a690bb6572f40650029",
  "source": "pragma solidity ^0.4.18;\r\n\r\n\r\n// ----------------------------------------------------------------------------\r\n//  Manage User Challenge\r\n//  tied to WelCoin contract\r\n//  Credit: Alberto Carbognin\r\n// \tLICENSE: MIT\r\n// ----------------------------------------------------------------------------\r\n\r\nimport \"./WelCoin.sol\";\r\n\r\ncontract ChallengeManager is Owned {\r\n\tusing SafeMath for uint;\r\n\taddress public contractAddress;\r\n\r\n\tstruct Challenge {\r\n\t\tstring name;\r\n\t\tstring description;\r\n\t\tstring targetDescription;\r\n\t\tuint256 timestamp;\r\n\t\tuint prize;\r\n\t\tuint target;\r\n\t\tuint fee;\r\n\t\taddress owner;\r\n\t\tbytes32 challengeHash;\r\n\t\taddress[] participants;\r\n\t}\r\n\r\n\tChallenge[] public challenges;\r\n\tuint public challengesLength;\r\n\r\n\tevent Creation(address own);\r\n\r\n\tconstructor() public {\r\n\t\temit Creation(owner);\r\n\t}\r\n\r\n\r\n\tfunction createChallenge(\r\n\t\tstring nameCreate,\r\n\t\tstring descriptionCreate,\r\n\t\tstring targetDescriptionCreate,\r\n\t\tuint prizeCreate,\r\n\t\tuint targetCreate,\r\n\t\tuint feeCreate,\r\n\t\tbytes32 hash,\r\n\t\tuint256 nowUnix\r\n\t\t) public returns(bool success) {\r\n\r\n\t\trequire (feeCreate >= 0);\r\n\t\trequire (prizeCreate >= 0);\r\n\t\trequire (targetCreate >= 0);\r\n\r\n\t\tchallenges.push(Challenge(\r\n\t\t\tnameCreate,\r\n\t\t\tdescriptionCreate,\r\n\t\t\ttargetDescriptionCreate,\r\n\t\t\tnowUnix,\r\n\t\t\tprizeCreate,\r\n\t\t\ttargetCreate,\r\n\t\t\tfeeCreate,\r\n\t\t\tmsg.sender,\r\n\t\t\thash,\r\n\t\t\tnew address[](0)\r\n\t\t\t));\r\n\r\n\t\tchallengesLength++;\r\n\r\n        return true;\r\n    }\r\n\r\n    function participateToChallenge(address contracadd, string hash) public returns(bool success) {\r\n\r\n    \tuint challengeLength = challenges.length;\r\n    \tfor (uint i = 0; i < challengeLength; i++) {\r\n    \t\t\r\n    \t\tif (challenges[i].challengeHash == keccak256(hash)) {\r\n    \t\t\t//WelCoin cont = WelCoin(contracadd);\r\n    \t\t\tWelCoin(contracadd).virtualDepositTransferFrom(msg.sender, challenges[i].owner, challenges[i].fee);\r\n    \t\t\tchallenges[i].participants.push(msg.sender);\r\n\r\n    \t\t\treturn true;\r\n    \t\t}\r\n    \t}\r\n\r\n    \t/*\r\n    \tuint arrleng = ledger[challOwn].length;\r\n    \tfor (uint i=0; i<arrleng; i++) {\r\n\r\n    \t\tif ((ledger[challOwn][i].challengeHash == hash) && (partFee >= ledger[challOwn][i].fee)) {\r\n    \t\t\tWelCoin cont = WelCoin(contractAddress);\r\n    \t\t\tcont.transferFrom(msg.sender, challOwn, ledger[challOwn][i].fee);\r\n    \t\t\tledger[challOwn][i].participants[msg.sender] = true;\r\n    \t\t\treturn true;\r\n    \t\t}\r\n    \t\ti++;\r\n    \t}\r\n    \t*/\r\n\r\n    \treturn false;\r\n    }\r\n\r\n    /*\r\n\r\n    function getLedgerLength(address challOwn) public constant returns(uint length) {\r\n    \treturn ledger[challOwn].length;\r\n    }\r\n\r\n    function getChallengeHash(address challOwn, uint id) public constant returns(uint256 hashcode) {\r\n    \treturn ledger[challOwn][id].challengeHash;\r\n    }\r\n    function getChallengeName(uint id) public constant returns(string namecode) {\r\n    \treturn ledger[msg.sender][id].name;\r\n    }\r\n\r\n    */\r\n\r\n    function setContractAddress(address contAdd) public returns(bool success){\r\n\r\n    \trequire (msg.sender == owner);\r\n    \tcontractAddress = contAdd;\r\n    \treturn true;\r\n    }\r\n\r\n    function getChallengeParticipantsLength(uint challIndex) public constant returns(uint length) {\r\n    \treturn challenges[challIndex].participants.length;\r\n    }\r\n\r\n    function getChallengeParticipants(uint index1, uint index2) public returns(address participant){\r\n    \treturn challenges[index1].participants[index2];\r\n    }\r\n\r\n\r\n\r\n\r\n\r\n}",
  "sourcePath": "C:\\Users\\Alberto\\Desktop\\Tirocinio\\SmartContract\\smartcontractdemo\\contracts\\ChallengeManager.sol",
  "compiler": {
    "name": "solc",
    "version": "0.4.23+commit.124ca40d.Emscripten.clang"
  },
  "schemaVersion": "2.0.0",
  "updatedAt": "2018-05-09T15:53:38.115Z"
}