{
  "contractName": "ChallengeManager",
  "abi": [
    {
      "constant": false,
      "inputs": [],
      "name": "acceptOwnership",
      "outputs": [],
      "payable": false,
      "stateMutability": "nonpayable",
      "type": "function"
    },
    {
      "constant": true,
      "inputs": [],
      "name": "challengesLength",
      "outputs": [
        {
          "name": "",
          "type": "uint256"
        }
      ],
      "payable": false,
      "stateMutability": "view",
      "type": "function"
    },
    {
      "constant": true,
      "inputs": [],
      "name": "owner",
      "outputs": [
        {
          "name": "",
          "type": "address"
        }
      ],
      "payable": false,
      "stateMutability": "view",
      "type": "function"
    },
    {
      "constant": true,
      "inputs": [
        {
          "name": "",
          "type": "uint256"
        }
      ],
      "name": "challenges",
      "outputs": [
        {
          "name": "name",
          "type": "string"
        },
        {
          "name": "description",
          "type": "string"
        },
        {
          "name": "targetDescription",
          "type": "string"
        },
        {
          "name": "timestamp",
          "type": "uint256"
        },
        {
          "name": "prize",
          "type": "uint256"
        },
        {
          "name": "target",
          "type": "uint256"
        },
        {
          "name": "fee",
          "type": "uint256"
        },
        {
          "name": "owner",
          "type": "address"
        },
        {
          "name": "challengeHash",
          "type": "bytes32"
        },
        {
          "name": "winner",
          "type": "address"
        }
      ],
      "payable": false,
      "stateMutability": "view",
      "type": "function"
    },
    {
      "constant": true,
      "inputs": [],
      "name": "newOwner",
      "outputs": [
        {
          "name": "",
          "type": "address"
        }
      ],
      "payable": false,
      "stateMutability": "view",
      "type": "function"
    },
    {
      "constant": false,
      "inputs": [
        {
          "name": "_newOwner",
          "type": "address"
        }
      ],
      "name": "transferOwnership",
      "outputs": [],
      "payable": false,
      "stateMutability": "nonpayable",
      "type": "function"
    },
    {
      "constant": true,
      "inputs": [],
      "name": "contractAddress",
      "outputs": [
        {
          "name": "",
          "type": "address"
        }
      ],
      "payable": false,
      "stateMutability": "view",
      "type": "function"
    },
    {
      "inputs": [],
      "payable": false,
      "stateMutability": "nonpayable",
      "type": "constructor"
    },
    {
      "anonymous": false,
      "inputs": [
        {
          "indexed": false,
          "name": "own",
          "type": "address"
        }
      ],
      "name": "Creation",
      "type": "event"
    },
    {
      "anonymous": false,
      "inputs": [
        {
          "indexed": true,
          "name": "_from",
          "type": "address"
        },
        {
          "indexed": true,
          "name": "_to",
          "type": "address"
        }
      ],
      "name": "OwnershipTransferred",
      "type": "event"
    },
    {
      "constant": false,
      "inputs": [
        {
          "name": "nameCreate",
          "type": "string"
        },
        {
          "name": "descriptionCreate",
          "type": "string"
        },
        {
          "name": "targetDescriptionCreate",
          "type": "string"
        },
        {
          "name": "prizeCreate",
          "type": "uint256"
        },
        {
          "name": "targetCreate",
          "type": "uint256"
        },
        {
          "name": "feeCreate",
          "type": "uint256"
        },
        {
          "name": "hash",
          "type": "bytes32"
        },
        {
          "name": "nowUnix",
          "type": "uint256"
        }
      ],
      "name": "createChallenge",
      "outputs": [
        {
          "name": "success",
          "type": "bool"
        }
      ],
      "payable": false,
      "stateMutability": "nonpayable",
      "type": "function"
    },
    {
      "constant": false,
      "inputs": [
        {
          "name": "contractadd",
          "type": "address"
        },
        {
          "name": "hash",
          "type": "string"
        }
      ],
      "name": "participateToChallenge",
      "outputs": [
        {
          "name": "success",
          "type": "bool"
        }
      ],
      "payable": false,
      "stateMutability": "nonpayable",
      "type": "function"
    },
    {
      "constant": false,
      "inputs": [
        {
          "name": "goalUnit",
          "type": "uint256"
        },
        {
          "name": "hash",
          "type": "string"
        }
      ],
      "name": "depositGoalUnit",
      "outputs": [
        {
          "name": "success",
          "type": "bool"
        }
      ],
      "payable": false,
      "stateMutability": "nonpayable",
      "type": "function"
    },
    {
      "constant": false,
      "inputs": [
        {
          "name": "contractadd",
          "type": "address"
        },
        {
          "name": "hash",
          "type": "string"
        }
      ],
      "name": "issuePrize",
      "outputs": [
        {
          "name": "success",
          "type": "bool"
        }
      ],
      "payable": false,
      "stateMutability": "nonpayable",
      "type": "function"
    },
    {
      "constant": true,
      "inputs": [
        {
          "name": "hash",
          "type": "string"
        }
      ],
      "name": "getChallengePartecipantsGoal",
      "outputs": [
        {
          "name": "goal",
          "type": "uint256"
        }
      ],
      "payable": false,
      "stateMutability": "view",
      "type": "function"
    },
    {
      "constant": false,
      "inputs": [
        {
          "name": "contAdd",
          "type": "address"
        }
      ],
      "name": "setContractAddress",
      "outputs": [
        {
          "name": "success",
          "type": "bool"
        }
      ],
      "payable": false,
      "stateMutability": "nonpayable",
      "type": "function"
    },
    {
      "constant": true,
      "inputs": [
        {
          "name": "challIndex",
          "type": "uint256"
        }
      ],
      "name": "getChallengeParticipantsLength",
      "outputs": [
        {
          "name": "length",
          "type": "uint256"
        }
      ],
      "payable": false,
      "stateMutability": "view",
      "type": "function"
    },
    {
      "constant": true,
      "inputs": [
        {
          "name": "index1",
          "type": "uint256"
        },
        {
          "name": "index2",
          "type": "uint256"
        }
      ],
      "name": "getChallengeParticipants",
      "outputs": [
        {
          "name": "participant",
          "type": "address"
        }
      ],
      "payable": false,
      "stateMutability": "view",
      "type": "function"
    },
    {
      "constant": true,
      "inputs": [
        {
          "name": "index1",
          "type": "uint256"
        },
        {
          "name": "index2",
          "type": "uint256"
        }
      ],
      "name": "getChallengeParticipantsGoal",
      "outputs": [
        {
          "name": "participant",
          "type": "uint256"
        }
      ],
      "payable": false,
      "stateMutability": "view",
      "type": "function"
    },
    {
      "constant": true,
      "inputs": [
        {
          "name": "index1",
          "type": "uint256"
        }
      ],
      "name": "getChallengeWinner",
      "outputs": [
        {
          "name": "winner",
          "type": "address"
        }
      ],
      "payable": false,
      "stateMutability": "view",
      "type": "function"
    }
  ],
  "bytecode": "0x608060405234801561001057600080fd5b50336000806101000a81548173ffffffffffffffffffffffffffffffffffffffff021916908373ffffffffffffffffffffffffffffffffffffffff1602179055507f2ae68230dd9c1c06842490953a33785a09292650f8c76b1a20b2fbbb214a896c6000809054906101000a900473ffffffffffffffffffffffffffffffffffffffff16604051808273ffffffffffffffffffffffffffffffffffffffff1673ffffffffffffffffffffffffffffffffffffffff16815260200191505060405180910390a1612afe806100e46000396000f3006080604052600436106100f1576000357c0100000000000000000000000000000000000000000000000000000000900463ffffffff1680630263deee146100f65780630afe75a014610141578063477bddaa146101e257806347f8fc391461023d57806350234b171461038057806379ba50971461040b5780637db4ddba146104225780638199e461146104635780638da5cb5b1461048e5780638dd70850146104e55780638f1d377614610586578063a569959b14610795578063b75c262714610812578063ccae607414610889578063d4ee1d90146108f6578063f2fde38b1461094d578063f6b4dfb414610990575b600080fd5b34801561010257600080fd5b5061012b60048036038101908080359060200190929190803590602001909291905050506109e7565b6040518082815260200191505060405180910390f35b34801561014d57600080fd5b506101c8600480360381019080803573ffffffffffffffffffffffffffffffffffffffff169060200190929190803590602001908201803590602001908080601f0160208091040260200160405190810160405280939291908181526020018383808284378201915050505050509192919290505050610a29565b604051808215151515815260200191505060405180910390f35b3480156101ee57600080fd5b50610223600480360381019080803573ffffffffffffffffffffffffffffffffffffffff16906020019092919050505061126b565b604051808215151515815260200191505060405180910390f35b34801561024957600080fd5b50610366600480360381019080803590602001908201803590602001908080601f0160208091040260200160405190810160405280939291908181526020018383808284378201915050505050509192919290803590602001908201803590602001908080601f0160208091040260200160405190810160405280939291908181526020018383808284378201915050505050509192919290803590602001908201803590602001908080601f0160208091040260200160405190810160405280939291908181526020018383808284378201915050505050509192919290803590602001909291908035906020019092919080359060200190929190803560001916906020019092919080359060200190929190505050611312565b604051808215151515815260200191505060405180910390f35b34801561038c57600080fd5b506103f160048036038101908080359060200190929190803590602001908201803590602001908080601f0160208091040260200160405190810160405280939291908181526020018383808284378201915050505050509192919290505050611628565b604051808215151515815260200191505060405180910390f35b34801561041757600080fd5b5061042061197f565b005b34801561042e57600080fd5b5061044d60048036038101908080359060200190929190505050611b1e565b6040518082815260200191505060405180910390f35b34801561046f57600080fd5b50610478611b4b565b6040518082815260200191505060405180910390f35b34801561049a57600080fd5b506104a3611b51565b604051808273ffffffffffffffffffffffffffffffffffffffff1673ffffffffffffffffffffffffffffffffffffffff16815260200191505060405180910390f35b3480156104f157600080fd5b5061056c600480360381019080803573ffffffffffffffffffffffffffffffffffffffff169060200190929190803590602001908201803590602001908080601f0160208091040260200160405190810160405280939291908181526020018383808284378201915050505050509192919290505050611b76565b604051808215151515815260200191505060405180910390f35b34801561059257600080fd5b506105b160048036038101908080359060200190929190505050611eec565b604051808060200180602001806020018b81526020018a81526020018981526020018881526020018773ffffffffffffffffffffffffffffffffffffffff1673ffffffffffffffffffffffffffffffffffffffff16815260200186600019166000191681526020018573ffffffffffffffffffffffffffffffffffffffff1673ffffffffffffffffffffffffffffffffffffffff16815260200184810384528e818151815260200191508051906020019080838360005b83811015610683578082015181840152602081019050610668565b50505050905090810190601f1680156106b05780820380516001836020036101000a031916815260200191505b5084810383528d818151815260200191508051906020019080838360005b838110156106e95780820151818401526020810190506106ce565b50505050905090810190601f1680156107165780820380516001836020036101000a031916815260200191505b5084810382528c818151815260200191508051906020019080838360005b8381101561074f578082015181840152602081019050610734565b50505050905090810190601f16801561077c5780820380516001836020036101000a031916815260200191505b509d505050505050505050505050505060405180910390f35b3480156107a157600080fd5b506107fc600480360381019080803590602001908201803590602001908080601f0160208091040260200160405190810160405280939291908181526020018383808284378201915050505050509192919290505050612157565b6040518082815260200191505060405180910390f35b34801561081e57600080fd5b506108476004803603810190808035906020019092919080359060200190929190505050612326565b604051808273ffffffffffffffffffffffffffffffffffffffff1673ffffffffffffffffffffffffffffffffffffffff16815260200191505060405180910390f35b34801561089557600080fd5b506108b460048036038101908080359060200190929190505050612388565b604051808273ffffffffffffffffffffffffffffffffffffffff1673ffffffffffffffffffffffffffffffffffffffff16815260200191505060405180910390f35b34801561090257600080fd5b5061090b6123d2565b604051808273ffffffffffffffffffffffffffffffffffffffff1673ffffffffffffffffffffffffffffffffffffffff16815260200191505060405180910390f35b34801561095957600080fd5b5061098e600480360381019080803573ffffffffffffffffffffffffffffffffffffffff1690602001909291905050506123f8565b005b34801561099c57600080fd5b506109a5612497565b604051808273ffffffffffffffffffffffffffffffffffffffff1673ffffffffffffffffffffffffffffffffffffffff16815260200191505060405180910390f35b60006003838154811015156109f857fe5b90600052602060002090600d0201600b0182815481101515610a1657fe5b9060005260206000200154905092915050565b60008060006003805490509150600090505b8181101561125e57600381815481101515610a5257fe5b90600052602060002090600d020160070160009054906101000a900473ffffffffffffffffffffffffffffffffffffffff1673ffffffffffffffffffffffffffffffffffffffff163373ffffffffffffffffffffffffffffffffffffffff16148015610b475750836040518082805190602001908083835b602083101515610aef5780518252602082019150602081019050602083039250610aca565b6001836020036101000a038019825116818451168082178552505050505050905001915050604051809103902060001916600382815481101515610b2f57fe5b90600052602060002090600d02016008015460001916145b15611251578473ffffffffffffffffffffffffffffffffffffffff1662ac4434600383815481101515610b7657fe5b90600052602060002090600d020160070160009054906101000a900473ffffffffffffffffffffffffffffffffffffffff16600384815481101515610bb757fe5b90600052602060002090600d0201600c0160009054906101000a900473ffffffffffffffffffffffffffffffffffffffff16600385815481101515610bf857fe5b90600052602060002090600d0201600401546040518463ffffffff167c0100000000000000000000000000000000000000000000000000000000028152600401808473ffffffffffffffffffffffffffffffffffffffff1673ffffffffffffffffffffffffffffffffffffffff1681526020018373ffffffffffffffffffffffffffffffffffffffff1673ffffffffffffffffffffffffffffffffffffffff1681526020018281526020019350505050602060405180830381600087803b158015610cc257600080fd5b505af1158015610cd6573d6000803e3d6000fd5b505050506040513d6020811015610cec57600080fd5b8101908080519060200190929190505050506001600454111561112d57600381815481101515610d1857fe5b90600052602060002090600d020160008082016000610d3791906124d9565b600182016000610d4791906124d9565b600282016000610d5791906124d9565b60038201600090556004820160009055600582016000905560068201600090556007820160006101000a81549073ffffffffffffffffffffffffffffffffffffffff02191690556008820160009055600982016000610db69190612521565b600a82016000610dc69190612542565b600b82016000610dd6919061256a565b600c820160006101000a81549073ffffffffffffffffffffffffffffffffffffffff021916905550506003600160038054905003815481101515610e1657fe5b90600052602060002090600d0201600382815481101515610e3357fe5b90600052602060002090600d020160008201816000019080546001816001161561010002031660029004610e6892919061258b565b5060018201816001019080546001816001161561010002031660029004610e9092919061258b565b5060028201816002019080546001816001161561010002031660029004610eb892919061258b565b50600382015481600301556004820154816004015560058201548160050155600682015481600601556007820160009054906101000a900473ffffffffffffffffffffffffffffffffffffffff168160070160006101000a81548173ffffffffffffffffffffffffffffffffffffffff021916908373ffffffffffffffffffffffffffffffffffffffff160217905550600882015481600801906000191690556009820181600901908054610f6e929190612612565b50600a820181600a01908054610f85929190612664565b50600b820181600b01908054610f9c9291906126c4565b50600c820160009054906101000a900473ffffffffffffffffffffffffffffffffffffffff1681600c0160006101000a81548173ffffffffffffffffffffffffffffffffffffffff021916908373ffffffffffffffffffffffffffffffffffffffff160217905550905050600360016003805490500381548110151561101e57fe5b90600052602060002090600d02016000808201600061103d91906124d9565b60018201600061104d91906124d9565b60028201600061105d91906124d9565b60038201600090556004820160009055600582016000905560068201600090556007820160006101000a81549073ffffffffffffffffffffffffffffffffffffffff021916905560088201600090556009820160006110bc9190612521565b600a820160006110cc9190612542565b600b820160006110dc919061256a565b600c820160006101000a81549073ffffffffffffffffffffffffffffffffffffffff0219169055505060016003805490500360038161111b9190612716565b50600380549050600481905550611248565b6003600081548110151561113d57fe5b90600052602060002090600d02016000808201600061115c91906124d9565b60018201600061116c91906124d9565b60028201600061117c91906124d9565b60038201600090556004820160009055600582016000905560068201600090556007820160006101000a81549073ffffffffffffffffffffffffffffffffffffffff021916905560088201600090556009820160006111db9190612521565b600a820160006111eb9190612542565b600b820160006111fb919061256a565b600c820160006101000a81549073ffffffffffffffffffffffffffffffffffffffff0219169055505060016003805490500360038161123a9190612716565b506003805490506004819055505b60019250611263565b8080600101915050610a3b565b600092505b505092915050565b60008060009054906101000a900473ffffffffffffffffffffffffffffffffffffffff1673ffffffffffffffffffffffffffffffffffffffff163373ffffffffffffffffffffffffffffffffffffffff161415156112c857600080fd5b81600260006101000a81548173ffffffffffffffffffffffffffffffffffffffff021916908373ffffffffffffffffffffffffffffffffffffffff16021790555060019050919050565b600080841015151561132357600080fd5b6000861015151561133357600080fd5b6000851015151561134357600080fd5b60036101a0604051908101604052808b81526020018a81526020018981526020018481526020018881526020018781526020018681526020013373ffffffffffffffffffffffffffffffffffffffff1681526020018560001916815260200160006040519080825280602002602001820160405280156113d25781602001602082028038833980820191505090505b50815260200160006040519080825280602002602001820160405280156114085781602001602082028038833980820191505090505b508152602001600060405190808252806020026020018201604052801561143e5781602001602082028038833980820191505090505b508152602001600073ffffffffffffffffffffffffffffffffffffffff168152509080600181540180825580915050906001820390600052602060002090600d02016000909192909190915060008201518160000190805190602001906114a6929190612748565b5060208201518160010190805190602001906114c3929190612748565b5060408201518160020190805190602001906114e0929190612748565b50606082015181600301556080820151816004015560a0820151816005015560c0820151816006015560e08201518160070160006101000a81548173ffffffffffffffffffffffffffffffffffffffff021916908373ffffffffffffffffffffffffffffffffffffffff160217905550610100820151816008019060001916905561012082015181600901908051906020019061157e9291906127c8565b5061014082015181600a01908051906020019061159c929190612852565b5061016082015181600b0190805190602001906115ba9291906128f8565b5061018082015181600c0160006101000a81548173ffffffffffffffffffffffffffffffffffffffff021916908373ffffffffffffffffffffffffffffffffffffffff1602179055505050506004600081548092919060010191905055506001905098975050505050505050565b6000806000806003805490509250600091505b8282101561197157846040518082805190602001908083835b6020831015156116795780518252602082019150602081019050602083039250611654565b6001836020036101000a0380198251168184511680821785525050505050509050019150506040518091039020600019166003838154811015156116b957fe5b90600052602060002090600d02016008015460001916141561196457600090505b6003828154811015156116e957fe5b90600052602060002090600d0201600901805490508110156119635760038281548110151561171457fe5b90600052602060002090600d02016009018181548110151561173257fe5b9060005260206000200160009054906101000a900473ffffffffffffffffffffffffffffffffffffffff1673ffffffffffffffffffffffffffffffffffffffff163373ffffffffffffffffffffffffffffffffffffffff161415611956576117da866003848154811015156117a357fe5b90600052602060002090600d0201600b01838154811015156117c157fe5b90600052602060002001546124bd90919063ffffffff16565b6003838154811015156117e957fe5b90600052602060002090600d0201600b018281548110151561180757fe5b906000526020600020018190555060038281548110151561182457fe5b90600052602060002090600d02016005015460038381548110151561184557fe5b90600052602060002090600d0201600b018281548110151561186357fe5b9060005260206000200154101580156118e85750600073ffffffffffffffffffffffffffffffffffffffff1660038381548110151561189e57fe5b90600052602060002090600d0201600c0160009054906101000a900473ffffffffffffffffffffffffffffffffffffffff1673ffffffffffffffffffffffffffffffffffffffff16145b1561194d57336003838154811015156118fd57fe5b90600052602060002090600d0201600c0160006101000a81548173ffffffffffffffffffffffffffffffffffffffff021916908373ffffffffffffffffffffffffffffffffffffffff1602179055505b60019350611976565b80806001019150506116da565b5b818060010192505061163b565b600093505b50505092915050565b600160009054906101000a900473ffffffffffffffffffffffffffffffffffffffff1673ffffffffffffffffffffffffffffffffffffffff163373ffffffffffffffffffffffffffffffffffffffff161415156119db57600080fd5b600160009054906101000a900473ffffffffffffffffffffffffffffffffffffffff1673ffffffffffffffffffffffffffffffffffffffff166000809054906101000a900473ffffffffffffffffffffffffffffffffffffffff1673ffffffffffffffffffffffffffffffffffffffff167f8be0079c531659141344cd1fd0a4f28419497f9722a3daafe3b4186f6b6457e060405160405180910390a3600160009054906101000a900473ffffffffffffffffffffffffffffffffffffffff166000806101000a81548173ffffffffffffffffffffffffffffffffffffffff021916908373ffffffffffffffffffffffffffffffffffffffff1602179055506000600160006101000a81548173ffffffffffffffffffffffffffffffffffffffff021916908373ffffffffffffffffffffffffffffffffffffffff160217905550565b6000600382815481101515611b2f57fe5b90600052602060002090600d0201600901805490509050919050565b60045481565b6000809054906101000a900473ffffffffffffffffffffffffffffffffffffffff1681565b60008060006003805490509150600090505b81811015611edf57836040518082805190602001908083835b602083101515611bc65780518252602082019150602081019050602083039250611ba1565b6001836020036101000a038019825116818451168082178552505050505050905001915050604051809103902060001916600382815481101515611c0657fe5b90600052602060002090600d020160080154600019161415611ed2578473ffffffffffffffffffffffffffffffffffffffff1662ac443433600384815481101515611c4d57fe5b90600052602060002090600d020160070160009054906101000a900473ffffffffffffffffffffffffffffffffffffffff16600385815481101515611c8e57fe5b90600052602060002090600d0201600601546040518463ffffffff167c0100000000000000000000000000000000000000000000000000000000028152600401808473ffffffffffffffffffffffffffffffffffffffff1673ffffffffffffffffffffffffffffffffffffffff1681526020018373ffffffffffffffffffffffffffffffffffffffff1673ffffffffffffffffffffffffffffffffffffffff1681526020018281526020019350505050602060405180830381600087803b158015611d5857600080fd5b505af1158015611d6c573d6000803e3d6000fd5b505050506040513d6020811015611d8257600080fd5b810190808051906020019092919050505050600381815481101515611da357fe5b90600052602060002090600d02016009013390806001815401808255809150509060018203906000526020600020016000909192909190916101000a81548173ffffffffffffffffffffffffffffffffffffffff021916908373ffffffffffffffffffffffffffffffffffffffff16021790555050600381815481101515611e2757fe5b90600052602060002090600d0201600a016001908060018154018082558091505090600182039060005260206000209060209182820401919006909192909190916101000a81548160ff02191690831515021790555050600381815481101515611e8d57fe5b90600052602060002090600d0201600b016000908060018154018082558091505090600182039060005260206000200160009091929091909150555060019250611ee4565b8080600101915050611b88565b600092505b505092915050565b600381815481101515611efb57fe5b90600052602060002090600d0201600091509050806000018054600181600116156101000203166002900480601f016020809104026020016040519081016040528092919081815260200182805460018160011615610100020316600290048015611fa75780601f10611f7c57610100808354040283529160200191611fa7565b820191906000526020600020905b815481529060010190602001808311611f8a57829003601f168201915b505050505090806001018054600181600116156101000203166002900480601f0160208091040260200160405190810160405280929190818152602001828054600181600116156101000203166002900480156120455780601f1061201a57610100808354040283529160200191612045565b820191906000526020600020905b81548152906001019060200180831161202857829003601f168201915b505050505090806002018054600181600116156101000203166002900480601f0160208091040260200160405190810160405280929190818152602001828054600181600116156101000203166002900480156120e35780601f106120b8576101008083540402835291602001916120e3565b820191906000526020600020905b8154815290600101906020018083116120c657829003601f168201915b5050505050908060030154908060040154908060050154908060060154908060070160009054906101000a900473ffffffffffffffffffffffffffffffffffffffff169080600801549080600c0160009054906101000a900473ffffffffffffffffffffffffffffffffffffffff1690508a565b6000806000806003805490509250600091505b8282101561231957846040518082805190602001908083835b6020831015156121a85780518252602082019150602081019050602083039250612183565b6001836020036101000a0380198251168184511680821785525050505050509050019150506040518091039020600019166003838154811015156121e857fe5b90600052602060002090600d02016008015460001916141561230c57600090505b60038281548110151561221857fe5b90600052602060002090600d02016009018054905081101561230b5760038281548110151561224357fe5b90600052602060002090600d02016009018181548110151561226157fe5b9060005260206000200160009054906101000a900473ffffffffffffffffffffffffffffffffffffffff1673ffffffffffffffffffffffffffffffffffffffff163373ffffffffffffffffffffffffffffffffffffffff1614156122fe576003828154811015156122ce57fe5b90600052602060002090600d0201600b01818154811015156122ec57fe5b9060005260206000200154935061231e565b8080600101915050612209565b5b818060010192505061216a565b600093505b505050919050565b600060038381548110151561233757fe5b90600052602060002090600d02016009018281548110151561235557fe5b9060005260206000200160009054906101000a900473ffffffffffffffffffffffffffffffffffffffff16905092915050565b600060038281548110151561239957fe5b90600052602060002090600d0201600c0160009054906101000a900473ffffffffffffffffffffffffffffffffffffffff169050919050565b600160009054906101000a900473ffffffffffffffffffffffffffffffffffffffff1681565b6000809054906101000a900473ffffffffffffffffffffffffffffffffffffffff1673ffffffffffffffffffffffffffffffffffffffff163373ffffffffffffffffffffffffffffffffffffffff1614151561245357600080fd5b80600160006101000a81548173ffffffffffffffffffffffffffffffffffffffff021916908373ffffffffffffffffffffffffffffffffffffffff16021790555050565b600260009054906101000a900473ffffffffffffffffffffffffffffffffffffffff1681565b600081830190508281101515156124d357600080fd5b92915050565b50805460018160011615610100020316600290046000825580601f106124ff575061251e565b601f01602090049060005260206000209081019061251d9190612945565b5b50565b508054600082559060005260206000209081019061253f9190612945565b50565b50805460008255601f0160209004906000526020600020908101906125679190612945565b50565b50805460008255906000526020600020908101906125889190612945565b50565b828054600181600116156101000203166002900490600052602060002090601f016020900481019282601f106125c45780548555612601565b8280016001018555821561260157600052602060002091601f016020900482015b828111156126005782548255916001019190600101906125e5565b5b50905061260e9190612945565b5090565b8280548282559060005260206000209081019282156126535760005260206000209182015b82811115612652578254825591600101919060010190612637565b5b509050612660919061296a565b5090565b82805482825590600052602060002090601f016020900481019282156126b357600052602060002091601f016020900482015b828111156126b2578254825591600101919060010190612697565b5b5090506126c091906129ad565b5090565b8280548282559060005260206000209081019282156127055760005260206000209182015b828111156127045782548255916001019190600101906126e9565b5b5090506127129190612945565b5090565b81548183558181111561274357600d0281600d02836000526020600020918201910161274291906129dd565b5b505050565b828054600181600116156101000203166002900490600052602060002090601f016020900481019282601f1061278957805160ff19168380011785556127b7565b828001600101855582156127b7579182015b828111156127b657825182559160200191906001019061279b565b5b5090506127c49190612945565b5090565b828054828255906000526020600020908101928215612841579160200282015b828111156128405782518260006101000a81548173ffffffffffffffffffffffffffffffffffffffff021916908373ffffffffffffffffffffffffffffffffffffffff160217905550916020019190600101906127e8565b5b50905061284e919061296a565b5090565b82805482825590600052602060002090601f016020900481019282156128e75791602002820160005b838211156128b857835183826101000a81548160ff021916908315150217905550926020019260010160208160000104928301926001030261287b565b80156128e55782816101000a81549060ff02191690556001016020816000010492830192600103026128b8565b505b5090506128f491906129ad565b5090565b828054828255906000526020600020908101928215612934579160200282015b82811115612933578251825591602001919060010190612918565b5b5090506129419190612945565b5090565b61296791905b8082111561296357600081600090555060010161294b565b5090565b90565b6129aa91905b808211156129a657600081816101000a81549073ffffffffffffffffffffffffffffffffffffffff021916905550600101612970565b5090565b90565b6129da91905b808211156129d657600081816101000a81549060ff0219169055506001016129b3565b5090565b90565b612acf91905b80821115612acb57600080820160006129fc91906124d9565b600182016000612a0c91906124d9565b600282016000612a1c91906124d9565b60038201600090556004820160009055600582016000905560068201600090556007820160006101000a81549073ffffffffffffffffffffffffffffffffffffffff02191690556008820160009055600982016000612a7b9190612521565b600a82016000612a8b9190612542565b600b82016000612a9b919061256a565b600c820160006101000a81549073ffffffffffffffffffffffffffffffffffffffff021916905550600d016129e3565b5090565b905600a165627a7a723058205e2da45e1a63966bb0517484c00aa472eba45b46a28daad3086f7b5a8961c2060029",
  "source": "pragma solidity ^0.4.21;\r\n\r\n\r\n// ----------------------------------------------------------------------------\r\n//  Manage User Challenge\r\n//  tied to WelCoin contract\r\n//  Credit: Alberto Carbognin\r\n// \tLICENSE: MIT\r\n// ----------------------------------------------------------------------------\r\n\r\nimport \"./WelCoin.sol\";\r\n\r\ncontract ChallengeManager is Owned {\r\n\tusing SafeMath for uint;\r\n\taddress public contractAddress;\r\n\t\r\n\r\n\t// NOT YET SUPPORTED\r\n\t// I asked the following question:\r\n\t// https://github.com/ethereum/solidity/issues/4115\r\n\t//\r\n\t// Can't initialized Array of Struct inside a Struct.\r\n\t// I pivot to a less elegant working solution because of this problem.\r\n\t// ------------------------------------------------------------------------\r\n\t// My temporary solution is:\r\n\t// address[] participantsAddress\r\n\t// bool[] participantsStatus\r\n\t// uint[] participantsGoal\r\n\t// ------------------------------------------------------------------------\r\n\t\r\n\tstruct Participant {\r\n\t\taddress participantAddress;\r\n\t\tbool participate;\r\n\t\tuint goal;\r\n\t}\r\n\t\r\n\r\n\tstruct Challenge {\r\n\t\tstring name;\r\n\t\tstring description;\r\n\t\tstring targetDescription;\r\n\t\tuint256 timestamp;\r\n\t\tuint prize;\r\n\t\tuint target;\r\n\t\tuint fee;\r\n\t\taddress owner;\r\n\t\tbytes32 challengeHash;\r\n\r\n\t\t// these arrays rappresent the same object\r\n\t\taddress[] participantsAddress;\r\n\t\tbool[] participantsStatus;\r\n\t\tuint[] participantsGoal;\r\n\r\n\t\t//other\r\n\t\taddress winner;\r\n\t}\r\n\r\n\tChallenge[] public challenges;\r\n\tuint public challengesLength;\r\n\r\n\tevent Creation(address own);\r\n\r\n\tconstructor() public {\r\n\t\temit Creation(owner);\r\n\t}\r\n\r\n\r\n\tfunction createChallenge(\r\n\t\tstring nameCreate,\r\n\t\tstring descriptionCreate,\r\n\t\tstring targetDescriptionCreate,\r\n\t\tuint prizeCreate,\r\n\t\tuint targetCreate,\r\n\t\tuint feeCreate,\r\n\t\tbytes32 hash,\r\n\t\tuint256 nowUnix\r\n\t\t) public returns(bool success) {\r\n\r\n\t\trequire (feeCreate >= 0);\r\n\t\trequire (prizeCreate >= 0);\r\n\t\trequire (targetCreate >= 0);\r\n\r\n\t\t// ------------------------------------------------------------------------\r\n\t\t// Don't mind about this\r\n\t\t// ------------------------------------------------------------------------\r\n\t\t// Participant[] storage part;\r\n\t\t// part.push(Participant(msg.sender, false, 0)); //the element 0 is the owner which is not participating\r\n\t\t// ------------------------------------------------------------------------\r\n\r\n\r\n\r\n\t\tchallenges.push(Challenge(\r\n\t\t\tnameCreate,\r\n\t\t\tdescriptionCreate,\r\n\t\t\ttargetDescriptionCreate,\r\n\t\t\tnowUnix,\r\n\t\t\tprizeCreate,\r\n\t\t\ttargetCreate,\r\n\t\t\tfeeCreate,\r\n\t\t\tmsg.sender,\r\n\t\t\thash,\r\n\t\t\tnew address[](0),\r\n\t\t\tnew bool[](0),\r\n\t\t\tnew uint[](0),\r\n\t\t\taddress(0)\r\n\t\t\t));\r\n\r\n\t\tchallengesLength++;\r\n\r\n        return true;\r\n    }\r\n\r\n    function participateToChallenge(address contractadd, string hash) public returns(bool success) {\r\n\r\n    \tuint challengeLength = challenges.length;\r\n    \tfor (uint i = 0; i < challengeLength; i++) {\r\n    \t\t\r\n    \t\tif (challenges[i].challengeHash == keccak256(hash)) {\r\n    \t\t\t//WelCoin cont = WelCoin(contracadd);\r\n    \t\t\tWelCoin(contractadd).virtualDepositTransferFrom(msg.sender, challenges[i].owner, challenges[i].fee);\r\n    \t\t\tchallenges[i].participantsAddress.push(msg.sender);\r\n    \t\t\tchallenges[i].participantsStatus.push(true);\r\n    \t\t\tchallenges[i].participantsGoal.push(0);\r\n\r\n    \t\t\treturn true;\r\n    \t\t}\r\n    \t}\r\n\r\n    \treturn false;\r\n    }\r\n\r\n\tfunction depositGoalUnit(uint goalUnit, string hash) public returns(bool success){\r\n\r\n\t\tuint challengeLength = challenges.length;\r\n\r\n    \tfor (uint i = 0; i < challengeLength; i++) {\r\n    \t\t\r\n    \t\tif (challenges[i].challengeHash == keccak256(hash)) {\r\n\r\n    \t\t\tfor(uint j = 0; j < challenges[i].participantsAddress.length; j++) {\r\n\r\n    \t\t\t\tif (msg.sender == challenges[i].participantsAddress[j]) {\r\n    \t\t\t\t\tchallenges[i].participantsGoal[j] = challenges[i].participantsGoal[j].add(goalUnit);\r\n\r\n    \t\t\t\t\tif ((challenges[i].participantsGoal[j] >= challenges[i].target) && (challenges[i].winner == address(0))) {\r\n    \t\t\t\t\t\tchallenges[i].winner = msg.sender;\r\n    \t\t\t\t\t}\r\n\r\n    \t\t\t\t\treturn true;\r\n    \t\t\t\t}\r\n    \t\t\t}    \t\t\r\n    \t\t}\r\n    \t}\r\n\r\n\t\treturn false;\r\n\t} \r\n\r\n\r\n\tfunction issuePrize(address contractadd, string hash) public returns(bool success){\r\n\r\n\t\tuint challengeLength = challenges.length;\r\n    \tfor (uint i = 0; i < challengeLength; i++) {\r\n    \t\t\r\n    \t\tif ((msg.sender == challenges[i].owner) && (challenges[i].challengeHash == keccak256(hash))) {\r\n\r\n    \t\t\tWelCoin(contractadd).virtualDepositTransferFrom(challenges[i].owner, challenges[i].winner, challenges[i].prize);\r\n\r\n    \t\t\t// Deleting the Challenge\r\n    \t\t\t// Put the last element in the gap\r\n    \t\t\t// Deleting last element\r\n    \t\t\tif (challengesLength > 1) {\r\n    \t\t\t\tdelete challenges[i];\r\n    \t\t\t\tchallenges[i] = challenges[challenges.length-1];\r\n\t    \t\t\tdelete challenges[challenges.length-1];\r\n\t    \t\t\tchallenges.length = challenges.length-1;\r\n\t    \t\t\tchallengesLength = challenges.length;\r\n\t    \t\t\t\r\n    \t\t\t} else {\r\n    \t\t\t\tdelete challenges[0];\r\n    \t\t\t\tchallenges.length = challenges.length-1;\r\n\t    \t\t\tchallengesLength = challenges.length;\r\n    \t\t\t}\r\n    \t\t\t//delete challenges[i];\r\n    \t\t\t//challenges[i] = challenges[challengesLength-1];\r\n    \t\t\t//challengesLength = challengesLength.sub(1);\r\n\r\n\r\n    \t\t\t//challenges[i] = challenges[challengeLength-1];\r\n    \t\t\t//delete challenges[challengeLength-1];\r\n    \t\t\t//challengesLength = challengesLength.sub(1);\r\n\r\n    \t\t\t// TODO: Resolve the bug in the above code.\r\n\r\n\r\n    \t\t\treturn true;\r\n    \t\t}\r\n    \t}\r\n\r\n\t\treturn false;\r\n\t}   \r\n\r\n\tfunction getChallengePartecipantsGoal(string hash) public constant returns(uint goal){\r\n\r\n\t\tuint challengeLength = challenges.length;\r\n\r\n    \tfor (uint i = 0; i < challengeLength; i++) {\r\n    \t\tif (challenges[i].challengeHash == keccak256(hash)) {\r\n\r\n    \t\t\tfor(uint j = 0; j < challenges[i].participantsAddress.length; j++) {\r\n    \t\t\t\tif (msg.sender == challenges[i].participantsAddress[j]) {\r\n    \t\t\t\t\treturn challenges[i].participantsGoal[j];\r\n    \t\t\t\t}\r\n    \t\t\t} \t\t\r\n    \t\t}\r\n    \t}\r\n\r\n\t\treturn 0;\r\n\t} \r\n\r\n    function setContractAddress(address contAdd) public returns(bool success){\r\n\r\n    \trequire (msg.sender == owner);\r\n    \tcontractAddress = contAdd;\r\n    \treturn true;\r\n    }\r\n\r\n    function getChallengeParticipantsLength(uint challIndex) public constant returns(uint length) {\r\n    \treturn challenges[challIndex].participantsAddress.length;\r\n    }\r\n\r\n    function getChallengeParticipants(uint index1, uint index2) public constant returns(address participant){\r\n    \treturn challenges[index1].participantsAddress[index2];\r\n    }\r\n\r\n    function getChallengeParticipantsGoal(uint index1, uint index2) public constant returns(uint participant){\r\n    \treturn challenges[index1].participantsGoal[index2];\r\n    }\r\n\r\n    function getChallengeWinner(uint index1) public constant returns(address winner){\r\n    \treturn challenges[index1].winner;\r\n    }\r\n\r\n\r\n\r\n\r\n\r\n}",
  "sourcePath": "C:\\Users\\Alberto\\Desktop\\Tirocinio\\SmartContract\\smartcontractdemo\\contracts\\ChallengeManager.sol",
  "compiler": {
    "name": "solc",
    "version": "0.4.23+commit.124ca40d.Emscripten.clang"
  },
  "schemaVersion": "2.0.0",
  "updatedAt": "2018-05-15T12:24:37.181Z"
}