{
  "contractName": "ChallengeManager",
  "abi": [
    {
      "constant": false,
      "inputs": [],
      "name": "acceptOwnership",
      "outputs": [],
      "payable": false,
      "stateMutability": "nonpayable",
      "type": "function"
    },
    {
      "constant": true,
      "inputs": [],
      "name": "challengesLength",
      "outputs": [
        {
          "name": "",
          "type": "uint256"
        }
      ],
      "payable": false,
      "stateMutability": "view",
      "type": "function"
    },
    {
      "constant": true,
      "inputs": [],
      "name": "owner",
      "outputs": [
        {
          "name": "",
          "type": "address"
        }
      ],
      "payable": false,
      "stateMutability": "view",
      "type": "function"
    },
    {
      "constant": true,
      "inputs": [
        {
          "name": "",
          "type": "uint256"
        }
      ],
      "name": "challenges",
      "outputs": [
        {
          "name": "name",
          "type": "string"
        },
        {
          "name": "description",
          "type": "string"
        },
        {
          "name": "targetDescription",
          "type": "string"
        },
        {
          "name": "timestamp",
          "type": "uint256"
        },
        {
          "name": "prize",
          "type": "uint256"
        },
        {
          "name": "target",
          "type": "uint256"
        },
        {
          "name": "fee",
          "type": "uint256"
        },
        {
          "name": "owner",
          "type": "address"
        },
        {
          "name": "challengeHash",
          "type": "bytes32"
        },
        {
          "name": "winner",
          "type": "address"
        }
      ],
      "payable": false,
      "stateMutability": "view",
      "type": "function"
    },
    {
      "constant": true,
      "inputs": [],
      "name": "newOwner",
      "outputs": [
        {
          "name": "",
          "type": "address"
        }
      ],
      "payable": false,
      "stateMutability": "view",
      "type": "function"
    },
    {
      "constant": false,
      "inputs": [
        {
          "name": "_newOwner",
          "type": "address"
        }
      ],
      "name": "transferOwnership",
      "outputs": [],
      "payable": false,
      "stateMutability": "nonpayable",
      "type": "function"
    },
    {
      "constant": true,
      "inputs": [],
      "name": "contractAddress",
      "outputs": [
        {
          "name": "",
          "type": "address"
        }
      ],
      "payable": false,
      "stateMutability": "view",
      "type": "function"
    },
    {
      "inputs": [],
      "payable": false,
      "stateMutability": "nonpayable",
      "type": "constructor"
    },
    {
      "anonymous": false,
      "inputs": [
        {
          "indexed": false,
          "name": "own",
          "type": "address"
        }
      ],
      "name": "Creation",
      "type": "event"
    },
    {
      "anonymous": false,
      "inputs": [
        {
          "indexed": true,
          "name": "_from",
          "type": "address"
        },
        {
          "indexed": true,
          "name": "_to",
          "type": "address"
        }
      ],
      "name": "OwnershipTransferred",
      "type": "event"
    },
    {
      "constant": false,
      "inputs": [
        {
          "name": "nameCreate",
          "type": "string"
        },
        {
          "name": "descriptionCreate",
          "type": "string"
        },
        {
          "name": "targetDescriptionCreate",
          "type": "string"
        },
        {
          "name": "prizeCreate",
          "type": "uint256"
        },
        {
          "name": "targetCreate",
          "type": "uint256"
        },
        {
          "name": "feeCreate",
          "type": "uint256"
        },
        {
          "name": "hash",
          "type": "bytes32"
        },
        {
          "name": "nowUnix",
          "type": "uint256"
        }
      ],
      "name": "createChallenge",
      "outputs": [
        {
          "name": "success",
          "type": "bool"
        }
      ],
      "payable": false,
      "stateMutability": "nonpayable",
      "type": "function"
    },
    {
      "constant": false,
      "inputs": [
        {
          "name": "contractadd",
          "type": "address"
        },
        {
          "name": "hash",
          "type": "string"
        }
      ],
      "name": "participateToChallenge",
      "outputs": [
        {
          "name": "success",
          "type": "bool"
        }
      ],
      "payable": false,
      "stateMutability": "nonpayable",
      "type": "function"
    },
    {
      "constant": false,
      "inputs": [
        {
          "name": "goalUnit",
          "type": "uint256"
        },
        {
          "name": "hash",
          "type": "string"
        }
      ],
      "name": "depositGoalUnit",
      "outputs": [
        {
          "name": "success",
          "type": "bool"
        }
      ],
      "payable": false,
      "stateMutability": "nonpayable",
      "type": "function"
    },
    {
      "constant": false,
      "inputs": [
        {
          "name": "contractadd",
          "type": "address"
        },
        {
          "name": "hash",
          "type": "string"
        }
      ],
      "name": "issuePrize",
      "outputs": [
        {
          "name": "success",
          "type": "bool"
        }
      ],
      "payable": false,
      "stateMutability": "nonpayable",
      "type": "function"
    },
    {
      "constant": false,
      "inputs": [
        {
          "name": "contAdd",
          "type": "address"
        }
      ],
      "name": "setContractAddress",
      "outputs": [
        {
          "name": "success",
          "type": "bool"
        }
      ],
      "payable": false,
      "stateMutability": "nonpayable",
      "type": "function"
    },
    {
      "constant": true,
      "inputs": [
        {
          "name": "challIndex",
          "type": "uint256"
        }
      ],
      "name": "getChallengeParticipantsLength",
      "outputs": [
        {
          "name": "length",
          "type": "uint256"
        }
      ],
      "payable": false,
      "stateMutability": "view",
      "type": "function"
    },
    {
      "constant": false,
      "inputs": [
        {
          "name": "index1",
          "type": "uint256"
        },
        {
          "name": "index2",
          "type": "uint256"
        }
      ],
      "name": "getChallengeParticipants",
      "outputs": [
        {
          "name": "participant",
          "type": "address"
        }
      ],
      "payable": false,
      "stateMutability": "nonpayable",
      "type": "function"
    },
    {
      "constant": false,
      "inputs": [
        {
          "name": "index1",
          "type": "uint256"
        },
        {
          "name": "index2",
          "type": "uint256"
        }
      ],
      "name": "getChallengeParticipantsGoal",
      "outputs": [
        {
          "name": "participant",
          "type": "uint256"
        }
      ],
      "payable": false,
      "stateMutability": "nonpayable",
      "type": "function"
    }
  ],
  "bytecode": "0x608060405234801561001057600080fd5b50336000806101000a81548173ffffffffffffffffffffffffffffffffffffffff021916908373ffffffffffffffffffffffffffffffffffffffff1602179055507f2ae68230dd9c1c06842490953a33785a09292650f8c76b1a20b2fbbb214a896c6000809054906101000a900473ffffffffffffffffffffffffffffffffffffffff16604051808273ffffffffffffffffffffffffffffffffffffffff1673ffffffffffffffffffffffffffffffffffffffff16815260200191505060405180910390a1611f8f806100e46000396000f3006080604052600436106100db576000357c0100000000000000000000000000000000000000000000000000000000900463ffffffff1680630263deee146100e05780630afe75a01461012b578063477bddaa146101cc57806347f8fc391461022757806350234b171461036a57806379ba5097146103f55780637db4ddba1461040c5780638199e4611461044d5780638da5cb5b146104785780638dd70850146104cf5780638f1d377614610570578063b75c26271461077f578063d4ee1d90146107f6578063f2fde38b1461084d578063f6b4dfb414610890575b600080fd5b3480156100ec57600080fd5b5061011560048036038101908080359060200190929190803590602001909291905050506108e7565b6040518082815260200191505060405180910390f35b34801561013757600080fd5b506101b2600480360381019080803573ffffffffffffffffffffffffffffffffffffffff169060200190929190803590602001908201803590602001908080601f0160208091040260200160405190810160405280939291908181526020018383808284378201915050505050509192919290505050610929565b604051808215151515815260200191505060405180910390f35b3480156101d857600080fd5b5061020d600480360381019080803573ffffffffffffffffffffffffffffffffffffffff169060200190929190505050610d4d565b604051808215151515815260200191505060405180910390f35b34801561023357600080fd5b50610350600480360381019080803590602001908201803590602001908080601f0160208091040260200160405190810160405280939291908181526020018383808284378201915050505050509192919290803590602001908201803590602001908080601f0160208091040260200160405190810160405280939291908181526020018383808284378201915050505050509192919290803590602001908201803590602001908080601f0160208091040260200160405190810160405280939291908181526020018383808284378201915050505050509192919290803590602001909291908035906020019092919080359060200190929190803560001916906020019092919080359060200190929190505050610df4565b604051808215151515815260200191505060405180910390f35b34801561037657600080fd5b506103db60048036038101908080359060200190929190803590602001908201803590602001908080601f016020809104026020016040519081016040528093929190818152602001838380828437820191505050505050919291929050505061110a565b604051808215151515815260200191505060405180910390f35b34801561040157600080fd5b5061040a6113a9565b005b34801561041857600080fd5b5061043760048036038101908080359060200190929190505050611548565b6040518082815260200191505060405180910390f35b34801561045957600080fd5b50610462611575565b6040518082815260200191505060405180910390f35b34801561048457600080fd5b5061048d61157b565b604051808273ffffffffffffffffffffffffffffffffffffffff1673ffffffffffffffffffffffffffffffffffffffff16815260200191505060405180910390f35b3480156104db57600080fd5b50610556600480360381019080803573ffffffffffffffffffffffffffffffffffffffff169060200190929190803590602001908201803590602001908080601f01602080910402602001604051908101604052809392919081815260200183838082843782019150505050505091929192905050506115a0565b604051808215151515815260200191505060405180910390f35b34801561057c57600080fd5b5061059b60048036038101908080359060200190929190505050611916565b604051808060200180602001806020018b81526020018a81526020018981526020018881526020018773ffffffffffffffffffffffffffffffffffffffff1673ffffffffffffffffffffffffffffffffffffffff16815260200186600019166000191681526020018573ffffffffffffffffffffffffffffffffffffffff1673ffffffffffffffffffffffffffffffffffffffff16815260200184810384528e818151815260200191508051906020019080838360005b8381101561066d578082015181840152602081019050610652565b50505050905090810190601f16801561069a5780820380516001836020036101000a031916815260200191505b5084810383528d818151815260200191508051906020019080838360005b838110156106d35780820151818401526020810190506106b8565b50505050905090810190601f1680156107005780820380516001836020036101000a031916815260200191505b5084810382528c818151815260200191508051906020019080838360005b8381101561073957808201518184015260208101905061071e565b50505050905090810190601f1680156107665780820380516001836020036101000a031916815260200191505b509d505050505050505050505050505060405180910390f35b34801561078b57600080fd5b506107b46004803603810190808035906020019092919080359060200190929190505050611b81565b604051808273ffffffffffffffffffffffffffffffffffffffff1673ffffffffffffffffffffffffffffffffffffffff16815260200191505060405180910390f35b34801561080257600080fd5b5061080b611be3565b604051808273ffffffffffffffffffffffffffffffffffffffff1673ffffffffffffffffffffffffffffffffffffffff16815260200191505060405180910390f35b34801561085957600080fd5b5061088e600480360381019080803573ffffffffffffffffffffffffffffffffffffffff169060200190929190505050611c09565b005b34801561089c57600080fd5b506108a5611ca8565b604051808273ffffffffffffffffffffffffffffffffffffffff1673ffffffffffffffffffffffffffffffffffffffff16815260200191505060405180910390f35b60006003838154811015156108f857fe5b90600052602060002090600d0201600b018281548110151561091657fe5b9060005260206000200154905092915050565b60008060006003805490509150600090505b81811015610d4157836040518082805190602001908083835b6020831015156109795780518252602082019150602081019050602083039250610954565b6001836020036101000a0380198251168184511680821785525050505050509050019150506040518091039020600019166003828154811015156109b957fe5b90600052602060002090600d02016008015460001916148015610a4757506003818154811015156109e657fe5b90600052602060002090600d020160070160009054906101000a900473ffffffffffffffffffffffffffffffffffffffff1673ffffffffffffffffffffffffffffffffffffffff163373ffffffffffffffffffffffffffffffffffffffff16145b15610d34578473ffffffffffffffffffffffffffffffffffffffff1662ac4434600383815481101515610a7657fe5b90600052602060002090600d020160070160009054906101000a900473ffffffffffffffffffffffffffffffffffffffff16600384815481101515610ab757fe5b90600052602060002090600d0201600c0160009054906101000a900473ffffffffffffffffffffffffffffffffffffffff16600385815481101515610af857fe5b90600052602060002090600d0201600401546040518463ffffffff167c0100000000000000000000000000000000000000000000000000000000028152600401808473ffffffffffffffffffffffffffffffffffffffff1673ffffffffffffffffffffffffffffffffffffffff1681526020018373ffffffffffffffffffffffffffffffffffffffff1673ffffffffffffffffffffffffffffffffffffffff1681526020018281526020019350505050602060405180830381600087803b158015610bc257600080fd5b505af1158015610bd6573d6000803e3d6000fd5b505050506040513d6020811015610bec57600080fd5b810190808051906020019092919050505050600381815481101515610c0d57fe5b90600052602060002090600d02016009013390806001815401808255809150509060018203906000526020600020016000909192909190916101000a81548173ffffffffffffffffffffffffffffffffffffffff021916908373ffffffffffffffffffffffffffffffffffffffff16021790555050600381815481101515610c9157fe5b90600052602060002090600d0201600a016001908060018154018082558091505090600182039060005260206000209060209182820401919006909192909190916101000a81548160ff02191690831515021790555050600381815481101515610cf757fe5b90600052602060002090600d0201600b01600090806001815401808255809150509060018203906000526020600020016000909192909190915055505b808060010191505061093b565b60019250505092915050565b60008060009054906101000a900473ffffffffffffffffffffffffffffffffffffffff1673ffffffffffffffffffffffffffffffffffffffff163373ffffffffffffffffffffffffffffffffffffffff16141515610daa57600080fd5b81600260006101000a81548173ffffffffffffffffffffffffffffffffffffffff021916908373ffffffffffffffffffffffffffffffffffffffff16021790555060019050919050565b6000808410151515610e0557600080fd5b60008610151515610e1557600080fd5b60008510151515610e2557600080fd5b60036101a0604051908101604052808b81526020018a81526020018981526020018481526020018881526020018781526020018681526020013373ffffffffffffffffffffffffffffffffffffffff168152602001856000191681526020016000604051908082528060200260200182016040528015610eb45781602001602082028038833980820191505090505b5081526020016000604051908082528060200260200182016040528015610eea5781602001602082028038833980820191505090505b5081526020016000604051908082528060200260200182016040528015610f205781602001602082028038833980820191505090505b508152602001600073ffffffffffffffffffffffffffffffffffffffff168152509080600181540180825580915050906001820390600052602060002090600d0201600090919290919091506000820151816000019080519060200190610f88929190611cce565b506020820151816001019080519060200190610fa5929190611cce565b506040820151816002019080519060200190610fc2929190611cce565b50606082015181600301556080820151816004015560a0820151816005015560c0820151816006015560e08201518160070160006101000a81548173ffffffffffffffffffffffffffffffffffffffff021916908373ffffffffffffffffffffffffffffffffffffffff1602179055506101008201518160080190600019169055610120820151816009019080519060200190611060929190611d4e565b5061014082015181600a01908051906020019061107e929190611dd8565b5061016082015181600b01908051906020019061109c929190611e7e565b5061018082015181600c0160006101000a81548173ffffffffffffffffffffffffffffffffffffffff021916908373ffffffffffffffffffffffffffffffffffffffff1602179055505050506004600081548092919060010191905055506001905098975050505050505050565b6000806000806003805490509250600091505b8282101561139b57846040518082805190602001908083835b60208310151561115b5780518252602082019150602081019050602083039250611136565b6001836020036101000a03801982511681845116808217855250505050505090500191505060405180910390206000191660038381548110151561119b57fe5b90600052602060002090600d02016008015460001916141561138e57600090505b6003828154811015156111cb57fe5b90600052602060002090600d02016009018054905081101561138d576003828154811015156111f657fe5b90600052602060002090600d02016009018181548110151561121457fe5b9060005260206000200160009054906101000a900473ffffffffffffffffffffffffffffffffffffffff1673ffffffffffffffffffffffffffffffffffffffff163373ffffffffffffffffffffffffffffffffffffffff161415611380578560038381548110151561128257fe5b90600052602060002090600d0201600b01828154811015156112a057fe5b90600052602060002001600082825401925050819055506003828154811015156112c657fe5b90600052602060002090600d0201600501546003838154811015156112e757fe5b90600052602060002090600d0201600b018281548110151561130557fe5b9060005260206000200154101515611377573360038381548110151561132757fe5b90600052602060002090600d0201600c0160006101000a81548173ffffffffffffffffffffffffffffffffffffffff021916908373ffffffffffffffffffffffffffffffffffffffff1602179055505b600193506113a0565b80806001019150506111bc565b5b818060010192505061111d565b600093505b50505092915050565b600160009054906101000a900473ffffffffffffffffffffffffffffffffffffffff1673ffffffffffffffffffffffffffffffffffffffff163373ffffffffffffffffffffffffffffffffffffffff1614151561140557600080fd5b600160009054906101000a900473ffffffffffffffffffffffffffffffffffffffff1673ffffffffffffffffffffffffffffffffffffffff166000809054906101000a900473ffffffffffffffffffffffffffffffffffffffff1673ffffffffffffffffffffffffffffffffffffffff167f8be0079c531659141344cd1fd0a4f28419497f9722a3daafe3b4186f6b6457e060405160405180910390a3600160009054906101000a900473ffffffffffffffffffffffffffffffffffffffff166000806101000a81548173ffffffffffffffffffffffffffffffffffffffff021916908373ffffffffffffffffffffffffffffffffffffffff1602179055506000600160006101000a81548173ffffffffffffffffffffffffffffffffffffffff021916908373ffffffffffffffffffffffffffffffffffffffff160217905550565b600060038281548110151561155957fe5b90600052602060002090600d0201600901805490509050919050565b60045481565b6000809054906101000a900473ffffffffffffffffffffffffffffffffffffffff1681565b60008060006003805490509150600090505b8181101561190957836040518082805190602001908083835b6020831015156115f057805182526020820191506020810190506020830392506115cb565b6001836020036101000a03801982511681845116808217855250505050505090500191505060405180910390206000191660038281548110151561163057fe5b90600052602060002090600d0201600801546000191614156118fc578473ffffffffffffffffffffffffffffffffffffffff1662ac44343360038481548110151561167757fe5b90600052602060002090600d020160070160009054906101000a900473ffffffffffffffffffffffffffffffffffffffff166003858154811015156116b857fe5b90600052602060002090600d0201600601546040518463ffffffff167c0100000000000000000000000000000000000000000000000000000000028152600401808473ffffffffffffffffffffffffffffffffffffffff1673ffffffffffffffffffffffffffffffffffffffff1681526020018373ffffffffffffffffffffffffffffffffffffffff1673ffffffffffffffffffffffffffffffffffffffff1681526020018281526020019350505050602060405180830381600087803b15801561178257600080fd5b505af1158015611796573d6000803e3d6000fd5b505050506040513d60208110156117ac57600080fd5b8101908080519060200190929190505050506003818154811015156117cd57fe5b90600052602060002090600d02016009013390806001815401808255809150509060018203906000526020600020016000909192909190916101000a81548173ffffffffffffffffffffffffffffffffffffffff021916908373ffffffffffffffffffffffffffffffffffffffff1602179055505060038181548110151561185157fe5b90600052602060002090600d0201600a016001908060018154018082558091505090600182039060005260206000209060209182820401919006909192909190916101000a81548160ff021916908315150217905550506003818154811015156118b757fe5b90600052602060002090600d0201600b01600090806001815401808255809150509060018203906000526020600020016000909192909190915055506001925061190e565b80806001019150506115b2565b600092505b505092915050565b60038181548110151561192557fe5b90600052602060002090600d0201600091509050806000018054600181600116156101000203166002900480601f0160208091040260200160405190810160405280929190818152602001828054600181600116156101000203166002900480156119d15780601f106119a6576101008083540402835291602001916119d1565b820191906000526020600020905b8154815290600101906020018083116119b457829003601f168201915b505050505090806001018054600181600116156101000203166002900480601f016020809104026020016040519081016040528092919081815260200182805460018160011615610100020316600290048015611a6f5780601f10611a4457610100808354040283529160200191611a6f565b820191906000526020600020905b815481529060010190602001808311611a5257829003601f168201915b505050505090806002018054600181600116156101000203166002900480601f016020809104026020016040519081016040528092919081815260200182805460018160011615610100020316600290048015611b0d5780601f10611ae257610100808354040283529160200191611b0d565b820191906000526020600020905b815481529060010190602001808311611af057829003601f168201915b5050505050908060030154908060040154908060050154908060060154908060070160009054906101000a900473ffffffffffffffffffffffffffffffffffffffff169080600801549080600c0160009054906101000a900473ffffffffffffffffffffffffffffffffffffffff1690508a565b6000600383815481101515611b9257fe5b90600052602060002090600d020160090182815481101515611bb057fe5b9060005260206000200160009054906101000a900473ffffffffffffffffffffffffffffffffffffffff16905092915050565b600160009054906101000a900473ffffffffffffffffffffffffffffffffffffffff1681565b6000809054906101000a900473ffffffffffffffffffffffffffffffffffffffff1673ffffffffffffffffffffffffffffffffffffffff163373ffffffffffffffffffffffffffffffffffffffff16141515611c6457600080fd5b80600160006101000a81548173ffffffffffffffffffffffffffffffffffffffff021916908373ffffffffffffffffffffffffffffffffffffffff16021790555050565b600260009054906101000a900473ffffffffffffffffffffffffffffffffffffffff1681565b828054600181600116156101000203166002900490600052602060002090601f016020900481019282601f10611d0f57805160ff1916838001178555611d3d565b82800160010185558215611d3d579182015b82811115611d3c578251825591602001919060010190611d21565b5b509050611d4a9190611ecb565b5090565b828054828255906000526020600020908101928215611dc7579160200282015b82811115611dc65782518260006101000a81548173ffffffffffffffffffffffffffffffffffffffff021916908373ffffffffffffffffffffffffffffffffffffffff16021790555091602001919060010190611d6e565b5b509050611dd49190611ef0565b5090565b82805482825590600052602060002090601f01602090048101928215611e6d5791602002820160005b83821115611e3e57835183826101000a81548160ff0219169083151502179055509260200192600101602081600001049283019260010302611e01565b8015611e6b5782816101000a81549060ff0219169055600101602081600001049283019260010302611e3e565b505b509050611e7a9190611f33565b5090565b828054828255906000526020600020908101928215611eba579160200282015b82811115611eb9578251825591602001919060010190611e9e565b5b509050611ec79190611ecb565b5090565b611eed91905b80821115611ee9576000816000905550600101611ed1565b5090565b90565b611f3091905b80821115611f2c57600081816101000a81549073ffffffffffffffffffffffffffffffffffffffff021916905550600101611ef6565b5090565b90565b611f6091905b80821115611f5c57600081816101000a81549060ff021916905550600101611f39565b5090565b905600a165627a7a7230582043564bd4a6a4eda23e8bcc3ea470eda771d6dec60ad0843d0e84f5b997d3db8c0029",
  "source": "pragma solidity ^0.4.18;\r\n\r\n\r\n// ----------------------------------------------------------------------------\r\n//  Manage User Challenge\r\n//  tied to WelCoin contract\r\n//  Credit: Alberto Carbognin\r\n// \tLICENSE: MIT\r\n// ----------------------------------------------------------------------------\r\n\r\nimport \"./WelCoin.sol\";\r\n\r\ncontract ChallengeManager is Owned {\r\n\tusing SafeMath for uint;\r\n\taddress public contractAddress;\r\n\t\r\n\r\n\t// NOT YET SUPPORTED\r\n\t// Can't initialized Array of Struct inside a Struct.\r\n\t// I pivot to a less elegant working solution because of this problem.\r\n\t// ------------------------------------------------------------------------\r\n\t// My temporary solution is:\r\n\t// address[] participantsAddress\r\n\t// bool[] participantsStatus\r\n\t// uint[] participantsGoal\r\n\t// ------------------------------------------------------------------------\r\n\t\r\n\tstruct Participant {\r\n\t\taddress participantAddress;\r\n\t\tbool participate;\r\n\t\tuint goal;\r\n\t}\r\n\t\r\n\r\n\tstruct Challenge {\r\n\t\tstring name;\r\n\t\tstring description;\r\n\t\tstring targetDescription;\r\n\t\tuint256 timestamp;\r\n\t\tuint prize;\r\n\t\tuint target;\r\n\t\tuint fee;\r\n\t\taddress owner;\r\n\t\tbytes32 challengeHash;\r\n\r\n\t\t// these arrays rappresent the same object\r\n\t\taddress[] participantsAddress;\r\n\t\tbool[] participantsStatus;\r\n\t\tuint[] participantsGoal;\r\n\r\n\t\t//other\r\n\t\taddress winner;\r\n\t}\r\n\r\n\tChallenge[] public challenges;\r\n\tuint public challengesLength;\r\n\r\n\tevent Creation(address own);\r\n\r\n\tconstructor() public {\r\n\t\temit Creation(owner);\r\n\t}\r\n\r\n\r\n\tfunction createChallenge(\r\n\t\tstring nameCreate,\r\n\t\tstring descriptionCreate,\r\n\t\tstring targetDescriptionCreate,\r\n\t\tuint prizeCreate,\r\n\t\tuint targetCreate,\r\n\t\tuint feeCreate,\r\n\t\tbytes32 hash,\r\n\t\tuint256 nowUnix\r\n\t\t) public returns(bool success) {\r\n\r\n\t\trequire (feeCreate >= 0);\r\n\t\trequire (prizeCreate >= 0);\r\n\t\trequire (targetCreate >= 0);\r\n\r\n\t\t// ------------------------------------------------------------------------\r\n\t\t// Don't mind about this\r\n\t\t// ------------------------------------------------------------------------\r\n\t\t// Participant[] storage part;\r\n\t\t// part.push(Participant(msg.sender, false, 0)); //the element 0 is the owner which is not participating\r\n\t\t// ------------------------------------------------------------------------\r\n\r\n\t\tchallenges.push(Challenge(\r\n\t\t\tnameCreate,\r\n\t\t\tdescriptionCreate,\r\n\t\t\ttargetDescriptionCreate,\r\n\t\t\tnowUnix,\r\n\t\t\tprizeCreate,\r\n\t\t\ttargetCreate,\r\n\t\t\tfeeCreate,\r\n\t\t\tmsg.sender,\r\n\t\t\thash,\r\n\t\t\tnew address[](0),\r\n\t\t\tnew bool[](0),\r\n\t\t\tnew uint[](0),\r\n\t\t\taddress(0)\r\n\t\t\t));\r\n\r\n\t\tchallengesLength++;\r\n\r\n        return true;\r\n    }\r\n\r\n    function participateToChallenge(address contractadd, string hash) public returns(bool success) {\r\n\r\n    \tuint challengeLength = challenges.length;\r\n    \tfor (uint i = 0; i < challengeLength; i++) {\r\n    \t\t\r\n    \t\tif (challenges[i].challengeHash == keccak256(hash)) {\r\n    \t\t\t//WelCoin cont = WelCoin(contracadd);\r\n    \t\t\tWelCoin(contractadd).virtualDepositTransferFrom(msg.sender, challenges[i].owner, challenges[i].fee);\r\n    \t\t\tchallenges[i].participantsAddress.push(msg.sender);\r\n    \t\t\tchallenges[i].participantsStatus.push(true);\r\n    \t\t\tchallenges[i].participantsGoal.push(0);\r\n\r\n    \t\t\treturn true;\r\n    \t\t}\r\n    \t}\r\n\r\n    \treturn false;\r\n    }\r\n\r\n\tfunction depositGoalUnit(uint goalUnit, string hash) public returns(bool success){\r\n\r\n\t\tuint challengeLength = challenges.length;\r\n    \tfor (uint i = 0; i < challengeLength; i++) {\r\n    \t\t\r\n    \t\tif (challenges[i].challengeHash == keccak256(hash)) {\r\n\r\n    \t\t\tfor(uint j = 0; j < challenges[i].participantsAddress.length; j++) {\r\n    \t\t\t\tif (msg.sender == challenges[i].participantsAddress[j]) {\r\n    \t\t\t\t\tchallenges[i].participantsGoal[j] += goalUnit;\r\n    \t\t\t\t\tif (challenges[i].participantsGoal[j] >= challenges[i].target) {\r\n    \t\t\t\t\t\tchallenges[i].winner = msg.sender;\r\n    \t\t\t\t\t}\r\n    \t\t\t\t\treturn true;\r\n    \t\t\t\t}\r\n    \t\t\t}    \t\t\r\n    \t\t}\r\n    \t}\r\n\r\n\t\treturn false;\r\n\t} \r\n\r\n\r\n\tfunction issuePrize(address contractadd, string hash) public returns(bool success){\r\n\r\n\t\tuint challengeLength = challenges.length;\r\n    \tfor (uint i = 0; i < challengeLength; i++) {\r\n    \t\t\r\n    \t\tif ((challenges[i].challengeHash == keccak256(hash)) && (msg.sender == challenges[i].owner)) {\r\n\r\n    \t\t\tWelCoin(contractadd).virtualDepositTransferFrom(challenges[i].owner, challenges[i].winner, challenges[i].prize);\r\n    \t\t\tchallenges[i].participantsAddress.push(msg.sender);\r\n    \t\t\tchallenges[i].participantsStatus.push(true);\r\n    \t\t\tchallenges[i].participantsGoal.push(0);\r\n\r\n    \t\t}\r\n    \t}\r\n\r\n\t\treturn true;\r\n\t}   \r\n\r\n    function setContractAddress(address contAdd) public returns(bool success){\r\n\r\n    \trequire (msg.sender == owner);\r\n    \tcontractAddress = contAdd;\r\n    \treturn true;\r\n    }\r\n\r\n    function getChallengeParticipantsLength(uint challIndex) public constant returns(uint length) {\r\n    \treturn challenges[challIndex].participantsAddress.length;\r\n    }\r\n\r\n    function getChallengeParticipants(uint index1, uint index2) public returns(address participant){\r\n    \treturn challenges[index1].participantsAddress[index2];\r\n    }\r\n\r\n    function getChallengeParticipantsGoal(uint index1, uint index2) public returns(uint participant){\r\n    \treturn challenges[index1].participantsGoal[index2];\r\n    }\r\n\r\n\r\n\r\n\r\n\r\n}",
  "sourcePath": "C:\\Users\\Alberto\\Desktop\\Tirocinio\\SmartContract\\smartcontractdemo\\contracts\\ChallengeManager.sol",
  "compiler": {
    "name": "solc",
    "version": "0.4.23+commit.124ca40d.Emscripten.clang"
  },
  "schemaVersion": "2.0.0",
  "updatedAt": "2018-05-10T09:35:20.494Z"
}