{
  "contractName": "ChallengeManager",
  "abi": [
    {
      "constant": true,
      "inputs": [
        {
          "name": "",
          "type": "address"
        },
        {
          "name": "",
          "type": "uint256"
        }
      ],
      "name": "ledger",
      "outputs": [
        {
          "name": "name",
          "type": "string"
        },
        {
          "name": "description",
          "type": "string"
        },
        {
          "name": "targetDescription",
          "type": "string"
        },
        {
          "name": "timestamp",
          "type": "uint256"
        },
        {
          "name": "prize",
          "type": "uint256"
        },
        {
          "name": "target",
          "type": "uint256"
        },
        {
          "name": "fee",
          "type": "uint256"
        },
        {
          "name": "owner",
          "type": "address"
        },
        {
          "name": "challengeHash",
          "type": "uint256"
        }
      ],
      "payable": false,
      "stateMutability": "view",
      "type": "function"
    },
    {
      "constant": false,
      "inputs": [],
      "name": "acceptOwnership",
      "outputs": [],
      "payable": false,
      "stateMutability": "nonpayable",
      "type": "function"
    },
    {
      "constant": true,
      "inputs": [],
      "name": "owner",
      "outputs": [
        {
          "name": "",
          "type": "address"
        }
      ],
      "payable": false,
      "stateMutability": "view",
      "type": "function"
    },
    {
      "constant": true,
      "inputs": [],
      "name": "newOwner",
      "outputs": [
        {
          "name": "",
          "type": "address"
        }
      ],
      "payable": false,
      "stateMutability": "view",
      "type": "function"
    },
    {
      "constant": true,
      "inputs": [
        {
          "name": "",
          "type": "address"
        }
      ],
      "name": "numberOfChallenge",
      "outputs": [
        {
          "name": "",
          "type": "uint256"
        }
      ],
      "payable": false,
      "stateMutability": "view",
      "type": "function"
    },
    {
      "constant": false,
      "inputs": [
        {
          "name": "_newOwner",
          "type": "address"
        }
      ],
      "name": "transferOwnership",
      "outputs": [],
      "payable": false,
      "stateMutability": "nonpayable",
      "type": "function"
    },
    {
      "inputs": [],
      "payable": false,
      "stateMutability": "nonpayable",
      "type": "constructor"
    },
    {
      "anonymous": false,
      "inputs": [
        {
          "indexed": false,
          "name": "own",
          "type": "address"
        }
      ],
      "name": "Creation",
      "type": "event"
    },
    {
      "anonymous": false,
      "inputs": [
        {
          "indexed": true,
          "name": "_from",
          "type": "address"
        },
        {
          "indexed": true,
          "name": "_to",
          "type": "address"
        }
      ],
      "name": "OwnershipTransferred",
      "type": "event"
    },
    {
      "constant": false,
      "inputs": [
        {
          "name": "nameCreate",
          "type": "string"
        },
        {
          "name": "descriptionCreate",
          "type": "string"
        },
        {
          "name": "targetDescriptionCreate",
          "type": "string"
        },
        {
          "name": "prizeCreate",
          "type": "uint256"
        },
        {
          "name": "targetCreate",
          "type": "uint256"
        },
        {
          "name": "feeCreate",
          "type": "uint256"
        }
      ],
      "name": "createChallenge",
      "outputs": [
        {
          "name": "success",
          "type": "bool"
        }
      ],
      "payable": false,
      "stateMutability": "nonpayable",
      "type": "function"
    },
    {
      "constant": false,
      "inputs": [
        {
          "name": "challOwn",
          "type": "address"
        },
        {
          "name": "hash",
          "type": "uint256"
        },
        {
          "name": "partFee",
          "type": "uint256"
        }
      ],
      "name": "participateToChallenge",
      "outputs": [
        {
          "name": "success",
          "type": "bool"
        }
      ],
      "payable": false,
      "stateMutability": "nonpayable",
      "type": "function"
    },
    {
      "constant": true,
      "inputs": [
        {
          "name": "challOwn",
          "type": "address"
        }
      ],
      "name": "getLedgerLength",
      "outputs": [
        {
          "name": "length",
          "type": "uint256"
        }
      ],
      "payable": false,
      "stateMutability": "view",
      "type": "function"
    },
    {
      "constant": true,
      "inputs": [
        {
          "name": "challOwn",
          "type": "address"
        },
        {
          "name": "id",
          "type": "uint256"
        }
      ],
      "name": "getChallengeHash",
      "outputs": [
        {
          "name": "hashcode",
          "type": "uint256"
        }
      ],
      "payable": false,
      "stateMutability": "view",
      "type": "function"
    },
    {
      "constant": true,
      "inputs": [
        {
          "name": "id",
          "type": "uint256"
        }
      ],
      "name": "getChallengeName",
      "outputs": [
        {
          "name": "namecode",
          "type": "string"
        }
      ],
      "payable": false,
      "stateMutability": "view",
      "type": "function"
    }
  ],
  "bytecode": "0x608060405234801561001057600080fd5b50336000806101000a81548173ffffffffffffffffffffffffffffffffffffffff021916908373ffffffffffffffffffffffffffffffffffffffff1602179055507f2ae68230dd9c1c06842490953a33785a09292650f8c76b1a20b2fbbb214a896c6000809054906101000a900473ffffffffffffffffffffffffffffffffffffffff16604051808273ffffffffffffffffffffffffffffffffffffffff1673ffffffffffffffffffffffffffffffffffffffff16815260200191505060405180910390a161167a806100e46000396000f3006080604052600436106100af576000357c0100000000000000000000000000000000000000000000000000000000900463ffffffff16806327d633a1146100b45780633a0c699b1461010b57806374f1ca3a1461016c57806379ba5097146103605780638da5cb5b14610377578063c9ab3de4146103ce578063d4ee1d901461043d578063d6d77a9c14610494578063f2fde38b146104eb578063fada249d1461052e578063ffc383b914610659575b600080fd5b3480156100c057600080fd5b506100f5600480360381019080803573ffffffffffffffffffffffffffffffffffffffff1690602001909291905050506106ff565b6040518082815260200191505060405180910390f35b34801561011757600080fd5b50610156600480360381019080803573ffffffffffffffffffffffffffffffffffffffff1690602001909291908035906020019092919050505061074b565b6040518082815260200191505060405180910390f35b34801561017857600080fd5b506101b7600480360381019080803573ffffffffffffffffffffffffffffffffffffffff169060200190929190803590602001909291905050506107b3565b604051808060200180602001806020018a81526020018981526020018881526020018781526020018673ffffffffffffffffffffffffffffffffffffffff1673ffffffffffffffffffffffffffffffffffffffff16815260200185815260200184810384528d818151815260200191508051906020019080838360005b8381101561024f578082015181840152602081019050610234565b50505050905090810190601f16801561027c5780820380516001836020036101000a031916815260200191505b5084810383528c818151815260200191508051906020019080838360005b838110156102b557808201518184015260208101905061029a565b50505050905090810190601f1680156102e25780820380516001836020036101000a031916815260200191505b5084810382528b818151815260200191508051906020019080838360005b8381101561031b578082015181840152602081019050610300565b50505050905090810190601f1680156103485780820380516001836020036101000a031916815260200191505b509c5050505050505050505050505060405180910390f35b34801561036c57600080fd5b50610375610a05565b005b34801561038357600080fd5b5061038c610ba4565b604051808273ffffffffffffffffffffffffffffffffffffffff1673ffffffffffffffffffffffffffffffffffffffff16815260200191505060405180910390f35b3480156103da57600080fd5b50610423600480360381019080803573ffffffffffffffffffffffffffffffffffffffff1690602001909291908035906020019092919080359060200190929190505050610bc9565b604051808215151515815260200191505060405180910390f35b34801561044957600080fd5b50610452610f42565b604051808273ffffffffffffffffffffffffffffffffffffffff1673ffffffffffffffffffffffffffffffffffffffff16815260200191505060405180910390f35b3480156104a057600080fd5b506104d5600480360381019080803573ffffffffffffffffffffffffffffffffffffffff169060200190929190505050610f68565b6040518082815260200191505060405180910390f35b3480156104f757600080fd5b5061052c600480360381019080803573ffffffffffffffffffffffffffffffffffffffff169060200190929190505050610f80565b005b34801561053a57600080fd5b5061063f600480360381019080803590602001908201803590602001908080601f0160208091040260200160405190810160405280939291908181526020018383808284378201915050505050509192919290803590602001908201803590602001908080601f0160208091040260200160405190810160405280939291908181526020018383808284378201915050505050509192919290803590602001908201803590602001908080601f016020809104026020016040519081016040528093929190818152602001838380828437820191505050505050919291929080359060200190929190803590602001909291908035906020019092919050505061101f565b604051808215151515815260200191505060405180910390f35b34801561066557600080fd5b5061068460048036038101908080359060200190929190505050611447565b6040518080602001828103825283818151815260200191508051906020019080838360005b838110156106c45780820151818401526020810190506106a9565b50505050905090810190601f1680156106f15780820380516001836020036101000a031916815260200191505b509250505060405180910390f35b6000600260008373ffffffffffffffffffffffffffffffffffffffff1673ffffffffffffffffffffffffffffffffffffffff168152602001908152602001600020805490509050919050565b6000600260008473ffffffffffffffffffffffffffffffffffffffff1673ffffffffffffffffffffffffffffffffffffffff1681526020019081526020016000208281548110151561079957fe5b90600052602060002090600a020160080154905092915050565b6002602052816000526040600020818154811015156107ce57fe5b90600052602060002090600a020160009150915050806000018054600181600116156101000203166002900480601f01602080910402602001604051908101604052809291908181526020018280546001816001161561010002031660029004801561087b5780601f106108505761010080835404028352916020019161087b565b820191906000526020600020905b81548152906001019060200180831161085e57829003601f168201915b505050505090806001018054600181600116156101000203166002900480601f0160208091040260200160405190810160405280929190818152602001828054600181600116156101000203166002900480156109195780601f106108ee57610100808354040283529160200191610919565b820191906000526020600020905b8154815290600101906020018083116108fc57829003601f168201915b505050505090806002018054600181600116156101000203166002900480601f0160208091040260200160405190810160405280929190818152602001828054600181600116156101000203166002900480156109b75780601f1061098c576101008083540402835291602001916109b7565b820191906000526020600020905b81548152906001019060200180831161099a57829003601f168201915b5050505050908060030154908060040154908060050154908060060154908060070160009054906101000a900473ffffffffffffffffffffffffffffffffffffffff16908060080154905089565b600160009054906101000a900473ffffffffffffffffffffffffffffffffffffffff1673ffffffffffffffffffffffffffffffffffffffff163373ffffffffffffffffffffffffffffffffffffffff16141515610a6157600080fd5b600160009054906101000a900473ffffffffffffffffffffffffffffffffffffffff1673ffffffffffffffffffffffffffffffffffffffff166000809054906101000a900473ffffffffffffffffffffffffffffffffffffffff1673ffffffffffffffffffffffffffffffffffffffff167f8be0079c531659141344cd1fd0a4f28419497f9722a3daafe3b4186f6b6457e060405160405180910390a3600160009054906101000a900473ffffffffffffffffffffffffffffffffffffffff166000806101000a81548173ffffffffffffffffffffffffffffffffffffffff021916908373ffffffffffffffffffffffffffffffffffffffff1602179055506000600160006101000a81548173ffffffffffffffffffffffffffffffffffffffff021916908373ffffffffffffffffffffffffffffffffffffffff160217905550565b6000809054906101000a900473ffffffffffffffffffffffffffffffffffffffff1681565b600080600080600260008873ffffffffffffffffffffffffffffffffffffffff1673ffffffffffffffffffffffffffffffffffffffff168152602001908152602001600020805490509250600091505b82821015610f335785600260008973ffffffffffffffffffffffffffffffffffffffff1673ffffffffffffffffffffffffffffffffffffffff16815260200190815260200160002083815481101515610c6e57fe5b90600052602060002090600a020160080154148015610cea5750600260008873ffffffffffffffffffffffffffffffffffffffff1673ffffffffffffffffffffffffffffffffffffffff16815260200190815260200160002082815481101515610cd457fe5b90600052602060002090600a0201600601548510155b15610f1e578690508073ffffffffffffffffffffffffffffffffffffffff166323b872dd3389600260008c73ffffffffffffffffffffffffffffffffffffffff1673ffffffffffffffffffffffffffffffffffffffff16815260200190815260200160002086815481101515610d5c57fe5b90600052602060002090600a0201600601546040518463ffffffff167c0100000000000000000000000000000000000000000000000000000000028152600401808473ffffffffffffffffffffffffffffffffffffffff1673ffffffffffffffffffffffffffffffffffffffff1681526020018373ffffffffffffffffffffffffffffffffffffffff1673ffffffffffffffffffffffffffffffffffffffff1681526020018281526020019350505050602060405180830381600087803b158015610e2657600080fd5b505af1158015610e3a573d6000803e3d6000fd5b505050506040513d6020811015610e5057600080fd5b8101908080519060200190929190505050506001600260008973ffffffffffffffffffffffffffffffffffffffff1673ffffffffffffffffffffffffffffffffffffffff16815260200190815260200160002083815481101515610eb057fe5b90600052602060002090600a020160090160003373ffffffffffffffffffffffffffffffffffffffff1673ffffffffffffffffffffffffffffffffffffffff16815260200190815260200160002060006101000a81548160ff02191690831515021790555060019350610f38565b81806001019250508180600101925050610c19565b600093505b5050509392505050565b600160009054906101000a900473ffffffffffffffffffffffffffffffffffffffff1681565b60036020528060005260406000206000915090505481565b6000809054906101000a900473ffffffffffffffffffffffffffffffffffffffff1673ffffffffffffffffffffffffffffffffffffffff163373ffffffffffffffffffffffffffffffffffffffff16141515610fdb57600080fd5b80600160006101000a81548173ffffffffffffffffffffffffffffffffffffffff021916908373ffffffffffffffffffffffffffffffffffffffff16021790555050565b6000611029611546565b6000831015151561103957600080fd5b6000851015151561104957600080fd5b6000841015151561105957600080fd5b610120604051908101604052808981526020018881526020018781526020014281526020018681526020018581526020018481526020016000809054906101000a900473ffffffffffffffffffffffffffffffffffffffff1673ffffffffffffffffffffffffffffffffffffffff16815260200160008152509050600260003373ffffffffffffffffffffffffffffffffffffffff1673ffffffffffffffffffffffffffffffffffffffff168152602001908152602001600020819080600181540180825580915050906001820390600052602060002090600a020160009091929091909150600082015181600001908051906020019061115b9291906115a9565b5060208201518160010190805190602001906111789291906115a9565b5060408201518160020190805190602001906111959291906115a9565b50606082015181600301556080820151816004015560a0820151816005015560c0820151816006015560e08201518160070160006101000a81548173ffffffffffffffffffffffffffffffffffffffff021916908373ffffffffffffffffffffffffffffffffffffffff1602179055506101008201518160080155505050878787428888886040518088805190602001908083835b60208310151561124f578051825260208201915060208101905060208303925061122a565b6001836020036101000a03801982511681845116808217855250505050505090500187805190602001908083835b6020831015156112a2578051825260208201915060208101905060208303925061127d565b6001836020036101000a03801982511681845116808217855250505050505090500186805190602001908083835b6020831015156112f557805182526020820191506020810190506020830392506112d0565b6001836020036101000a038019825116818451168082178552505050505050905001858152602001848152602001838152602001828152602001975050505050505050604051809103902060019004600260003373ffffffffffffffffffffffffffffffffffffffff1673ffffffffffffffffffffffffffffffffffffffff1681526020019081526020016000206001600260003373ffffffffffffffffffffffffffffffffffffffff1673ffffffffffffffffffffffffffffffffffffffff16815260200190815260200160002080549050038154811015156113d557fe5b90600052602060002090600a0201600801819055506001600360003373ffffffffffffffffffffffffffffffffffffffff1673ffffffffffffffffffffffffffffffffffffffff1681526020019081526020016000206000828254019250508190555060019150509695505050505050565b6060600260003373ffffffffffffffffffffffffffffffffffffffff1673ffffffffffffffffffffffffffffffffffffffff1681526020019081526020016000208281548110151561149557fe5b90600052602060002090600a02016000018054600181600116156101000203166002900480601f01602080910402602001604051908101604052809291908181526020018280546001816001161561010002031660029004801561153a5780601f1061150f5761010080835404028352916020019161153a565b820191906000526020600020905b81548152906001019060200180831161151d57829003601f168201915b50505050509050919050565b6101206040519081016040528060608152602001606081526020016060815260200160008152602001600081526020016000815260200160008152602001600073ffffffffffffffffffffffffffffffffffffffff168152602001600081525090565b828054600181600116156101000203166002900490600052602060002090601f016020900481019282601f106115ea57805160ff1916838001178555611618565b82800160010185558215611618579182015b828111156116175782518255916020019190600101906115fc565b5b5090506116259190611629565b5090565b61164b91905b8082111561164757600081600090555060010161162f565b5090565b905600a165627a7a72305820c38b494f5f9d53bdbb20efa82e2238f712704ac8176b5f40bdcada819b39cd740029",
  "source": "pragma solidity ^0.4.18;\r\n\r\n\r\n// ----------------------------------------------------------------------------\r\n//  Manage User Challenge\r\n//  tied to WelCoin contract\r\n//  Credit: Alberto Carbognin\r\n// \tLICENSE: MIT\r\n// ----------------------------------------------------------------------------\r\n\r\nimport \"./WelCoin.sol\";\r\n\r\ncontract ChallengeManager is Owned {\r\n\tusing SafeMath for uint;\r\n\r\n\tstruct Challenge {\r\n\t\tstring name;\r\n\t\tstring description;\r\n\t\tstring targetDescription;\r\n\t\tuint256 timestamp;\r\n\t\tuint prize;\r\n\t\tuint target;\r\n\t\tuint fee;\r\n\t\taddress owner;\r\n\t\tuint256 challengeHash;\r\n\t\tmapping (address => bool) participants;\r\n\t}\r\n\r\n\tmapping (address => Challenge[]) public ledger;\r\n\tmapping (address => uint) public numberOfChallenge;\r\n\r\n\tevent Creation(address own);\r\n\r\n\tconstructor() public {\r\n\t\temit Creation(owner);\r\n\t}\r\n\r\n\r\n\tfunction createChallenge(\r\n\t\tstring nameCreate,\r\n\t\tstring descriptionCreate,\r\n\t\tstring targetDescriptionCreate,\r\n\t\tuint prizeCreate,\r\n\t\tuint targetCreate,\r\n\t\tuint feeCreate\r\n\t\t) public returns(bool success) {\r\n\r\n\t\trequire (feeCreate >= 0);\r\n\t\trequire (prizeCreate >= 0);\r\n\t\trequire (targetCreate >= 0);\r\n\r\n\t\tChallenge memory newChall = Challenge(\r\n\t\t\tnameCreate,\r\n\t\t\tdescriptionCreate,\r\n\t\t\ttargetDescriptionCreate,\r\n\t\t\tnow,\r\n\t\t\tprizeCreate,\r\n\t\t\ttargetCreate,\r\n\t\t\tfeeCreate,\r\n\t\t\towner,\r\n\t\t\t0);\r\n\r\n\t\tledger[msg.sender].push(newChall);\r\n\r\n\t\tledger[msg.sender][ledger[msg.sender].length-1].challengeHash = uint256(keccak256(nameCreate, descriptionCreate, targetDescriptionCreate, now, prizeCreate, targetCreate, feeCreate));\r\n\t\tnumberOfChallenge[msg.sender] += 1;\r\n\r\n        return true;\r\n    }\r\n\r\n    function participateToChallenge(address challOwn, uint256 hash, uint partFee) public returns(bool success) {\r\n    \t\r\n    \tuint arrleng = ledger[challOwn].length;\r\n    \tfor (uint i=0; i<arrleng; i++) {\r\n\r\n    \t\tif ((ledger[challOwn][i].challengeHash == hash) && (partFee >= ledger[challOwn][i].fee)) {\r\n    \t\t\tWelCoin cont = WelCoin(challOwn);\r\n    \t\t\tcont.transferFrom(msg.sender, challOwn, ledger[challOwn][i].fee);\r\n    \t\t\tledger[challOwn][i].participants[msg.sender] = true;\r\n    \t\t\treturn true;\r\n    \t\t}\r\n    \t\ti++;\r\n    \t}\r\n\r\n    \treturn false;\r\n    }\r\n\r\n    function getLedgerLength(address challOwn) public constant returns(uint length) {\r\n    \treturn ledger[challOwn].length;\r\n    }\r\n\r\n    function getChallengeHash(address challOwn, uint id) public constant returns(uint256 hashcode) {\r\n    \treturn ledger[challOwn][id].challengeHash;\r\n    }\r\n    function getChallengeName(uint id) public constant returns(string namecode) {\r\n    \treturn ledger[msg.sender][id].name;\r\n    }\r\n\r\n\r\n\r\n\r\n\r\n}",
  "sourcePath": "C:\\Users\\Alberto\\Desktop\\Tirocinio\\SmartContract\\smartcontractdemo\\contracts\\ChallengeManager.sol",
  "compiler": {
    "name": "solc",
    "version": "0.4.23+commit.124ca40d.Emscripten.clang"
  },
  "schemaVersion": "2.0.0",
  "updatedAt": "2018-05-07T14:16:06.795Z"
}