{
  "contractName": "Torneo",
  "abi": [
    {
      "inputs": [
        {
          "name": "initialName",
          "type": "string"
        },
        {
          "name": "initialDescription",
          "type": "string"
        },
        {
          "name": "initialPrize",
          "type": "uint256"
        },
        {
          "name": "initialFee",
          "type": "uint256"
        },
        {
          "name": "initialTarget",
          "type": "uint256"
        },
        {
          "name": "initialTargetDescription",
          "type": "string"
        },
        {
          "name": "initialOwner",
          "type": "address"
        },
        {
          "name": "initialDecimals",
          "type": "uint256"
        }
      ],
      "payable": false,
      "stateMutability": "nonpayable",
      "type": "constructor"
    },
    {
      "constant": true,
      "inputs": [
        {
          "name": "partecipant",
          "type": "address"
        }
      ],
      "name": "isPartecipant",
      "outputs": [
        {
          "name": "state",
          "type": "bool"
        }
      ],
      "payable": false,
      "stateMutability": "view",
      "type": "function"
    },
    {
      "constant": true,
      "inputs": [],
      "name": "getFee",
      "outputs": [
        {
          "name": "cost",
          "type": "uint256"
        }
      ],
      "payable": false,
      "stateMutability": "view",
      "type": "function"
    },
    {
      "constant": true,
      "inputs": [],
      "name": "isActiveStatus",
      "outputs": [
        {
          "name": "active",
          "type": "bool"
        }
      ],
      "payable": false,
      "stateMutability": "view",
      "type": "function"
    },
    {
      "constant": true,
      "inputs": [],
      "name": "getOwner",
      "outputs": [
        {
          "name": "theOwner",
          "type": "address"
        }
      ],
      "payable": false,
      "stateMutability": "view",
      "type": "function"
    },
    {
      "constant": true,
      "inputs": [],
      "name": "getWinner",
      "outputs": [
        {
          "name": "theWinner",
          "type": "address"
        }
      ],
      "payable": false,
      "stateMutability": "view",
      "type": "function"
    },
    {
      "constant": false,
      "inputs": [
        {
          "name": "tokens",
          "type": "uint256"
        }
      ],
      "name": "partecipate",
      "outputs": [
        {
          "name": "success",
          "type": "bool"
        }
      ],
      "payable": false,
      "stateMutability": "nonpayable",
      "type": "function"
    },
    {
      "constant": false,
      "inputs": [
        {
          "name": "data",
          "type": "uint256"
        }
      ],
      "name": "updateTarget",
      "outputs": [
        {
          "name": "success",
          "type": "bool"
        }
      ],
      "payable": false,
      "stateMutability": "nonpayable",
      "type": "function"
    },
    {
      "constant": false,
      "inputs": [
        {
          "name": "contractadd",
          "type": "address"
        }
      ],
      "name": "issuePrize",
      "outputs": [
        {
          "name": "success",
          "type": "bool"
        }
      ],
      "payable": false,
      "stateMutability": "nonpayable",
      "type": "function"
    },
    {
      "constant": false,
      "inputs": [],
      "name": "kill",
      "outputs": [],
      "payable": false,
      "stateMutability": "nonpayable",
      "type": "function"
    }
  ],
  "bytecode": "0x608060405234801561001057600080fd5b50604051610b24380380610b24833981018060405261010081101561003457600080fd5b81019080805164010000000081111561004c57600080fd5b8281019050602081018481111561006257600080fd5b815185600182028301116401000000008211171561007f57600080fd5b5050929190602001805164010000000081111561009b57600080fd5b828101905060208101848111156100b157600080fd5b81518560018202830111640100000000821117156100ce57600080fd5b5050929190602001805190602001909291908051906020019092919080519060200190929190805164010000000081111561010857600080fd5b8281019050602081018481111561011e57600080fd5b815185600182028301116401000000008211171561013b57600080fd5b505092919060200180519060200190929190805190602001909291905050508760009080519060200190610170929190610265565b508660019080519060200190610187929190610265565b5085600281905550846003819055508360048190555082600690805190602001906101b3929190610265565b5081600860006101000a81548173ffffffffffffffffffffffffffffffffffffffff021916908373ffffffffffffffffffffffffffffffffffffffff1602179055506001600960146101000a81548160ff0219169083151502179055508060058190555030600760006101000a81548173ffffffffffffffffffffffffffffffffffffffff021916908373ffffffffffffffffffffffffffffffffffffffff160217905550505050505050505061030a565b828054600181600116156101000203166002900490600052602060002090601f016020900481019282601f106102a657805160ff19168380011785556102d4565b828001600101855582156102d4579182015b828111156102d35782518255916020019190600101906102b8565b5b5090506102e191906102e5565b5090565b61030791905b808211156103035760008160009055506001016102eb565b5090565b90565b61080b806103196000396000f3fe608060405260043610610099576000357c0100000000000000000000000000000000000000000000000000000000900463ffffffff1680631d2803891461009e578063337e9f05146100cd57806341c0e1b5146101205780634c01711a1461013757806378199fdf146101a0578063893d20e8146101f35780638e7ea5b21461024a578063ced72f87146102a1578063f52f6441146102cc575b600080fd5b3480156100aa57600080fd5b506100b3610335565b604051808215151515815260200191505060405180910390f35b3480156100d957600080fd5b50610106600480360360208110156100f057600080fd5b810190808035906020019092919050505061034c565b604051808215151515815260200191505060405180910390f35b34801561012c57600080fd5b506101356103bf565b005b34801561014357600080fd5b506101866004803603602081101561015a57600080fd5b81019080803573ffffffffffffffffffffffffffffffffffffffff169060200190929190505050610456565b604051808215151515815260200191505060405180910390f35b3480156101ac57600080fd5b506101d9600480360360208110156101c357600080fd5b8101908080359060200190929190505050610596565b604051808215151515815260200191505060405180910390f35b3480156101ff57600080fd5b506102086106dd565b604051808273ffffffffffffffffffffffffffffffffffffffff1673ffffffffffffffffffffffffffffffffffffffff16815260200191505060405180910390f35b34801561025657600080fd5b5061025f610707565b604051808273ffffffffffffffffffffffffffffffffffffffff1673ffffffffffffffffffffffffffffffffffffffff16815260200191505060405180910390f35b3480156102ad57600080fd5b506102b6610752565b6040518082815260200191505060405180910390f35b3480156102d857600080fd5b5061031b600480360360208110156102ef57600080fd5b81019080803573ffffffffffffffffffffffffffffffffffffffff16906020019092919050505061075c565b604051808215151515815260200191505060405180910390f35b6000600960149054906101000a900460ff16905090565b60006003548214151561035e57600080fd5b6001600a60003373ffffffffffffffffffffffffffffffffffffffff1673ffffffffffffffffffffffffffffffffffffffff16815260200190815260200160002060006101000a81548160ff02191690831515021790555060019050919050565b600860009054906101000a900473ffffffffffffffffffffffffffffffffffffffff1673ffffffffffffffffffffffffffffffffffffffff163373ffffffffffffffffffffffffffffffffffffffff1614151561041b57600080fd5b600860009054906101000a900473ffffffffffffffffffffffffffffffffffffffff1673ffffffffffffffffffffffffffffffffffffffff16ff5b6000600960149054906101000a900460ff1615156105835760008290508073ffffffffffffffffffffffffffffffffffffffff1663a9059cbb600960009054906101000a900473ffffffffffffffffffffffffffffffffffffffff16600554600a0a600254026040518363ffffffff167c0100000000000000000000000000000000000000000000000000000000028152600401808373ffffffffffffffffffffffffffffffffffffffff1673ffffffffffffffffffffffffffffffffffffffff16815260200182815260200192505050602060405180830381600087803b15801561054157600080fd5b505af1158015610555573d6000803e3d6000fd5b505050506040513d602081101561056b57600080fd5b8101908080519060200190929190505050505061058c565b60009050610591565b600190505b919050565b60006105ea82600b60003373ffffffffffffffffffffffffffffffffffffffff1673ffffffffffffffffffffffffffffffffffffffff168152602001908152602001600020546107c390919063ffffffff16565b600b60003373ffffffffffffffffffffffffffffffffffffffff1673ffffffffffffffffffffffffffffffffffffffff16815260200190815260200160002081905550600454600b60003373ffffffffffffffffffffffffffffffffffffffff1673ffffffffffffffffffffffffffffffffffffffff168152602001908152602001600020541015156106d4576000600960146101000a81548160ff02191690831515021790555033600960006101000a81548173ffffffffffffffffffffffffffffffffffffffff021916908373ffffffffffffffffffffffffffffffffffffffff1602179055505b60019050919050565b6000600860009054906101000a900473ffffffffffffffffffffffffffffffffffffffff16905090565b6000801515600960149054906101000a900460ff16151514151561072a57600080fd5b600960009054906101000a900473ffffffffffffffffffffffffffffffffffffffff16905090565b6000600354905090565b6000600a60008373ffffffffffffffffffffffffffffffffffffffff1673ffffffffffffffffffffffffffffffffffffffff16815260200190815260200160002060009054906101000a900460ff16156107b957600190506107be565b600090505b919050565b600081830190508281101515156107d957600080fd5b9291505056fea165627a7a723058204a7d993e07c04ed2567d77f19dedc1e0296bff887cee1b09672690042bec29d00029",
  "source": "pragma solidity ^0.5.0;\r\n\r\n// ----------------------------------------------------------------------------\r\n//  Torneo manager\r\n//  tied to WelCoin contract\r\n//  Credit: Alberto Carbognin\r\n// \tLICENSE: MIT\r\n// ----------------------------------------------------------------------------\r\n\r\nimport \"./WelCoin.sol\";\r\n\r\n\r\ncontract Torneo {\r\n    using SafeMath for uint;\r\n\tstring name;\r\n\tstring description;\r\n\tuint prize;\r\n\tuint fee;\r\n\tuint target;\r\n    uint decimals;\r\n\tstring targetDescription;\r\n\tTorneo contract_address;\r\n    address payable owner;\r\n    address winner;\r\n    bool isActive;\r\n\r\n\t//Building Dictionary of partecipants\r\n  \tmapping(address => bool) partecipants;\r\n\r\n    mapping(address => uint) targetTrack;\r\n\r\n\t//Constructor\r\n\tconstructor(\r\n\t\tstring memory initialName,\r\n\t\tstring memory initialDescription,\r\n\t\tuint initialPrize,\r\n\t\tuint initialFee,\r\n\t\tuint initialTarget,\r\n\t\tstring memory initialTargetDescription,\r\n        address payable initialOwner,\r\n        uint initialDecimals\r\n\t) public {\r\n\t\tname = initialName;\r\n\t\tdescription = initialDescription;\r\n\t\tprize = initialPrize;\r\n\t\tfee = initialFee;\r\n\t\ttarget = initialTarget;\r\n        targetDescription = initialTargetDescription;\r\n        owner = initialOwner;\r\n        isActive = true;\r\n        decimals = initialDecimals;\r\n\t\tcontract_address = this; //this cointains contract's address information\r\n\t}\r\n\r\n    function isPartecipant(address partecipant) public view returns(bool state) {\r\n        if (partecipants[partecipant]) {\r\n            return true;\r\n        } else {\r\n            return false;\r\n        }\r\n    }\r\n\r\n    function getFee() public view returns(uint cost) {\r\n        return fee;\r\n    }\r\n\r\n    function isActiveStatus() public view returns(bool active) {\r\n        return isActive;\r\n    }\r\n\r\n\r\n    function getOwner() public view returns(address theOwner) {\r\n        return owner;\r\n    }\r\n\r\n    function getWinner() public view returns(address theWinner) {\r\n        require (isActive == false);\r\n        \r\n        return winner;\r\n    }\r\n\r\n    function partecipate(uint tokens) public returns(bool success) {\r\n        require(tokens == fee);\r\n        partecipants[msg.sender] = true;\r\n\r\n        return true;\r\n    }\r\n\r\n    function updateTarget(uint data) public returns(bool success) {\r\n        targetTrack[msg.sender] = targetTrack[msg.sender].add(data);\r\n        if (targetTrack[msg.sender] >= target) {\r\n            isActive = false;\r\n            winner = msg.sender;\r\n        }\r\n\r\n        return true;\r\n    }\r\n\r\n    function issuePrize(address contractadd) public returns(bool success){\r\n        //require (msg.sender == owner);\r\n        if(!isActive) {\r\n            WelCoin cont = WelCoin(contractadd);\r\n            cont.transfer(winner, prize*10**decimals);\r\n            //kill();\r\n        } else {\r\n            return false;\r\n        }\r\n\r\n        return true;\r\n    }\r\n\r\n    /* Function to recover the funds on the contract */\r\n    function kill() public {\r\n        require(msg.sender == owner);\r\n        selfdestruct(owner);\r\n    }\r\n\r\n\r\n\r\n\r\n}",
  "sourcePath": "C:/Users/Alberto/Desktop/work/bluetensor/ethereum-smart-contracts/contracts/Torneo.sol",
  "compiler": {
    "name": "solc",
    "version": "0.5.0+commit.1d4f565a.Emscripten.clang"
  },
  "schemaVersion": "3.0.1",
  "updatedAt": "2019-02-02T10:58:36.013Z",
  "devdoc": {
    "methods": {}
  },
  "userdoc": {
    "methods": {}
  }
}