{
  "contractName": "Torneo",
  "abi": [
    {
      "inputs": [
        {
          "name": "initialName",
          "type": "string"
        },
        {
          "name": "initialDescription",
          "type": "string"
        },
        {
          "name": "initialPrize",
          "type": "uint256"
        },
        {
          "name": "initialFee",
          "type": "uint256"
        },
        {
          "name": "initialTarget",
          "type": "uint256"
        },
        {
          "name": "initialTargetDescription",
          "type": "string"
        },
        {
          "name": "initialOwner",
          "type": "address"
        },
        {
          "name": "initialDecimals",
          "type": "uint256"
        }
      ],
      "payable": false,
      "stateMutability": "nonpayable",
      "type": "constructor"
    },
    {
      "constant": true,
      "inputs": [
        {
          "name": "partecipant",
          "type": "address"
        }
      ],
      "name": "isPartecipant",
      "outputs": [
        {
          "name": "state",
          "type": "bool"
        }
      ],
      "payable": false,
      "stateMutability": "view",
      "type": "function"
    },
    {
      "constant": true,
      "inputs": [],
      "name": "getFee",
      "outputs": [
        {
          "name": "cost",
          "type": "uint256"
        }
      ],
      "payable": false,
      "stateMutability": "view",
      "type": "function"
    },
    {
      "constant": true,
      "inputs": [],
      "name": "isActiveStatus",
      "outputs": [
        {
          "name": "active",
          "type": "bool"
        }
      ],
      "payable": false,
      "stateMutability": "view",
      "type": "function"
    },
    {
      "constant": true,
      "inputs": [],
      "name": "getOwner",
      "outputs": [
        {
          "name": "theOwner",
          "type": "address"
        }
      ],
      "payable": false,
      "stateMutability": "view",
      "type": "function"
    },
    {
      "constant": true,
      "inputs": [],
      "name": "getWinner",
      "outputs": [
        {
          "name": "theWinner",
          "type": "address"
        }
      ],
      "payable": false,
      "stateMutability": "view",
      "type": "function"
    },
    {
      "constant": false,
      "inputs": [
        {
          "name": "tokens",
          "type": "uint256"
        }
      ],
      "name": "partecipate",
      "outputs": [
        {
          "name": "success",
          "type": "bool"
        }
      ],
      "payable": false,
      "stateMutability": "nonpayable",
      "type": "function"
    },
    {
      "constant": false,
      "inputs": [
        {
          "name": "data",
          "type": "uint256"
        }
      ],
      "name": "updateTarget",
      "outputs": [
        {
          "name": "success",
          "type": "bool"
        }
      ],
      "payable": false,
      "stateMutability": "nonpayable",
      "type": "function"
    },
    {
      "constant": false,
      "inputs": [
        {
          "name": "contractadd",
          "type": "address"
        }
      ],
      "name": "issuePrize",
      "outputs": [
        {
          "name": "success",
          "type": "bool"
        }
      ],
      "payable": false,
      "stateMutability": "nonpayable",
      "type": "function"
    },
    {
      "constant": false,
      "inputs": [],
      "name": "kill",
      "outputs": [],
      "payable": false,
      "stateMutability": "nonpayable",
      "type": "function"
    }
  ],
  "bytecode": "0x608060405234801561001057600080fd5b50604051610a0d380380610a0d83398101806040528101908080518201929190602001805182019291906020018051906020019092919080519060200190929190805190602001909291908051820192919060200180519060200190929190805190602001909291905050508760009080519060200190610092929190610187565b5086600190805190602001906100a9929190610187565b5085600281905550846003819055508360048190555082600690805190602001906100d5929190610187565b5081600860006101000a81548173ffffffffffffffffffffffffffffffffffffffff021916908373ffffffffffffffffffffffffffffffffffffffff1602179055506001600960146101000a81548160ff0219169083151502179055508060058190555030600760006101000a81548173ffffffffffffffffffffffffffffffffffffffff021916908373ffffffffffffffffffffffffffffffffffffffff160217905550505050505050505061022c565b828054600181600116156101000203166002900490600052602060002090601f016020900481019282601f106101c857805160ff19168380011785556101f6565b828001600101855582156101f6579182015b828111156101f55782518255916020019190600101906101da565b5b5090506102039190610207565b5090565b61022991905b8082111561022557600081600090555060010161020d565b5090565b90565b6107d28061023b6000396000f300608060405260043610610099576000357c0100000000000000000000000000000000000000000000000000000000900463ffffffff1680631d2803891461009e578063337e9f05146100cd57806341c0e1b5146101125780634c01711a1461012957806378199fdf14610184578063893d20e8146101c95780638e7ea5b214610220578063ced72f8714610277578063f52f6441146102a2575b600080fd5b3480156100aa57600080fd5b506100b36102fd565b604051808215151515815260200191505060405180910390f35b3480156100d957600080fd5b506100f860048036038101908080359060200190929190505050610314565b604051808215151515815260200191505060405180910390f35b34801561011e57600080fd5b50610127610387565b005b34801561013557600080fd5b5061016a600480360381019080803573ffffffffffffffffffffffffffffffffffffffff16906020019092919050505061041e565b604051808215151515815260200191505060405180910390f35b34801561019057600080fd5b506101af6004803603810190808035906020019092919050505061055d565b604051808215151515815260200191505060405180910390f35b3480156101d557600080fd5b506101de6106a4565b604051808273ffffffffffffffffffffffffffffffffffffffff1673ffffffffffffffffffffffffffffffffffffffff16815260200191505060405180910390f35b34801561022c57600080fd5b506102356106ce565b604051808273ffffffffffffffffffffffffffffffffffffffff1673ffffffffffffffffffffffffffffffffffffffff16815260200191505060405180910390f35b34801561028357600080fd5b5061028c610719565b6040518082815260200191505060405180910390f35b3480156102ae57600080fd5b506102e3600480360381019080803573ffffffffffffffffffffffffffffffffffffffff169060200190929190505050610723565b604051808215151515815260200191505060405180910390f35b6000600960149054906101000a900460ff16905090565b60006003548214151561032657600080fd5b6001600a60003373ffffffffffffffffffffffffffffffffffffffff1673ffffffffffffffffffffffffffffffffffffffff16815260200190815260200160002060006101000a81548160ff02191690831515021790555060019050919050565b600860009054906101000a900473ffffffffffffffffffffffffffffffffffffffff1673ffffffffffffffffffffffffffffffffffffffff163373ffffffffffffffffffffffffffffffffffffffff161415156103e357600080fd5b600860009054906101000a900473ffffffffffffffffffffffffffffffffffffffff1673ffffffffffffffffffffffffffffffffffffffff16ff5b600080600960149054906101000a900460ff161515610549578290508073ffffffffffffffffffffffffffffffffffffffff1663a9059cbb600960009054906101000a900473ffffffffffffffffffffffffffffffffffffffff16600554600a0a600254026040518363ffffffff167c0100000000000000000000000000000000000000000000000000000000028152600401808373ffffffffffffffffffffffffffffffffffffffff1673ffffffffffffffffffffffffffffffffffffffff16815260200182815260200192505050602060405180830381600087803b15801561050857600080fd5b505af115801561051c573d6000803e3d6000fd5b505050506040513d602081101561053257600080fd5b810190808051906020019092919050505050610552565b60009150610557565b600191505b50919050565b60006105b182600b60003373ffffffffffffffffffffffffffffffffffffffff1673ffffffffffffffffffffffffffffffffffffffff1681526020019081526020016000205461078a90919063ffffffff16565b600b60003373ffffffffffffffffffffffffffffffffffffffff1673ffffffffffffffffffffffffffffffffffffffff16815260200190815260200160002081905550600454600b60003373ffffffffffffffffffffffffffffffffffffffff1673ffffffffffffffffffffffffffffffffffffffff1681526020019081526020016000205410151561069b576000600960146101000a81548160ff02191690831515021790555033600960006101000a81548173ffffffffffffffffffffffffffffffffffffffff021916908373ffffffffffffffffffffffffffffffffffffffff1602179055505b60019050919050565b6000600860009054906101000a900473ffffffffffffffffffffffffffffffffffffffff16905090565b6000801515600960149054906101000a900460ff1615151415156106f157600080fd5b600960009054906101000a900473ffffffffffffffffffffffffffffffffffffffff16905090565b6000600354905090565b6000600a60008373ffffffffffffffffffffffffffffffffffffffff1673ffffffffffffffffffffffffffffffffffffffff16815260200190815260200160002060009054906101000a900460ff16156107805760019050610785565b600090505b919050565b600081830190508281101515156107a057600080fd5b929150505600a165627a7a72305820bc40c97d673116cdfe3c1f586bd3cfba3c210a3d8637f422138efc6f026b0d400029",
  "source": "pragma solidity ^0.4.18;\r\n\r\n// ----------------------------------------------------------------------------\r\n//  Torneo manager\r\n//  tied to WelCoin contract\r\n//  Credit: Alberto Carbognin\r\n// \tLICENSE: MIT\r\n// ----------------------------------------------------------------------------\r\n\r\nimport \"./WelCoin.sol\";\r\n\r\n\r\ncontract Torneo {\r\n    using SafeMath for uint;\r\n\tstring name;\r\n\tstring description;\r\n\tuint prize;\r\n\tuint fee;\r\n\tuint target;\r\n    uint decimals;\r\n\tstring targetDescription;\r\n\taddress contract_address;\r\n    address owner;\r\n    address winner;\r\n    bool isActive;\r\n\r\n\t//Building Dictionary of partecipants\r\n  \tmapping(address => bool) partecipants;\r\n\r\n    mapping(address => uint) targetTrack;\r\n\r\n\t//Constructor\r\n\tconstructor(\r\n\t\tstring initialName,\r\n\t\tstring initialDescription,\r\n\t\tuint initialPrize,\r\n\t\tuint initialFee,\r\n\t\tuint initialTarget,\r\n\t\tstring initialTargetDescription,\r\n        address initialOwner,\r\n        uint initialDecimals\r\n\t) public {\r\n\t\tname = initialName;\r\n\t\tdescription = initialDescription;\r\n\t\tprize = initialPrize;\r\n\t\tfee = initialFee;\r\n\t\ttarget = initialTarget;\r\n        targetDescription = initialTargetDescription;\r\n        owner = initialOwner;\r\n        isActive = true;\r\n        decimals = initialDecimals;\r\n\t\tcontract_address = this; //this cointains contract's address information\r\n\t}\r\n\r\n    function isPartecipant(address partecipant) public constant returns(bool state) {\r\n        if (partecipants[partecipant]) {\r\n            return true;\r\n        } else {\r\n            return false;\r\n        }\r\n    }\r\n\r\n    function getFee() public constant returns(uint cost) {\r\n        return fee;\r\n    }\r\n\r\n    function isActiveStatus() public constant returns(bool active) {\r\n        return isActive;\r\n    }\r\n\r\n\r\n    function getOwner() public constant returns(address theOwner) {\r\n        return owner;\r\n    }\r\n\r\n    function getWinner() public constant returns(address theWinner) {\r\n        require (isActive == false);\r\n        \r\n        return winner;\r\n    }\r\n\r\n    function partecipate(uint tokens) public returns(bool success) {\r\n        require(tokens == fee);\r\n        partecipants[msg.sender] = true;\r\n\r\n        return true;\r\n    }\r\n\r\n    function updateTarget(uint data) public returns(bool success) {\r\n        targetTrack[msg.sender] = targetTrack[msg.sender].add(data);\r\n        if (targetTrack[msg.sender] >= target) {\r\n            isActive = false;\r\n            winner = msg.sender;\r\n        }\r\n\r\n        return true;\r\n    }\r\n\r\n    function issuePrize(address contractadd) public returns(bool success){\r\n        //require (msg.sender == owner);\r\n        if(!isActive) {\r\n            WelCoin cont = WelCoin(contractadd);\r\n            cont.transfer(winner, prize*10**decimals);\r\n            //kill();\r\n        } else {\r\n            return false;\r\n        }\r\n\r\n        return true;\r\n    }\r\n\r\n    /* Function to recover the funds on the contract */\r\n    function kill() public {\r\n        require(msg.sender == owner);\r\n        selfdestruct(owner);\r\n    }\r\n\r\n\r\n\r\n\r\n}",
  "sourcePath": "C:\\Users\\Alberto\\Desktop\\Tirocinio\\SmartContract\\smartcontractdemo\\contracts\\Torneo.sol",
  "compiler": {
    "name": "solc",
    "version": "0.4.23+commit.124ca40d.Emscripten.clang"
  },
  "schemaVersion": "2.0.0",
  "updatedAt": "2018-05-09T15:24:05.430Z"
}