{
  "contractName": "WelCoin",
  "abi": [
    {
      "constant": true,
      "inputs": [],
      "name": "name",
      "outputs": [
        {
          "name": "",
          "type": "string"
        }
      ],
      "payable": false,
      "stateMutability": "view",
      "type": "function",
      "signature": "0x06fdde03"
    },
    {
      "constant": true,
      "inputs": [],
      "name": "decimals",
      "outputs": [
        {
          "name": "",
          "type": "uint256"
        }
      ],
      "payable": false,
      "stateMutability": "view",
      "type": "function",
      "signature": "0x313ce567"
    },
    {
      "constant": false,
      "inputs": [],
      "name": "acceptOwnership",
      "outputs": [],
      "payable": false,
      "stateMutability": "nonpayable",
      "type": "function",
      "signature": "0x79ba5097"
    },
    {
      "constant": true,
      "inputs": [],
      "name": "stepsTokenRate",
      "outputs": [
        {
          "name": "",
          "type": "uint256"
        }
      ],
      "payable": false,
      "stateMutability": "view",
      "type": "function",
      "signature": "0x79f1605e"
    },
    {
      "constant": true,
      "inputs": [],
      "name": "owner",
      "outputs": [
        {
          "name": "",
          "type": "address"
        }
      ],
      "payable": false,
      "stateMutability": "view",
      "type": "function",
      "signature": "0x8da5cb5b"
    },
    {
      "constant": true,
      "inputs": [],
      "name": "totalQuantitySupply",
      "outputs": [
        {
          "name": "",
          "type": "uint256"
        }
      ],
      "payable": false,
      "stateMutability": "view",
      "type": "function",
      "signature": "0x908fcb4a"
    },
    {
      "constant": true,
      "inputs": [],
      "name": "symbol",
      "outputs": [
        {
          "name": "",
          "type": "string"
        }
      ],
      "payable": false,
      "stateMutability": "view",
      "type": "function",
      "signature": "0x95d89b41"
    },
    {
      "constant": true,
      "inputs": [],
      "name": "contract_address",
      "outputs": [
        {
          "name": "",
          "type": "address"
        }
      ],
      "payable": false,
      "stateMutability": "view",
      "type": "function",
      "signature": "0x966b3514"
    },
    {
      "constant": true,
      "inputs": [],
      "name": "newIssue",
      "outputs": [
        {
          "name": "",
          "type": "bool"
        }
      ],
      "payable": false,
      "stateMutability": "view",
      "type": "function",
      "signature": "0x9c16d82c"
    },
    {
      "constant": true,
      "inputs": [],
      "name": "isRateActive",
      "outputs": [
        {
          "name": "",
          "type": "bool"
        }
      ],
      "payable": false,
      "stateMutability": "view",
      "type": "function",
      "signature": "0xc8ade114"
    },
    {
      "constant": true,
      "inputs": [],
      "name": "newOwner",
      "outputs": [
        {
          "name": "",
          "type": "address"
        }
      ],
      "payable": false,
      "stateMutability": "view",
      "type": "function",
      "signature": "0xd4ee1d90"
    },
    {
      "constant": false,
      "inputs": [
        {
          "name": "_newOwner",
          "type": "address"
        }
      ],
      "name": "transferOwnership",
      "outputs": [],
      "payable": false,
      "stateMutability": "nonpayable",
      "type": "function",
      "signature": "0xf2fde38b"
    },
    {
      "inputs": [
        {
          "name": "initialName",
          "type": "string"
        },
        {
          "name": "initalSymbol",
          "type": "string"
        },
        {
          "name": "initialSupply",
          "type": "uint256"
        },
        {
          "name": "initialStepsTokenRate",
          "type": "uint256"
        },
        {
          "name": "initialDecimals",
          "type": "uint256"
        },
        {
          "name": "initialIsRateActive",
          "type": "bool"
        },
        {
          "name": "initialNewIssue",
          "type": "bool"
        }
      ],
      "payable": false,
      "stateMutability": "nonpayable",
      "type": "constructor",
      "signature": "constructor"
    },
    {
      "anonymous": false,
      "inputs": [
        {
          "indexed": true,
          "name": "_from",
          "type": "address"
        },
        {
          "indexed": true,
          "name": "_to",
          "type": "address"
        }
      ],
      "name": "OwnershipTransferred",
      "type": "event",
      "signature": "0x8be0079c531659141344cd1fd0a4f28419497f9722a3daafe3b4186f6b6457e0"
    },
    {
      "anonymous": false,
      "inputs": [
        {
          "indexed": true,
          "name": "from",
          "type": "address"
        },
        {
          "indexed": true,
          "name": "to",
          "type": "address"
        },
        {
          "indexed": false,
          "name": "tokens",
          "type": "uint256"
        }
      ],
      "name": "Transfer",
      "type": "event",
      "signature": "0xddf252ad1be2c89b69c2b068fc378daa952ba7f163c4a11628f55a4df523b3ef"
    },
    {
      "anonymous": false,
      "inputs": [
        {
          "indexed": true,
          "name": "tokenOwner",
          "type": "address"
        },
        {
          "indexed": true,
          "name": "spender",
          "type": "address"
        },
        {
          "indexed": false,
          "name": "tokens",
          "type": "uint256"
        }
      ],
      "name": "Approval",
      "type": "event",
      "signature": "0x8c5be1e5ebec7d5bd14f71427d1e84f3dd0314c0f7b2291e5b200ac8c7c3b925"
    },
    {
      "constant": true,
      "inputs": [
        {
          "name": "tokenOwner",
          "type": "address"
        }
      ],
      "name": "balanceOf",
      "outputs": [
        {
          "name": "balance",
          "type": "uint256"
        }
      ],
      "payable": false,
      "stateMutability": "view",
      "type": "function",
      "signature": "0x70a08231"
    },
    {
      "constant": true,
      "inputs": [],
      "name": "balanceOfOwner",
      "outputs": [
        {
          "name": "balance",
          "type": "uint256"
        }
      ],
      "payable": false,
      "stateMutability": "view",
      "type": "function",
      "signature": "0x4975d202"
    },
    {
      "constant": true,
      "inputs": [],
      "name": "totalSupply",
      "outputs": [
        {
          "name": "supply",
          "type": "uint256"
        }
      ],
      "payable": false,
      "stateMutability": "view",
      "type": "function",
      "signature": "0x18160ddd"
    },
    {
      "constant": true,
      "inputs": [],
      "name": "contractBalance",
      "outputs": [
        {
          "name": "balance",
          "type": "uint256"
        }
      ],
      "payable": false,
      "stateMutability": "view",
      "type": "function",
      "signature": "0x8b7afe2e"
    },
    {
      "constant": true,
      "inputs": [],
      "name": "getData",
      "outputs": [
        {
          "name": "nameData",
          "type": "string"
        },
        {
          "name": "symbolData",
          "type": "string"
        },
        {
          "name": "totalSupplyData",
          "type": "uint256"
        },
        {
          "name": "stepsTokenRateData",
          "type": "uint256"
        },
        {
          "name": "isRateActiveData",
          "type": "bool"
        },
        {
          "name": "newIssueData",
          "type": "bool"
        }
      ],
      "payable": false,
      "stateMutability": "view",
      "type": "function",
      "signature": "0x3bc5de30"
    },
    {
      "constant": false,
      "inputs": [],
      "name": "depositExchangedEther",
      "outputs": [
        {
          "name": "success",
          "type": "bool"
        }
      ],
      "payable": true,
      "stateMutability": "payable",
      "type": "function",
      "signature": "0x6d7387a1"
    },
    {
      "constant": false,
      "inputs": [
        {
          "name": "steps",
          "type": "uint256"
        }
      ],
      "name": "depositTokenSteps",
      "outputs": [
        {
          "name": "success",
          "type": "bool"
        }
      ],
      "payable": true,
      "stateMutability": "payable",
      "type": "function",
      "signature": "0x8bec27e5"
    },
    {
      "constant": false,
      "inputs": [
        {
          "name": "from",
          "type": "address"
        },
        {
          "name": "to",
          "type": "address"
        },
        {
          "name": "tokens",
          "type": "uint256"
        }
      ],
      "name": "virtualDepositTransferFrom",
      "outputs": [
        {
          "name": "success",
          "type": "bool"
        }
      ],
      "payable": false,
      "stateMutability": "nonpayable",
      "type": "function",
      "signature": "0x00ac4434"
    },
    {
      "constant": false,
      "inputs": [
        {
          "name": "to",
          "type": "address"
        },
        {
          "name": "tokens",
          "type": "uint256"
        }
      ],
      "name": "transfer",
      "outputs": [
        {
          "name": "success",
          "type": "bool"
        }
      ],
      "payable": false,
      "stateMutability": "nonpayable",
      "type": "function",
      "signature": "0xa9059cbb"
    },
    {
      "constant": false,
      "inputs": [
        {
          "name": "spender",
          "type": "address"
        },
        {
          "name": "tokens",
          "type": "uint256"
        }
      ],
      "name": "approve",
      "outputs": [
        {
          "name": "success",
          "type": "bool"
        }
      ],
      "payable": false,
      "stateMutability": "nonpayable",
      "type": "function",
      "signature": "0x095ea7b3"
    },
    {
      "constant": false,
      "inputs": [
        {
          "name": "from",
          "type": "address"
        },
        {
          "name": "to",
          "type": "address"
        },
        {
          "name": "tokens",
          "type": "uint256"
        }
      ],
      "name": "transferFrom",
      "outputs": [
        {
          "name": "success",
          "type": "bool"
        }
      ],
      "payable": false,
      "stateMutability": "nonpayable",
      "type": "function",
      "signature": "0x23b872dd"
    },
    {
      "constant": true,
      "inputs": [
        {
          "name": "tokenOwner",
          "type": "address"
        },
        {
          "name": "spender",
          "type": "address"
        }
      ],
      "name": "allowance",
      "outputs": [
        {
          "name": "remaining",
          "type": "uint256"
        }
      ],
      "payable": false,
      "stateMutability": "view",
      "type": "function",
      "signature": "0xdd62ed3e"
    },
    {
      "constant": false,
      "inputs": [
        {
          "name": "amount",
          "type": "uint256"
        }
      ],
      "name": "issueTokens",
      "outputs": [
        {
          "name": "success",
          "type": "bool"
        }
      ],
      "payable": false,
      "stateMutability": "nonpayable",
      "type": "function",
      "signature": "0xa5820daa"
    }
  ],
  "bytecode": "0x60806040523480156200001157600080fd5b506040516200247238038062002472833981018060405260e08110156200003757600080fd5b8101908080516401000000008111156200005057600080fd5b828101905060208101848111156200006757600080fd5b81518560018202830111640100000000821117156200008557600080fd5b50509291906020018051640100000000811115620000a257600080fd5b82810190506020810184811115620000b957600080fd5b8151856001820283011164010000000082111715620000d757600080fd5b50509291906020018051906020019092919080519060200190929190805190602001909291908051906020019092919080519060200190929190505050336000806101000a81548173ffffffffffffffffffffffffffffffffffffffff021916908373ffffffffffffffffffffffffffffffffffffffff16021790555086600290805190602001906200016c92919062000312565b5085600390805190602001906200018592919062000312565b508260058190555082600a0a85026004819055508360068190555081600760006101000a81548160ff02191690831515021790555080600760016101000a81548160ff02191690831515021790555030600760026101000a81548173ffffffffffffffffffffffffffffffffffffffff021916908373ffffffffffffffffffffffffffffffffffffffff160217905550600454600860008060009054906101000a900473ffffffffffffffffffffffffffffffffffffffff1673ffffffffffffffffffffffffffffffffffffffff1673ffffffffffffffffffffffffffffffffffffffff168152602001908152602001600020819055506000809054906101000a900473ffffffffffffffffffffffffffffffffffffffff1673ffffffffffffffffffffffffffffffffffffffff16600073ffffffffffffffffffffffffffffffffffffffff167fddf252ad1be2c89b69c2b068fc378daa952ba7f163c4a11628f55a4df523b3ef6004546040518082815260200191505060405180910390a350505050505050620003c1565b828054600181600116156101000203166002900490600052602060002090601f016020900481019282601f106200035557805160ff191683800117855562000386565b8280016001018555821562000386579182015b828111156200038557825182559160200191906001019062000368565b5b50905062000395919062000399565b5090565b620003be91905b80821115620003ba576000816000905550600101620003a0565b5090565b90565b6120a180620003d16000396000f3fe608060405260043610610148576000357c0100000000000000000000000000000000000000000000000000000000900463ffffffff168062ac44341461014d57806306fdde03146101e0578063095ea7b31461027057806318160ddd146102e357806323b872dd1461030e578063313ce567146103a15780633bc5de30146103cc5780634975d202146104ec5780636d7387a11461051757806370a082311461053957806379ba50971461059e57806379f1605e146105b55780638b7afe2e146105e05780638bec27e51461060b5780638da5cb5b14610651578063908fcb4a146106a857806395d89b41146106d3578063966b3514146107635780639c16d82c146107ba578063a5820daa146107e9578063a9059cbb1461083c578063c8ade114146108af578063d4ee1d90146108de578063dd62ed3e14610935578063f2fde38b146109ba575b600080fd5b34801561015957600080fd5b506101c66004803603606081101561017057600080fd5b81019080803573ffffffffffffffffffffffffffffffffffffffff169060200190929190803573ffffffffffffffffffffffffffffffffffffffff16906020019092919080359060200190929190505050610a0b565b604051808215151515815260200191505060405180910390f35b3480156101ec57600080fd5b506101f5610bf5565b6040518080602001828103825283818151815260200191508051906020019080838360005b8381101561023557808201518184015260208101905061021a565b50505050905090810190601f1680156102625780820380516001836020036101000a031916815260200191505b509250505060405180910390f35b34801561027c57600080fd5b506102c96004803603604081101561029357600080fd5b81019080803573ffffffffffffffffffffffffffffffffffffffff16906020019092919080359060200190929190505050610c93565b604051808215151515815260200191505060405180910390f35b3480156102ef57600080fd5b506102f8610d85565b6040518082815260200191505060405180910390f35b34801561031a57600080fd5b506103876004803603606081101561033157600080fd5b81019080803573ffffffffffffffffffffffffffffffffffffffff169060200190929190803573ffffffffffffffffffffffffffffffffffffffff16906020019092919080359060200190929190505050610d8f565b604051808215151515815260200191505060405180910390f35b3480156103ad57600080fd5b506103b6611115565b6040518082815260200191505060405180910390f35b3480156103d857600080fd5b506103e161111b565b6040518080602001806020018781526020018681526020018515151515815260200184151515158152602001838103835289818151815260200191508051906020019080838360005b8381101561044557808201518184015260208101905061042a565b50505050905090810190601f1680156104725780820380516001836020036101000a031916815260200191505b50838103825288818151815260200191508051906020019080838360005b838110156104ab578082015181840152602081019050610490565b50505050905090810190601f1680156104d85780820380516001836020036101000a031916815260200191505b509850505050505050505060405180910390f35b3480156104f857600080fd5b5061050161129a565b6040518082815260200191505060405180910390f35b61051f611302565b604051808215151515815260200191505060405180910390f35b34801561054557600080fd5b506105886004803603602081101561055c57600080fd5b81019080803573ffffffffffffffffffffffffffffffffffffffff16906020019092919050505061154b565b6040518082815260200191505060405180910390f35b3480156105aa57600080fd5b506105b3611594565b005b3480156105c157600080fd5b506105ca611733565b6040518082815260200191505060405180910390f35b3480156105ec57600080fd5b506105f5611739565b6040518082815260200191505060405180910390f35b6106376004803603602081101561062157600080fd5b810190808035906020019092919050505061177a565b604051808215151515815260200191505060405180910390f35b34801561065d57600080fd5b506106666119a0565b604051808273ffffffffffffffffffffffffffffffffffffffff1673ffffffffffffffffffffffffffffffffffffffff16815260200191505060405180910390f35b3480156106b457600080fd5b506106bd6119c5565b6040518082815260200191505060405180910390f35b3480156106df57600080fd5b506106e86119cb565b6040518080602001828103825283818151815260200191508051906020019080838360005b8381101561072857808201518184015260208101905061070d565b50505050905090810190601f1680156107555780820380516001836020036101000a031916815260200191505b509250505060405180910390f35b34801561076f57600080fd5b50610778611a69565b604051808273ffffffffffffffffffffffffffffffffffffffff1673ffffffffffffffffffffffffffffffffffffffff16815260200191505060405180910390f35b3480156107c657600080fd5b506107cf611a8f565b604051808215151515815260200191505060405180910390f35b3480156107f557600080fd5b506108226004803603602081101561080c57600080fd5b8101908080359060200190929190505050611aa2565b604051808215151515815260200191505060405180910390f35b34801561084857600080fd5b506108956004803603604081101561085f57600080fd5b81019080803573ffffffffffffffffffffffffffffffffffffffff16906020019092919080359060200190929190505050611ca0565b604051808215151515815260200191505060405180910390f35b3480156108bb57600080fd5b506108c4611e89565b604051808215151515815260200191505060405180910390f35b3480156108ea57600080fd5b506108f3611e9c565b604051808273ffffffffffffffffffffffffffffffffffffffff1673ffffffffffffffffffffffffffffffffffffffff16815260200191505060405180910390f35b34801561094157600080fd5b506109a46004803603604081101561095857600080fd5b81019080803573ffffffffffffffffffffffffffffffffffffffff169060200190929190803573ffffffffffffffffffffffffffffffffffffffff169060200190929190505050611ec2565b6040518082815260200191505060405180910390f35b3480156109c657600080fd5b50610a09600480360360208110156109dd57600080fd5b81019080803573ffffffffffffffffffffffffffffffffffffffff169060200190929190505050611f49565b005b600081600860008673ffffffffffffffffffffffffffffffffffffffff1673ffffffffffffffffffffffffffffffffffffffff1681526020019081526020016000205410151515610a5b57600080fd5b610aad82600860008773ffffffffffffffffffffffffffffffffffffffff1673ffffffffffffffffffffffffffffffffffffffff16815260200190815260200160002054611fe890919063ffffffff16565b600860008673ffffffffffffffffffffffffffffffffffffffff1673ffffffffffffffffffffffffffffffffffffffff16815260200190815260200160002081905550610b4282600860008673ffffffffffffffffffffffffffffffffffffffff1673ffffffffffffffffffffffffffffffffffffffff1681526020019081526020016000205461200490919063ffffffff16565b600860008573ffffffffffffffffffffffffffffffffffffffff1673ffffffffffffffffffffffffffffffffffffffff168152602001908152602001600020819055508273ffffffffffffffffffffffffffffffffffffffff168473ffffffffffffffffffffffffffffffffffffffff167fddf252ad1be2c89b69c2b068fc378daa952ba7f163c4a11628f55a4df523b3ef846040518082815260200191505060405180910390a3600190509392505050565b60028054600181600116156101000203166002900480601f016020809104026020016040519081016040528092919081815260200182805460018160011615610100020316600290048015610c8b5780601f10610c6057610100808354040283529160200191610c8b565b820191906000526020600020905b815481529060010190602001808311610c6e57829003601f168201915b505050505081565b600081600960003373ffffffffffffffffffffffffffffffffffffffff1673ffffffffffffffffffffffffffffffffffffffff16815260200190815260200160002060008573ffffffffffffffffffffffffffffffffffffffff1673ffffffffffffffffffffffffffffffffffffffff168152602001908152602001600020819055508273ffffffffffffffffffffffffffffffffffffffff163373ffffffffffffffffffffffffffffffffffffffff167f8c5be1e5ebec7d5bd14f71427d1e84f3dd0314c0f7b2291e5b200ac8c7c3b925846040518082815260200191505060405180910390a36001905092915050565b6000600454905090565b600080600960008673ffffffffffffffffffffffffffffffffffffffff1673ffffffffffffffffffffffffffffffffffffffff16815260200190815260200160002060003373ffffffffffffffffffffffffffffffffffffffff1673ffffffffffffffffffffffffffffffffffffffff16815260200190815260200160002054905082600860008773ffffffffffffffffffffffffffffffffffffffff1673ffffffffffffffffffffffffffffffffffffffff1681526020019081526020016000205410158015610e605750828110155b1515610e6b57600080fd5b610ebd83600860008873ffffffffffffffffffffffffffffffffffffffff1673ffffffffffffffffffffffffffffffffffffffff16815260200190815260200160002054611fe890919063ffffffff16565b600860008773ffffffffffffffffffffffffffffffffffffffff1673ffffffffffffffffffffffffffffffffffffffff16815260200190815260200160002081905550610f8f83600960008873ffffffffffffffffffffffffffffffffffffffff1673ffffffffffffffffffffffffffffffffffffffff16815260200190815260200160002060003373ffffffffffffffffffffffffffffffffffffffff1673ffffffffffffffffffffffffffffffffffffffff16815260200190815260200160002054611fe890919063ffffffff16565b600960008773ffffffffffffffffffffffffffffffffffffffff1673ffffffffffffffffffffffffffffffffffffffff16815260200190815260200160002060003373ffffffffffffffffffffffffffffffffffffffff1673ffffffffffffffffffffffffffffffffffffffff1681526020019081526020016000208190555061106183600860008773ffffffffffffffffffffffffffffffffffffffff1673ffffffffffffffffffffffffffffffffffffffff1681526020019081526020016000205461200490919063ffffffff16565b600860008673ffffffffffffffffffffffffffffffffffffffff1673ffffffffffffffffffffffffffffffffffffffff168152602001908152602001600020819055508373ffffffffffffffffffffffffffffffffffffffff168573ffffffffffffffffffffffffffffffffffffffff167fddf252ad1be2c89b69c2b068fc378daa952ba7f163c4a11628f55a4df523b3ef856040518082815260200191505060405180910390a360019150509392505050565b60055481565b60608060008060008060026003600454600654600760009054906101000a900460ff16600760019054906101000a900460ff16858054600181600116156101000203166002900480601f0160208091040260200160405190810160405280929190818152602001828054600181600116156101000203166002900480156111e35780601f106111b8576101008083540402835291602001916111e3565b820191906000526020600020905b8154815290600101906020018083116111c657829003601f168201915b50505050509550848054600181600116156101000203166002900480601f01602080910402602001604051908101604052809291908181526020018280546001816001161561010002031660029004801561127f5780601f106112545761010080835404028352916020019161127f565b820191906000526020600020905b81548152906001019060200180831161126257829003601f168201915b50505050509450955095509550955095509550909192939495565b6000600860008060009054906101000a900473ffffffffffffffffffffffffffffffffffffffff1673ffffffffffffffffffffffffffffffffffffffff1673ffffffffffffffffffffffffffffffffffffffff16815260200190815260200160002054905090565b600080341015151561131357600080fd5b60011515600760009054906101000a900460ff16151514151561133557600080fd5b600061134f64174876e8003461202090919063ffffffff16565b905060006113c682600860008060009054906101000a900473ffffffffffffffffffffffffffffffffffffffff1673ffffffffffffffffffffffffffffffffffffffff1673ffffffffffffffffffffffffffffffffffffffff16815260200190815260200160002054611fe890919063ffffffff16565b10151561153e5761144081600860008060009054906101000a900473ffffffffffffffffffffffffffffffffffffffff1673ffffffffffffffffffffffffffffffffffffffff1673ffffffffffffffffffffffffffffffffffffffff16815260200190815260200160002054611fe890919063ffffffff16565b600860008060009054906101000a900473ffffffffffffffffffffffffffffffffffffffff1673ffffffffffffffffffffffffffffffffffffffff1673ffffffffffffffffffffffffffffffffffffffff168152602001908152602001600020819055506114f681600860003373ffffffffffffffffffffffffffffffffffffffff1673ffffffffffffffffffffffffffffffffffffffff1681526020019081526020016000205461200490919063ffffffff16565b600860003373ffffffffffffffffffffffffffffffffffffffff1673ffffffffffffffffffffffffffffffffffffffff16815260200190815260200160002081905550611543565b600080fd5b600191505090565b6000600860008373ffffffffffffffffffffffffffffffffffffffff1673ffffffffffffffffffffffffffffffffffffffff168152602001908152602001600020549050919050565b600160009054906101000a900473ffffffffffffffffffffffffffffffffffffffff1673ffffffffffffffffffffffffffffffffffffffff163373ffffffffffffffffffffffffffffffffffffffff161415156115f057600080fd5b600160009054906101000a900473ffffffffffffffffffffffffffffffffffffffff1673ffffffffffffffffffffffffffffffffffffffff166000809054906101000a900473ffffffffffffffffffffffffffffffffffffffff1673ffffffffffffffffffffffffffffffffffffffff167f8be0079c531659141344cd1fd0a4f28419497f9722a3daafe3b4186f6b6457e060405160405180910390a3600160009054906101000a900473ffffffffffffffffffffffffffffffffffffffff166000806101000a81548173ffffffffffffffffffffffffffffffffffffffff021916908373ffffffffffffffffffffffffffffffffffffffff1602179055506000600160006101000a81548173ffffffffffffffffffffffffffffffffffffffff021916908373ffffffffffffffffffffffffffffffffffffffff160217905550565b60065481565b6000600760029054906101000a900473ffffffffffffffffffffffffffffffffffffffff1673ffffffffffffffffffffffffffffffffffffffff1631905090565b600080821015151561178b57600080fd5b60006117a26006548461204490919063ffffffff16565b9050600061181982600860008060009054906101000a900473ffffffffffffffffffffffffffffffffffffffff1673ffffffffffffffffffffffffffffffffffffffff1673ffffffffffffffffffffffffffffffffffffffff16815260200190815260200160002054611fe890919063ffffffff16565b1015156119915761189381600860008060009054906101000a900473ffffffffffffffffffffffffffffffffffffffff1673ffffffffffffffffffffffffffffffffffffffff1673ffffffffffffffffffffffffffffffffffffffff16815260200190815260200160002054611fe890919063ffffffff16565b600860008060009054906101000a900473ffffffffffffffffffffffffffffffffffffffff1673ffffffffffffffffffffffffffffffffffffffff1673ffffffffffffffffffffffffffffffffffffffff1681526020019081526020016000208190555061194981600860003373ffffffffffffffffffffffffffffffffffffffff1673ffffffffffffffffffffffffffffffffffffffff1681526020019081526020016000205461200490919063ffffffff16565b600860003373ffffffffffffffffffffffffffffffffffffffff1673ffffffffffffffffffffffffffffffffffffffff16815260200190815260200160002081905550611996565b600080fd5b6001915050919050565b6000809054906101000a900473ffffffffffffffffffffffffffffffffffffffff1681565b60045481565b60038054600181600116156101000203166002900480601f016020809104026020016040519081016040528092919081815260200182805460018160011615610100020316600290048015611a615780601f10611a3657610100808354040283529160200191611a61565b820191906000526020600020905b815481529060010190602001808311611a4457829003601f168201915b505050505081565b600760029054906101000a900473ffffffffffffffffffffffffffffffffffffffff1681565b600760019054906101000a900460ff1681565b60008060009054906101000a900473ffffffffffffffffffffffffffffffffffffffff1673ffffffffffffffffffffffffffffffffffffffff163373ffffffffffffffffffffffffffffffffffffffff16141515611aff57600080fd5b600760019054906101000a900460ff1615611c9257611b8782600860008060009054906101000a900473ffffffffffffffffffffffffffffffffffffffff1673ffffffffffffffffffffffffffffffffffffffff1673ffffffffffffffffffffffffffffffffffffffff1681526020019081526020016000205461200490919063ffffffff16565b600860008060009054906101000a900473ffffffffffffffffffffffffffffffffffffffff1673ffffffffffffffffffffffffffffffffffffffff1673ffffffffffffffffffffffffffffffffffffffff16815260200190815260200160002081905550611c008260045461200490919063ffffffff16565b6004819055506000809054906101000a900473ffffffffffffffffffffffffffffffffffffffff1673ffffffffffffffffffffffffffffffffffffffff16600073ffffffffffffffffffffffffffffffffffffffff167fddf252ad1be2c89b69c2b068fc378daa952ba7f163c4a11628f55a4df523b3ef846040518082815260200191505060405180910390a3611c97565b600080fd5b60019050919050565b600081600860003373ffffffffffffffffffffffffffffffffffffffff1673ffffffffffffffffffffffffffffffffffffffff1681526020019081526020016000205410151515611cf057600080fd5b611d4282600860003373ffffffffffffffffffffffffffffffffffffffff1673ffffffffffffffffffffffffffffffffffffffff16815260200190815260200160002054611fe890919063ffffffff16565b600860003373ffffffffffffffffffffffffffffffffffffffff1673ffffffffffffffffffffffffffffffffffffffff16815260200190815260200160002081905550611dd782600860008673ffffffffffffffffffffffffffffffffffffffff1673ffffffffffffffffffffffffffffffffffffffff1681526020019081526020016000205461200490919063ffffffff16565b600860008573ffffffffffffffffffffffffffffffffffffffff1673ffffffffffffffffffffffffffffffffffffffff168152602001908152602001600020819055508273ffffffffffffffffffffffffffffffffffffffff163373ffffffffffffffffffffffffffffffffffffffff167fddf252ad1be2c89b69c2b068fc378daa952ba7f163c4a11628f55a4df523b3ef846040518082815260200191505060405180910390a36001905092915050565b600760009054906101000a900460ff1681565b600160009054906101000a900473ffffffffffffffffffffffffffffffffffffffff1681565b6000600960008473ffffffffffffffffffffffffffffffffffffffff1673ffffffffffffffffffffffffffffffffffffffff16815260200190815260200160002060008373ffffffffffffffffffffffffffffffffffffffff1673ffffffffffffffffffffffffffffffffffffffff16815260200190815260200160002054905092915050565b6000809054906101000a900473ffffffffffffffffffffffffffffffffffffffff1673ffffffffffffffffffffffffffffffffffffffff163373ffffffffffffffffffffffffffffffffffffffff16141515611fa457600080fd5b80600160006101000a81548173ffffffffffffffffffffffffffffffffffffffff021916908373ffffffffffffffffffffffffffffffffffffffff16021790555050565b6000828211151515611ff957600080fd5b818303905092915050565b6000818301905082811015151561201a57600080fd5b92915050565b6000808211151561203057600080fd5b818381151561203b57fe5b04905092915050565b600081830290506000831480612064575081838281151561206157fe5b04145b151561206f57600080fd5b9291505056fea165627a7a7230582077a6f3293bb86e662da25eab5b17c8da3a21273b9c523feec1a5bef471fafdf10029",
  "source": "pragma solidity ^0.5.0;\r\n\r\n\r\n// ----------------------------------------------------------------------------\r\n//  WELLCOIN implementation\r\n//  based on ERC20 Token\r\n//  https://theethereum.wiki/w/index.php/ERC20_Token_Standard \r\n//  Code Owned by: Alberto Carbognin\r\n// ----------------------------------------------------------------------------\r\n\r\n// ----------------------------------------------------------------------------\r\n// Safe maths\r\n// ----------------------------------------------------------------------------\r\nlibrary SafeMath {\r\n  function add(uint a, uint b) internal pure returns (uint c) {\r\n    c = a + b;\r\n    require(c >= a);\r\n  }\r\n  function sub(uint a, uint b) internal pure returns (uint c) {\r\n    require(b <= a);\r\n    c = a - b;\r\n  }\r\n  function mul(uint a, uint b) internal pure returns (uint c) {\r\n    c = a * b;\r\n    require(a == 0 || c / a == b);\r\n  }\r\n  function div(uint a, uint b) internal pure returns (uint c) {\r\n    require(b > 0);\r\n    c = a / b;\r\n  }\r\n}\r\n\r\n// ----------------------------------------------------------------------------\r\n// Owned contract\r\n// ----------------------------------------------------------------------------\r\ncontract Owned {\r\n  address public owner;\r\n  address public newOwner;\r\n\r\n  event OwnershipTransferred(address indexed _from, address indexed _to);\r\n\r\n  constructor() public {\r\n    owner = msg.sender;\r\n  }\r\n\r\n  modifier onlyOwner {\r\n    require(msg.sender == owner);\r\n    _;\r\n  }\r\n\r\n  function transferOwnership(address _newOwner) public onlyOwner {\r\n    newOwner = _newOwner;\r\n  }\r\n  function acceptOwnership() public {\r\n    require(msg.sender == newOwner);\r\n    emit OwnershipTransferred(owner, newOwner);\r\n    owner = newOwner;\r\n    newOwner = address(0);\r\n  }\r\n}\r\n\r\n\r\n// ----------------------------------------------------------------------------\r\n//  ERC20 Interface\r\n// ----------------------------------------------------------------------------\r\ncontract ERC20Interface {\r\n  function totalSupply() public view returns (uint);\r\n  function balanceOf(address tokenOwner) public view returns (uint balance);\r\n  function allowance(address tokenOwner, address spender) public view returns (uint remaining);\r\n  function transfer(address to, uint tokens) public returns (bool success);\r\n  function approve(address spender, uint tokens) public returns (bool success);\r\n  function transferFrom(address from, address to, uint tokens) public returns (bool success);\r\n\r\n  //events to track operations in real time\r\n  //indexed is needed in order to find events using indexed parameters as filter\r\n  event Transfer(address indexed from, address indexed to, uint tokens);\r\n  event Approval(address indexed tokenOwner, address indexed spender, uint tokens);\r\n}\r\n\r\n\r\n// ----------------------------------------------------------------------------\r\n//  Official Implementation\r\n// ----------------------------------------------------------------------------\r\n\r\ncontract WelCoin is ERC20Interface, Owned {\r\n  //importing library for safe math operations\r\n  using SafeMath for uint;\r\n\r\n  //Describing Contract basic informations\r\n  string public name;\r\n  string public symbol;\r\n  uint public totalQuantitySupply;\r\n  uint public decimals;\r\n  uint public stepsTokenRate;\r\n  bool public isRateActive;\r\n  bool public newIssue;\r\n  WelCoin public contract_address;\r\n\r\n  //Building Dictionary for Balances Account\r\n  mapping(address => uint) balances;\r\n  //Building Dictionary for allowance per account\r\n  //the first address allows to pay second address of uint amount\r\n  mapping(address => mapping(address => uint)) allowed;\r\n\r\n\r\n  //Constructor\r\n  constructor(\r\n    string memory initialName,\r\n    string memory initalSymbol,\r\n    uint initialSupply,\r\n    uint initialStepsTokenRate,\r\n    uint initialDecimals,\r\n    bool initialIsRateActive,\r\n    bool initialNewIssue\r\n    ) public {\r\n    name = initialName;\r\n    symbol = initalSymbol;\r\n    decimals = initialDecimals;\r\n    totalQuantitySupply = initialSupply * 10**uint(initialDecimals);\r\n    stepsTokenRate = initialStepsTokenRate;\r\n    isRateActive = initialIsRateActive;\r\n    newIssue = initialNewIssue;\r\n    contract_address = this; //this cointains contract's address information\r\n\r\n    //updating initial balances\r\n    balances[owner] = totalQuantitySupply;\r\n\r\n    //fire up Transfer event\r\n    emit Transfer(address(0), owner, totalQuantitySupply);\r\n  }\r\n\r\n  //return the balance of a Token Owner\r\n  function balanceOf(address tokenOwner) public view returns(uint balance) {\r\n    return balances[tokenOwner];\r\n  }\r\n\r\n  //return the balance of Owner\r\n  function balanceOfOwner() public view returns(uint balance) {\r\n    return balances[owner];\r\n  }\r\n\r\n  function totalSupply() public view returns(uint supply) {\r\n    return totalQuantitySupply;\r\n  }\r\n\r\n  //return balance of the contract \r\n  function contractBalance() public view returns(uint balance) {\r\n    return address(contract_address).balance;\r\n  }\r\n\r\n  //return parameters\r\n  function getData() public view returns(\r\n    string memory nameData,\r\n    string memory symbolData,\r\n    uint totalSupplyData,\r\n    uint stepsTokenRateData,\r\n    bool isRateActiveData,\r\n    bool newIssueData\r\n    ) {\r\n    return (name, symbol, totalQuantitySupply, stepsTokenRate, isRateActive, newIssue);\r\n  }\r\n\r\n  //deposit ether as token\r\n  function depositExchangedEther() public payable returns(bool success){\r\n    require(msg.value >= 0);\r\n    require(isRateActive == true);\r\n\r\n    //user is using etherTokenExchange rate\r\n    // 1 to change\r\n    uint exchangableToken = msg.value.div(10**11);\r\n\r\n    if (balances[owner].sub(exchangableToken) >= 0) {\r\n\r\n      //write transfer function\r\n      balances[owner] = balances[owner].sub(exchangableToken);\r\n      balances[msg.sender] = balances[msg.sender].add(exchangableToken);\r\n      //only for demo purpose\r\n      //owner.transfer(contract_address.balance); //gas used 2300\r\n\r\n      } else {\r\n\r\n        revert();\r\n      }\r\n\r\n      return true;\r\n\r\n  }\r\n\r\n  //Step to token assign\r\n  function depositTokenSteps(uint steps) public payable returns(bool success){\r\n\r\n    require (steps >= 0);\r\n\r\n    //user is using etherTokenExchange rate\r\n    uint exchangableToken = steps.mul(stepsTokenRate);\r\n\r\n    if (balances[owner].sub(exchangableToken) >= 0) {\r\n\r\n      //write transfer function\r\n      balances[owner] = balances[owner].sub(exchangableToken);\r\n      balances[msg.sender] = balances[msg.sender].add(exchangableToken);\r\n\r\n      } else {\r\n        revert();\r\n      }\r\n\r\n      return true;\r\n\r\n  }\r\n\r\n  // ------------------------------------------------------------------------\r\n  // Virtual Deposit `tokens` from the `from` account to the `to` account\r\n  // ------------------------------------------------------------------------\r\n  function virtualDepositTransferFrom(address from, address to, uint tokens) public returns (bool success) {\r\n    require(balances[from] >= tokens);\r\n\r\n    balances[from] = balances[from].sub(tokens);\r\n    balances[to] = balances[to].add(tokens);\r\n    emit Transfer(from, to, tokens);\r\n    return true;\r\n  }\r\n\r\n\r\n  // ------------------------------------------------------------------------\r\n  // Transfer the balance from token owner's account to `to` account\r\n  // - Owner's account must have sufficient balance to transfer\r\n  // ------------------------------------------------------------------------\r\n  function transfer(address to, uint tokens) public returns (bool success) {\r\n    require(balances[msg.sender] >= tokens);\r\n    balances[msg.sender] = balances[msg.sender].sub(tokens);\r\n    balances[to] = balances[to].add(tokens);\r\n    emit Transfer(msg.sender, to, tokens);\r\n    return true;\r\n  }\r\n\r\n  // ------------------------------------------------------------------------\r\n  // Token owner can approve for `spender` to transferFrom(...) `tokens`\r\n  // from the token owner's account\r\n  // ------------------------------------------------------------------------\r\n  function approve(address spender, uint tokens) public returns (bool success) {\r\n    allowed[msg.sender][spender] = tokens;\r\n    emit Approval(msg.sender, spender, tokens);\r\n    return true;\r\n  }\r\n\r\n  // ------------------------------------------------------------------------\r\n  // Transfer `tokens` from the `from` account to the `to` account\r\n  // ------------------------------------------------------------------------\r\n  function transferFrom(address from, address to, uint tokens) public returns (bool success) {\r\n    uint256 allowance = allowed[from][msg.sender];\r\n    require(balances[from] >= tokens && allowance >= tokens);\r\n\r\n    balances[from] = balances[from].sub(tokens);\r\n    allowed[from][msg.sender] = allowed[from][msg.sender].sub(tokens);\r\n    balances[to] = balances[to].add(tokens);\r\n    emit Transfer(from, to, tokens);\r\n    return true;\r\n  }\r\n\r\n\r\n  // ------------------------------------------------------------------------\r\n  // Returns the amount of tokens approved by the owner that can be\r\n  // transferred to the spender's account\r\n  // ------------------------------------------------------------------------\r\n  function allowance(address tokenOwner, address spender) public view returns (uint remaining) {\r\n    return allowed[tokenOwner][spender];\r\n  }\r\n\r\n  // ------------------------------------------------------------------------\r\n  //  New Token Issuing\r\n  // ------------------------------------------------------------------------\r\n  function issueTokens(uint amount) public returns (bool success) {\r\n    require(msg.sender == owner);\r\n    if (newIssue) {\r\n      balances[owner] = balances[owner].add(amount);\r\n      totalQuantitySupply = totalQuantitySupply.add(amount);\r\n      emit Transfer(address(0), owner, amount);\r\n      } else {\r\n        revert();\r\n      }\r\n\r\n      return true;\r\n    }\r\n\r\n}",
  "sourcePath": "C:\\Users\\Alberto\\Desktop\\work\\bluetensor\\ethereum-smart-contracts\\contracts\\WelCoin.sol",
  "compiler": {
    "name": "solc",
    "version": "0.5.0+commit.1d4f565a.Emscripten.clang"
  },
  "schemaVersion": "3.0.1",
  "updatedAt": "2019-02-02T13:55:23.100Z",
  "devdoc": {
    "methods": {}
  },
  "userdoc": {
    "methods": {}
  }
}