{
  "contractName": "WelCoin",
  "abi": [
    {
      "constant": true,
      "inputs": [],
      "name": "name",
      "outputs": [
        {
          "name": "",
          "type": "string"
        }
      ],
      "payable": false,
      "stateMutability": "view",
      "type": "function"
    },
    {
      "constant": true,
      "inputs": [],
      "name": "decimals",
      "outputs": [
        {
          "name": "",
          "type": "uint256"
        }
      ],
      "payable": false,
      "stateMutability": "view",
      "type": "function"
    },
    {
      "constant": false,
      "inputs": [],
      "name": "acceptOwnership",
      "outputs": [],
      "payable": false,
      "stateMutability": "nonpayable",
      "type": "function"
    },
    {
      "constant": true,
      "inputs": [],
      "name": "stepsTokenRate",
      "outputs": [
        {
          "name": "",
          "type": "uint256"
        }
      ],
      "payable": false,
      "stateMutability": "view",
      "type": "function"
    },
    {
      "constant": true,
      "inputs": [],
      "name": "owner",
      "outputs": [
        {
          "name": "",
          "type": "address"
        }
      ],
      "payable": false,
      "stateMutability": "view",
      "type": "function"
    },
    {
      "constant": true,
      "inputs": [],
      "name": "symbol",
      "outputs": [
        {
          "name": "",
          "type": "string"
        }
      ],
      "payable": false,
      "stateMutability": "view",
      "type": "function"
    },
    {
      "constant": true,
      "inputs": [],
      "name": "contract_address",
      "outputs": [
        {
          "name": "",
          "type": "address"
        }
      ],
      "payable": false,
      "stateMutability": "view",
      "type": "function"
    },
    {
      "constant": true,
      "inputs": [],
      "name": "newIssue",
      "outputs": [
        {
          "name": "",
          "type": "bool"
        }
      ],
      "payable": false,
      "stateMutability": "view",
      "type": "function"
    },
    {
      "constant": true,
      "inputs": [],
      "name": "isRateActive",
      "outputs": [
        {
          "name": "",
          "type": "bool"
        }
      ],
      "payable": false,
      "stateMutability": "view",
      "type": "function"
    },
    {
      "constant": true,
      "inputs": [],
      "name": "newOwner",
      "outputs": [
        {
          "name": "",
          "type": "address"
        }
      ],
      "payable": false,
      "stateMutability": "view",
      "type": "function"
    },
    {
      "constant": false,
      "inputs": [
        {
          "name": "_newOwner",
          "type": "address"
        }
      ],
      "name": "transferOwnership",
      "outputs": [],
      "payable": false,
      "stateMutability": "nonpayable",
      "type": "function"
    },
    {
      "inputs": [
        {
          "name": "initialName",
          "type": "string"
        },
        {
          "name": "initalSymbol",
          "type": "string"
        },
        {
          "name": "initialSupply",
          "type": "uint256"
        },
        {
          "name": "initialStepsTokenRate",
          "type": "uint256"
        },
        {
          "name": "initialDecimals",
          "type": "uint256"
        },
        {
          "name": "initialIsRateActive",
          "type": "bool"
        },
        {
          "name": "initialNewIssue",
          "type": "bool"
        }
      ],
      "payable": false,
      "stateMutability": "nonpayable",
      "type": "constructor"
    },
    {
      "anonymous": false,
      "inputs": [
        {
          "indexed": true,
          "name": "_from",
          "type": "address"
        },
        {
          "indexed": true,
          "name": "_to",
          "type": "address"
        }
      ],
      "name": "OwnershipTransferred",
      "type": "event"
    },
    {
      "anonymous": false,
      "inputs": [
        {
          "indexed": true,
          "name": "from",
          "type": "address"
        },
        {
          "indexed": true,
          "name": "to",
          "type": "address"
        },
        {
          "indexed": false,
          "name": "tokens",
          "type": "uint256"
        }
      ],
      "name": "Transfer",
      "type": "event"
    },
    {
      "anonymous": false,
      "inputs": [
        {
          "indexed": true,
          "name": "tokenOwner",
          "type": "address"
        },
        {
          "indexed": true,
          "name": "spender",
          "type": "address"
        },
        {
          "indexed": false,
          "name": "tokens",
          "type": "uint256"
        }
      ],
      "name": "Approval",
      "type": "event"
    },
    {
      "constant": true,
      "inputs": [
        {
          "name": "tokenOwner",
          "type": "address"
        }
      ],
      "name": "balanceOf",
      "outputs": [
        {
          "name": "balance",
          "type": "uint256"
        }
      ],
      "payable": false,
      "stateMutability": "view",
      "type": "function"
    },
    {
      "constant": true,
      "inputs": [],
      "name": "balanceOfOwner",
      "outputs": [
        {
          "name": "balance",
          "type": "uint256"
        }
      ],
      "payable": false,
      "stateMutability": "view",
      "type": "function"
    },
    {
      "constant": true,
      "inputs": [],
      "name": "totalSupply",
      "outputs": [
        {
          "name": "supply",
          "type": "uint256"
        }
      ],
      "payable": false,
      "stateMutability": "view",
      "type": "function"
    },
    {
      "constant": true,
      "inputs": [],
      "name": "contractBalance",
      "outputs": [
        {
          "name": "balance",
          "type": "uint256"
        }
      ],
      "payable": false,
      "stateMutability": "view",
      "type": "function"
    },
    {
      "constant": true,
      "inputs": [],
      "name": "getData",
      "outputs": [
        {
          "name": "nameData",
          "type": "string"
        },
        {
          "name": "symbolData",
          "type": "string"
        },
        {
          "name": "totalSupplyData",
          "type": "uint256"
        },
        {
          "name": "stepsTokenRateData",
          "type": "uint256"
        },
        {
          "name": "isRateActiveData",
          "type": "bool"
        },
        {
          "name": "newIssueData",
          "type": "bool"
        }
      ],
      "payable": false,
      "stateMutability": "view",
      "type": "function"
    },
    {
      "constant": false,
      "inputs": [],
      "name": "depositExchangedEther",
      "outputs": [
        {
          "name": "success",
          "type": "bool"
        }
      ],
      "payable": true,
      "stateMutability": "payable",
      "type": "function"
    },
    {
      "constant": false,
      "inputs": [
        {
          "name": "steps",
          "type": "uint256"
        }
      ],
      "name": "depositTokenSteps",
      "outputs": [
        {
          "name": "success",
          "type": "bool"
        }
      ],
      "payable": true,
      "stateMutability": "payable",
      "type": "function"
    },
    {
      "constant": false,
      "inputs": [
        {
          "name": "to",
          "type": "address"
        },
        {
          "name": "tokens",
          "type": "uint256"
        }
      ],
      "name": "transfer",
      "outputs": [
        {
          "name": "success",
          "type": "bool"
        }
      ],
      "payable": false,
      "stateMutability": "nonpayable",
      "type": "function"
    },
    {
      "constant": false,
      "inputs": [
        {
          "name": "spender",
          "type": "address"
        },
        {
          "name": "tokens",
          "type": "uint256"
        }
      ],
      "name": "approve",
      "outputs": [
        {
          "name": "success",
          "type": "bool"
        }
      ],
      "payable": false,
      "stateMutability": "nonpayable",
      "type": "function"
    },
    {
      "constant": false,
      "inputs": [
        {
          "name": "from",
          "type": "address"
        },
        {
          "name": "to",
          "type": "address"
        },
        {
          "name": "tokens",
          "type": "uint256"
        }
      ],
      "name": "transferFrom",
      "outputs": [
        {
          "name": "success",
          "type": "bool"
        }
      ],
      "payable": false,
      "stateMutability": "nonpayable",
      "type": "function"
    },
    {
      "constant": true,
      "inputs": [
        {
          "name": "tokenOwner",
          "type": "address"
        },
        {
          "name": "spender",
          "type": "address"
        }
      ],
      "name": "allowance",
      "outputs": [
        {
          "name": "remaining",
          "type": "uint256"
        }
      ],
      "payable": false,
      "stateMutability": "view",
      "type": "function"
    },
    {
      "constant": false,
      "inputs": [
        {
          "name": "amount",
          "type": "uint256"
        }
      ],
      "name": "issueTokens",
      "outputs": [
        {
          "name": "success",
          "type": "bool"
        }
      ],
      "payable": false,
      "stateMutability": "nonpayable",
      "type": "function"
    }
  ],
  "bytecode": "0x60806040523480156200001157600080fd5b50604051620020a0380380620020a083398101806040528101908080518201929190602001805182019291906020018051906020019092919080519060200190929190805190602001909291908051906020019092919080519060200190929190505050336000806101000a81548173ffffffffffffffffffffffffffffffffffffffff021916908373ffffffffffffffffffffffffffffffffffffffff1602179055508660029080519060200190620000cd92919062000273565b508560039080519060200190620000e692919062000273565b508260058190555082600a0a85026004819055508360068190555081600760006101000a81548160ff02191690831515021790555080600760016101000a81548160ff02191690831515021790555030600760026101000a81548173ffffffffffffffffffffffffffffffffffffffff021916908373ffffffffffffffffffffffffffffffffffffffff160217905550600454600860008060009054906101000a900473ffffffffffffffffffffffffffffffffffffffff1673ffffffffffffffffffffffffffffffffffffffff1673ffffffffffffffffffffffffffffffffffffffff168152602001908152602001600020819055506000809054906101000a900473ffffffffffffffffffffffffffffffffffffffff1673ffffffffffffffffffffffffffffffffffffffff16600073ffffffffffffffffffffffffffffffffffffffff167fddf252ad1be2c89b69c2b068fc378daa952ba7f163c4a11628f55a4df523b3ef6004546040518082815260200191505060405180910390a35050505050505062000322565b828054600181600116156101000203166002900490600052602060002090601f016020900481019282601f10620002b657805160ff1916838001178555620002e7565b82800160010185558215620002e7579182015b82811115620002e6578251825591602001919060010190620002c9565b5b509050620002f69190620002fa565b5090565b6200031f91905b808211156200031b57600081600090555060010162000301565b5090565b90565b611d6e80620003326000396000f300608060405260043610610133576000357c0100000000000000000000000000000000000000000000000000000000900463ffffffff16806306fdde0314610138578063095ea7b3146101c857806318160ddd1461022d57806323b872dd14610258578063313ce567146102dd5780633bc5de30146103085780634975d202146104285780636d7387a11461045357806370a082311461047557806379ba5097146104cc57806379f1605e146104e35780638b7afe2e1461050e5780638bec27e5146105395780638da5cb5b1461057157806395d89b41146105c8578063966b3514146106585780639c16d82c146106af578063a5820daa146106de578063a9059cbb14610723578063c8ade11414610788578063d4ee1d90146107b7578063dd62ed3e1461080e578063f2fde38b14610885575b600080fd5b34801561014457600080fd5b5061014d6108c8565b6040518080602001828103825283818151815260200191508051906020019080838360005b8381101561018d578082015181840152602081019050610172565b50505050905090810190601f1680156101ba5780820380516001836020036101000a031916815260200191505b509250505060405180910390f35b3480156101d457600080fd5b50610213600480360381019080803573ffffffffffffffffffffffffffffffffffffffff16906020019092919080359060200190929190505050610966565b604051808215151515815260200191505060405180910390f35b34801561023957600080fd5b50610242610a58565b6040518082815260200191505060405180910390f35b34801561026457600080fd5b506102c3600480360381019080803573ffffffffffffffffffffffffffffffffffffffff169060200190929190803573ffffffffffffffffffffffffffffffffffffffff16906020019092919080359060200190929190505050610a62565b604051808215151515815260200191505060405180910390f35b3480156102e957600080fd5b506102f2610de8565b6040518082815260200191505060405180910390f35b34801561031457600080fd5b5061031d610dee565b6040518080602001806020018781526020018681526020018515151515815260200184151515158152602001838103835289818151815260200191508051906020019080838360005b83811015610381578082015181840152602081019050610366565b50505050905090810190601f1680156103ae5780820380516001836020036101000a031916815260200191505b50838103825288818151815260200191508051906020019080838360005b838110156103e75780820151818401526020810190506103cc565b50505050905090810190601f1680156104145780820380516001836020036101000a031916815260200191505b509850505050505050505060405180910390f35b34801561043457600080fd5b5061043d610f6d565b6040518082815260200191505060405180910390f35b61045b610fd5565b604051808215151515815260200191505060405180910390f35b34801561048157600080fd5b506104b6600480360381019080803573ffffffffffffffffffffffffffffffffffffffff16906020019092919050505061121e565b6040518082815260200191505060405180910390f35b3480156104d857600080fd5b506104e1611267565b005b3480156104ef57600080fd5b506104f8611406565b6040518082815260200191505060405180910390f35b34801561051a57600080fd5b5061052361140c565b6040518082815260200191505060405180910390f35b6105576004803603810190808035906020019092919050505061144d565b604051808215151515815260200191505060405180910390f35b34801561057d57600080fd5b50610586611673565b604051808273ffffffffffffffffffffffffffffffffffffffff1673ffffffffffffffffffffffffffffffffffffffff16815260200191505060405180910390f35b3480156105d457600080fd5b506105dd611698565b6040518080602001828103825283818151815260200191508051906020019080838360005b8381101561061d578082015181840152602081019050610602565b50505050905090810190601f16801561064a5780820380516001836020036101000a031916815260200191505b509250505060405180910390f35b34801561066457600080fd5b5061066d611736565b604051808273ffffffffffffffffffffffffffffffffffffffff1673ffffffffffffffffffffffffffffffffffffffff16815260200191505060405180910390f35b3480156106bb57600080fd5b506106c461175c565b604051808215151515815260200191505060405180910390f35b3480156106ea57600080fd5b506107096004803603810190808035906020019092919050505061176f565b604051808215151515815260200191505060405180910390f35b34801561072f57600080fd5b5061076e600480360381019080803573ffffffffffffffffffffffffffffffffffffffff1690602001909291908035906020019092919050505061196d565b604051808215151515815260200191505060405180910390f35b34801561079457600080fd5b5061079d611b56565b604051808215151515815260200191505060405180910390f35b3480156107c357600080fd5b506107cc611b69565b604051808273ffffffffffffffffffffffffffffffffffffffff1673ffffffffffffffffffffffffffffffffffffffff16815260200191505060405180910390f35b34801561081a57600080fd5b5061086f600480360381019080803573ffffffffffffffffffffffffffffffffffffffff169060200190929190803573ffffffffffffffffffffffffffffffffffffffff169060200190929190505050611b8f565b6040518082815260200191505060405180910390f35b34801561089157600080fd5b506108c6600480360381019080803573ffffffffffffffffffffffffffffffffffffffff169060200190929190505050611c16565b005b60028054600181600116156101000203166002900480601f01602080910402602001604051908101604052809291908181526020018280546001816001161561010002031660029004801561095e5780601f106109335761010080835404028352916020019161095e565b820191906000526020600020905b81548152906001019060200180831161094157829003601f168201915b505050505081565b600081600960003373ffffffffffffffffffffffffffffffffffffffff1673ffffffffffffffffffffffffffffffffffffffff16815260200190815260200160002060008573ffffffffffffffffffffffffffffffffffffffff1673ffffffffffffffffffffffffffffffffffffffff168152602001908152602001600020819055508273ffffffffffffffffffffffffffffffffffffffff163373ffffffffffffffffffffffffffffffffffffffff167f8c5be1e5ebec7d5bd14f71427d1e84f3dd0314c0f7b2291e5b200ac8c7c3b925846040518082815260200191505060405180910390a36001905092915050565b6000600454905090565b600080600960008673ffffffffffffffffffffffffffffffffffffffff1673ffffffffffffffffffffffffffffffffffffffff16815260200190815260200160002060003373ffffffffffffffffffffffffffffffffffffffff1673ffffffffffffffffffffffffffffffffffffffff16815260200190815260200160002054905082600860008773ffffffffffffffffffffffffffffffffffffffff1673ffffffffffffffffffffffffffffffffffffffff1681526020019081526020016000205410158015610b335750828110155b1515610b3e57600080fd5b610b9083600860008873ffffffffffffffffffffffffffffffffffffffff1673ffffffffffffffffffffffffffffffffffffffff16815260200190815260200160002054611cb590919063ffffffff16565b600860008773ffffffffffffffffffffffffffffffffffffffff1673ffffffffffffffffffffffffffffffffffffffff16815260200190815260200160002081905550610c6283600960008873ffffffffffffffffffffffffffffffffffffffff1673ffffffffffffffffffffffffffffffffffffffff16815260200190815260200160002060003373ffffffffffffffffffffffffffffffffffffffff1673ffffffffffffffffffffffffffffffffffffffff16815260200190815260200160002054611cb590919063ffffffff16565b600960008773ffffffffffffffffffffffffffffffffffffffff1673ffffffffffffffffffffffffffffffffffffffff16815260200190815260200160002060003373ffffffffffffffffffffffffffffffffffffffff1673ffffffffffffffffffffffffffffffffffffffff16815260200190815260200160002081905550610d3483600860008773ffffffffffffffffffffffffffffffffffffffff1673ffffffffffffffffffffffffffffffffffffffff16815260200190815260200160002054611cd190919063ffffffff16565b600860008673ffffffffffffffffffffffffffffffffffffffff1673ffffffffffffffffffffffffffffffffffffffff168152602001908152602001600020819055508373ffffffffffffffffffffffffffffffffffffffff168573ffffffffffffffffffffffffffffffffffffffff167fddf252ad1be2c89b69c2b068fc378daa952ba7f163c4a11628f55a4df523b3ef856040518082815260200191505060405180910390a360019150509392505050565b60055481565b60608060008060008060026003600454600654600760009054906101000a900460ff16600760019054906101000a900460ff16858054600181600116156101000203166002900480601f016020809104026020016040519081016040528092919081815260200182805460018160011615610100020316600290048015610eb65780601f10610e8b57610100808354040283529160200191610eb6565b820191906000526020600020905b815481529060010190602001808311610e9957829003601f168201915b50505050509550848054600181600116156101000203166002900480601f016020809104026020016040519081016040528092919081815260200182805460018160011615610100020316600290048015610f525780601f10610f2757610100808354040283529160200191610f52565b820191906000526020600020905b815481529060010190602001808311610f3557829003601f168201915b50505050509450955095509550955095509550909192939495565b6000600860008060009054906101000a900473ffffffffffffffffffffffffffffffffffffffff1673ffffffffffffffffffffffffffffffffffffffff1673ffffffffffffffffffffffffffffffffffffffff16815260200190815260200160002054905090565b60008060003410151515610fe857600080fd5b60011515600760009054906101000a900460ff16151514151561100a57600080fd5b61102264174876e80034611ced90919063ffffffff16565b9050600061109982600860008060009054906101000a900473ffffffffffffffffffffffffffffffffffffffff1673ffffffffffffffffffffffffffffffffffffffff1673ffffffffffffffffffffffffffffffffffffffff16815260200190815260200160002054611cb590919063ffffffff16565b1015156112115761111381600860008060009054906101000a900473ffffffffffffffffffffffffffffffffffffffff1673ffffffffffffffffffffffffffffffffffffffff1673ffffffffffffffffffffffffffffffffffffffff16815260200190815260200160002054611cb590919063ffffffff16565b600860008060009054906101000a900473ffffffffffffffffffffffffffffffffffffffff1673ffffffffffffffffffffffffffffffffffffffff1673ffffffffffffffffffffffffffffffffffffffff168152602001908152602001600020819055506111c981600860003373ffffffffffffffffffffffffffffffffffffffff1673ffffffffffffffffffffffffffffffffffffffff16815260200190815260200160002054611cd190919063ffffffff16565b600860003373ffffffffffffffffffffffffffffffffffffffff1673ffffffffffffffffffffffffffffffffffffffff16815260200190815260200160002081905550611216565b600080fd5b600191505090565b6000600860008373ffffffffffffffffffffffffffffffffffffffff1673ffffffffffffffffffffffffffffffffffffffff168152602001908152602001600020549050919050565b600160009054906101000a900473ffffffffffffffffffffffffffffffffffffffff1673ffffffffffffffffffffffffffffffffffffffff163373ffffffffffffffffffffffffffffffffffffffff161415156112c357600080fd5b600160009054906101000a900473ffffffffffffffffffffffffffffffffffffffff1673ffffffffffffffffffffffffffffffffffffffff166000809054906101000a900473ffffffffffffffffffffffffffffffffffffffff1673ffffffffffffffffffffffffffffffffffffffff167f8be0079c531659141344cd1fd0a4f28419497f9722a3daafe3b4186f6b6457e060405160405180910390a3600160009054906101000a900473ffffffffffffffffffffffffffffffffffffffff166000806101000a81548173ffffffffffffffffffffffffffffffffffffffff021916908373ffffffffffffffffffffffffffffffffffffffff1602179055506000600160006101000a81548173ffffffffffffffffffffffffffffffffffffffff021916908373ffffffffffffffffffffffffffffffffffffffff160217905550565b60065481565b6000600760029054906101000a900473ffffffffffffffffffffffffffffffffffffffff1673ffffffffffffffffffffffffffffffffffffffff1631905090565b6000806000831015151561146057600080fd5b61147560065484611d1190919063ffffffff16565b905060006114ec82600860008060009054906101000a900473ffffffffffffffffffffffffffffffffffffffff1673ffffffffffffffffffffffffffffffffffffffff1673ffffffffffffffffffffffffffffffffffffffff16815260200190815260200160002054611cb590919063ffffffff16565b1015156116645761156681600860008060009054906101000a900473ffffffffffffffffffffffffffffffffffffffff1673ffffffffffffffffffffffffffffffffffffffff1673ffffffffffffffffffffffffffffffffffffffff16815260200190815260200160002054611cb590919063ffffffff16565b600860008060009054906101000a900473ffffffffffffffffffffffffffffffffffffffff1673ffffffffffffffffffffffffffffffffffffffff1673ffffffffffffffffffffffffffffffffffffffff1681526020019081526020016000208190555061161c81600860003373ffffffffffffffffffffffffffffffffffffffff1673ffffffffffffffffffffffffffffffffffffffff16815260200190815260200160002054611cd190919063ffffffff16565b600860003373ffffffffffffffffffffffffffffffffffffffff1673ffffffffffffffffffffffffffffffffffffffff16815260200190815260200160002081905550611669565b600080fd5b6001915050919050565b6000809054906101000a900473ffffffffffffffffffffffffffffffffffffffff1681565b60038054600181600116156101000203166002900480601f01602080910402602001604051908101604052809291908181526020018280546001816001161561010002031660029004801561172e5780601f106117035761010080835404028352916020019161172e565b820191906000526020600020905b81548152906001019060200180831161171157829003601f168201915b505050505081565b600760029054906101000a900473ffffffffffffffffffffffffffffffffffffffff1681565b600760019054906101000a900460ff1681565b60008060009054906101000a900473ffffffffffffffffffffffffffffffffffffffff1673ffffffffffffffffffffffffffffffffffffffff163373ffffffffffffffffffffffffffffffffffffffff161415156117cc57600080fd5b600760019054906101000a900460ff161561195f5761185482600860008060009054906101000a900473ffffffffffffffffffffffffffffffffffffffff1673ffffffffffffffffffffffffffffffffffffffff1673ffffffffffffffffffffffffffffffffffffffff16815260200190815260200160002054611cd190919063ffffffff16565b600860008060009054906101000a900473ffffffffffffffffffffffffffffffffffffffff1673ffffffffffffffffffffffffffffffffffffffff1673ffffffffffffffffffffffffffffffffffffffff168152602001908152602001600020819055506118cd82600454611cd190919063ffffffff16565b6004819055506000809054906101000a900473ffffffffffffffffffffffffffffffffffffffff1673ffffffffffffffffffffffffffffffffffffffff16600073ffffffffffffffffffffffffffffffffffffffff167fddf252ad1be2c89b69c2b068fc378daa952ba7f163c4a11628f55a4df523b3ef846040518082815260200191505060405180910390a3611964565b600080fd5b60019050919050565b600081600860003373ffffffffffffffffffffffffffffffffffffffff1673ffffffffffffffffffffffffffffffffffffffff16815260200190815260200160002054101515156119bd57600080fd5b611a0f82600860003373ffffffffffffffffffffffffffffffffffffffff1673ffffffffffffffffffffffffffffffffffffffff16815260200190815260200160002054611cb590919063ffffffff16565b600860003373ffffffffffffffffffffffffffffffffffffffff1673ffffffffffffffffffffffffffffffffffffffff16815260200190815260200160002081905550611aa482600860008673ffffffffffffffffffffffffffffffffffffffff1673ffffffffffffffffffffffffffffffffffffffff16815260200190815260200160002054611cd190919063ffffffff16565b600860008573ffffffffffffffffffffffffffffffffffffffff1673ffffffffffffffffffffffffffffffffffffffff168152602001908152602001600020819055508273ffffffffffffffffffffffffffffffffffffffff163373ffffffffffffffffffffffffffffffffffffffff167fddf252ad1be2c89b69c2b068fc378daa952ba7f163c4a11628f55a4df523b3ef846040518082815260200191505060405180910390a36001905092915050565b600760009054906101000a900460ff1681565b600160009054906101000a900473ffffffffffffffffffffffffffffffffffffffff1681565b6000600960008473ffffffffffffffffffffffffffffffffffffffff1673ffffffffffffffffffffffffffffffffffffffff16815260200190815260200160002060008373ffffffffffffffffffffffffffffffffffffffff1673ffffffffffffffffffffffffffffffffffffffff16815260200190815260200160002054905092915050565b6000809054906101000a900473ffffffffffffffffffffffffffffffffffffffff1673ffffffffffffffffffffffffffffffffffffffff163373ffffffffffffffffffffffffffffffffffffffff16141515611c7157600080fd5b80600160006101000a81548173ffffffffffffffffffffffffffffffffffffffff021916908373ffffffffffffffffffffffffffffffffffffffff16021790555050565b6000828211151515611cc657600080fd5b818303905092915050565b60008183019050828110151515611ce757600080fd5b92915050565b60008082111515611cfd57600080fd5b8183811515611d0857fe5b04905092915050565b600081830290506000831480611d315750818382811515611d2e57fe5b04145b1515611d3c57600080fd5b929150505600a165627a7a72305820544a5eec6abae463d5be404fdbeb40bd477450abdc0fe39892e04cf01a6ea0e90029",
  "source": "pragma solidity ^0.4.18;\r\n\r\n// ----------------------------------------------------------------------------\r\n//  WELLCOIN implementation\r\n//  based on ERC20 Token\r\n//  https://theethereum.wiki/w/index.php/ERC20_Token_Standard \r\n//  Created by: Alberto Carbognin\r\n// ----------------------------------------------------------------------------\r\n\r\n\r\n// ----------------------------------------------------------------------------\r\n// Safe maths\r\n// ----------------------------------------------------------------------------\r\nlibrary SafeMath {\r\n    function add(uint a, uint b) internal pure returns (uint c) {\r\n        c = a + b;\r\n        require(c >= a);\r\n    }\r\n    function sub(uint a, uint b) internal pure returns (uint c) {\r\n        require(b <= a);\r\n        c = a - b;\r\n    }\r\n    function mul(uint a, uint b) internal pure returns (uint c) {\r\n        c = a * b;\r\n        require(a == 0 || c / a == b);\r\n    }\r\n    function div(uint a, uint b) internal pure returns (uint c) {\r\n        require(b > 0);\r\n        c = a / b;\r\n    }\r\n}\r\n\r\n// ----------------------------------------------------------------------------\r\n// Owned contract\r\n// ----------------------------------------------------------------------------\r\ncontract Owned {\r\n    address public owner;\r\n    address public newOwner;\r\n\r\n    event OwnershipTransferred(address indexed _from, address indexed _to);\r\n\r\n    constructor() public {\r\n        owner = msg.sender;\r\n    }\r\n\r\n    modifier onlyOwner {\r\n        require(msg.sender == owner);\r\n        _;\r\n    }\r\n\r\n    function transferOwnership(address _newOwner) public onlyOwner {\r\n        newOwner = _newOwner;\r\n    }\r\n    function acceptOwnership() public {\r\n        require(msg.sender == newOwner);\r\n        emit OwnershipTransferred(owner, newOwner);\r\n        owner = newOwner;\r\n        newOwner = address(0);\r\n    }\r\n}\r\n\r\n\r\n// ----------------------------------------------------------------------------\r\n//  ERC20 Interface\r\n// ----------------------------------------------------------------------------\r\ncontract ERC20Interface {\r\n    function totalSupply() public constant returns (uint);\r\n    function balanceOf(address tokenOwner) public constant returns (uint balance);\r\n    function allowance(address tokenOwner, address spender) public constant returns (uint remaining);\r\n    function transfer(address to, uint tokens) public returns (bool success);\r\n    function approve(address spender, uint tokens) public returns (bool success);\r\n    function transferFrom(address from, address to, uint tokens) public returns (bool success);\r\n\r\n    //events to track operations in real time\r\n    //indexed is needed in order to find events using indexed parameters as filter\r\n    event Transfer(address indexed from, address indexed to, uint tokens);\r\n    event Approval(address indexed tokenOwner, address indexed spender, uint tokens);\r\n}\r\n\r\n// ----------------------------------------------------------------------------\r\n//  Official Implementation\r\n// ----------------------------------------------------------------------------\r\n\r\ncontract WelCoin is ERC20Interface, Owned {\r\n  //importing library for safe math operations\r\n  using SafeMath for uint;\r\n\r\n  //Describing Contract basic informations\r\n  string public name;\r\n  string public symbol;\r\n  uint public totalSupply;\r\n  uint public decimals;\r\n  uint public stepsTokenRate;\r\n  bool public isRateActive;\r\n  bool public newIssue;\r\n  address public contract_address;\r\n\r\n  //Building Dictionary for Balances Account\r\n  mapping(address => uint) balances;\r\n  //Building Dictionary for allowance per account\r\n  //the first address allows to pay second address of uint amount\r\n  mapping(address => mapping(address => uint)) allowed;\r\n\r\n\r\n  //Constructor\r\n  constructor(\r\n    string initialName,\r\n    string initalSymbol,\r\n    uint initialSupply,\r\n    uint initialStepsTokenRate,\r\n    uint initialDecimals,\r\n    bool initialIsRateActive,\r\n    bool initialNewIssue\r\n    ) public {\r\n      name = initialName;\r\n      symbol = initalSymbol;\r\n      decimals = initialDecimals;\r\n      totalSupply = initialSupply * 10**uint(initialDecimals);\r\n      stepsTokenRate = initialStepsTokenRate;\r\n      isRateActive = initialIsRateActive;\r\n      newIssue = initialNewIssue;\r\n      contract_address = this; //this cointains contract's address information\r\n\r\n      //updating initial balances\r\n      balances[owner] = totalSupply;\r\n\r\n      //fire up Transfer event\r\n      emit Transfer(address(0), owner, totalSupply);\r\n  }\r\n\r\n  //return the balance of a Token Owner\r\n  function balanceOf(address tokenOwner) public constant returns(uint balance) {\r\n    return balances[tokenOwner];\r\n  }\r\n\r\n  //return the balance of Owner\r\n  function balanceOfOwner() public constant returns(uint balance) {\r\n    return balances[owner];\r\n  }\r\n\r\n  function totalSupply() public constant returns(uint supply) {\r\n    return totalSupply;\r\n  }\r\n\r\n  //return balance of the contract \r\n  function contractBalance() public constant returns(uint balance) {\r\n    return contract_address.balance;\r\n  }\r\n\r\n  //return parameters\r\n  function getData() public constant returns(\r\n    string nameData,\r\n    string symbolData,\r\n    uint totalSupplyData,\r\n    uint stepsTokenRateData,\r\n    bool isRateActiveData,\r\n    bool newIssueData\r\n    ) {\r\n    return (name, symbol, totalSupply, stepsTokenRate, isRateActive, newIssue);\r\n  }\r\n\r\n  //deposit ether as token\r\n  function depositExchangedEther() public payable returns(bool success){\r\n    require(msg.value >= 0);\r\n    require(isRateActive == true);\r\n\r\n    //user is using etherTokenExchange rate\r\n    // 1 to change\r\n    uint exchangableToken = msg.value.div(10**11);\r\n\r\n    if (balances[owner].sub(exchangableToken) >= 0) {\r\n\r\n      //write transfer function\r\n      balances[owner] = balances[owner].sub(exchangableToken);\r\n      balances[msg.sender] = balances[msg.sender].add(exchangableToken);\r\n      //only for demo purpose\r\n      //owner.transfer(contract_address.balance); //gas used 2300\r\n\r\n    } else {\r\n\r\n      revert();\r\n    }\r\n\r\n    return true;\r\n    \r\n  }\r\n\r\n  //Step to token assign\r\n  function depositTokenSteps(uint steps) public payable returns(bool success){\r\n\r\n    require (steps >= 0);\r\n\r\n    //user is using etherTokenExchange rate\r\n    uint exchangableToken = steps.mul(stepsTokenRate);\r\n\r\n    if (balances[owner].sub(exchangableToken) >= 0) {\r\n\r\n      //write transfer function\r\n      balances[owner] = balances[owner].sub(exchangableToken);\r\n      balances[msg.sender] = balances[msg.sender].add(exchangableToken);\r\n\r\n    } else {\r\n      revert();\r\n    }\r\n\r\n    return true;\r\n    \r\n  }\r\n\r\n  // ------------------------------------------------------------------------\r\n  // Transfer the balance from token owner's account to `to` account\r\n  // - Owner's account must have sufficient balance to transfer\r\n  // ------------------------------------------------------------------------\r\n  function transfer(address to, uint tokens) public returns (bool success) {\r\n      require(balances[msg.sender] >= tokens);\r\n      balances[msg.sender] = balances[msg.sender].sub(tokens);\r\n      balances[to] = balances[to].add(tokens);\r\n      emit Transfer(msg.sender, to, tokens);\r\n      return true;\r\n  }\r\n\r\n  // ------------------------------------------------------------------------\r\n  // Token owner can approve for `spender` to transferFrom(...) `tokens`\r\n  // from the token owner's account\r\n  // ------------------------------------------------------------------------\r\n  function approve(address spender, uint tokens) public returns (bool success) {\r\n      allowed[msg.sender][spender] = tokens;\r\n      emit Approval(msg.sender, spender, tokens);\r\n      return true;\r\n  }\r\n\r\n  // ------------------------------------------------------------------------\r\n  // Transfer `tokens` from the `from` account to the `to` account\r\n  // ------------------------------------------------------------------------\r\n  function transferFrom(address from, address to, uint tokens) public returns (bool success) {\r\n      uint256 allowance = allowed[from][msg.sender];\r\n      require(balances[from] >= tokens && allowance >= tokens);\r\n\r\n      balances[from] = balances[from].sub(tokens);\r\n      allowed[from][msg.sender] = allowed[from][msg.sender].sub(tokens);\r\n      balances[to] = balances[to].add(tokens);\r\n      emit Transfer(from, to, tokens);\r\n      return true;\r\n  }\r\n\r\n\r\n  // ------------------------------------------------------------------------\r\n  // Returns the amount of tokens approved by the owner that can be\r\n  // transferred to the spender's account\r\n  // ------------------------------------------------------------------------\r\n  function allowance(address tokenOwner, address spender) public constant returns (uint remaining) {\r\n      return allowed[tokenOwner][spender];\r\n  }\r\n\r\n  // ------------------------------------------------------------------------\r\n  //  New Token Issuing\r\n  // ------------------------------------------------------------------------\r\n  function issueTokens(uint amount) public returns (bool success) {\r\n      require(msg.sender == owner);\r\n      if (newIssue) {\r\n        balances[owner] = balances[owner].add(amount);\r\n        totalSupply = totalSupply.add(amount);\r\n        emit Transfer(address(0), owner, amount);\r\n      } else {\r\n        revert();\r\n      }\r\n\r\n      return true;\r\n  }\r\n\r\n}",
  "sourcePath": "C:\\Users\\Alberto\\Desktop\\Tirocinio\\SmartContract\\smartcontractdemo\\contracts\\WelCoin.sol",
  "compiler": {
    "name": "solc",
    "version": "0.4.23+commit.124ca40d.Emscripten.clang"
  },
  "schemaVersion": "2.0.0",
  "updatedAt": "2018-05-03T13:06:34.556Z"
}