{
  "contractName": "WelCoin",
  "abi": [
    {
      "constant": true,
      "inputs": [],
      "name": "name",
      "outputs": [
        {
          "name": "",
          "type": "string"
        }
      ],
      "payable": false,
      "stateMutability": "view",
      "type": "function"
    },
    {
      "constant": true,
      "inputs": [],
      "name": "decimals",
      "outputs": [
        {
          "name": "",
          "type": "uint256"
        }
      ],
      "payable": false,
      "stateMutability": "view",
      "type": "function"
    },
    {
      "constant": false,
      "inputs": [],
      "name": "acceptOwnership",
      "outputs": [],
      "payable": false,
      "stateMutability": "nonpayable",
      "type": "function"
    },
    {
      "constant": true,
      "inputs": [],
      "name": "stepsTokenRate",
      "outputs": [
        {
          "name": "",
          "type": "uint256"
        }
      ],
      "payable": false,
      "stateMutability": "view",
      "type": "function"
    },
    {
      "constant": true,
      "inputs": [],
      "name": "owner",
      "outputs": [
        {
          "name": "",
          "type": "address"
        }
      ],
      "payable": false,
      "stateMutability": "view",
      "type": "function"
    },
    {
      "constant": true,
      "inputs": [],
      "name": "symbol",
      "outputs": [
        {
          "name": "",
          "type": "string"
        }
      ],
      "payable": false,
      "stateMutability": "view",
      "type": "function"
    },
    {
      "constant": true,
      "inputs": [],
      "name": "contract_address",
      "outputs": [
        {
          "name": "",
          "type": "address"
        }
      ],
      "payable": false,
      "stateMutability": "view",
      "type": "function"
    },
    {
      "constant": true,
      "inputs": [],
      "name": "newIssue",
      "outputs": [
        {
          "name": "",
          "type": "bool"
        }
      ],
      "payable": false,
      "stateMutability": "view",
      "type": "function"
    },
    {
      "constant": true,
      "inputs": [],
      "name": "isRateActive",
      "outputs": [
        {
          "name": "",
          "type": "bool"
        }
      ],
      "payable": false,
      "stateMutability": "view",
      "type": "function"
    },
    {
      "constant": true,
      "inputs": [],
      "name": "newOwner",
      "outputs": [
        {
          "name": "",
          "type": "address"
        }
      ],
      "payable": false,
      "stateMutability": "view",
      "type": "function"
    },
    {
      "constant": false,
      "inputs": [
        {
          "name": "_newOwner",
          "type": "address"
        }
      ],
      "name": "transferOwnership",
      "outputs": [],
      "payable": false,
      "stateMutability": "nonpayable",
      "type": "function"
    },
    {
      "inputs": [
        {
          "name": "initialName",
          "type": "string"
        },
        {
          "name": "initalSymbol",
          "type": "string"
        },
        {
          "name": "initialSupply",
          "type": "uint256"
        },
        {
          "name": "initialStepsTokenRate",
          "type": "uint256"
        },
        {
          "name": "initialDecimals",
          "type": "uint256"
        },
        {
          "name": "initialIsRateActive",
          "type": "bool"
        },
        {
          "name": "initialNewIssue",
          "type": "bool"
        }
      ],
      "payable": false,
      "stateMutability": "nonpayable",
      "type": "constructor"
    },
    {
      "anonymous": false,
      "inputs": [
        {
          "indexed": true,
          "name": "_from",
          "type": "address"
        },
        {
          "indexed": true,
          "name": "_to",
          "type": "address"
        }
      ],
      "name": "OwnershipTransferred",
      "type": "event"
    },
    {
      "anonymous": false,
      "inputs": [
        {
          "indexed": true,
          "name": "from",
          "type": "address"
        },
        {
          "indexed": true,
          "name": "to",
          "type": "address"
        },
        {
          "indexed": false,
          "name": "tokens",
          "type": "uint256"
        }
      ],
      "name": "Transfer",
      "type": "event"
    },
    {
      "anonymous": false,
      "inputs": [
        {
          "indexed": true,
          "name": "tokenOwner",
          "type": "address"
        },
        {
          "indexed": true,
          "name": "spender",
          "type": "address"
        },
        {
          "indexed": false,
          "name": "tokens",
          "type": "uint256"
        }
      ],
      "name": "Approval",
      "type": "event"
    },
    {
      "constant": true,
      "inputs": [
        {
          "name": "tokenOwner",
          "type": "address"
        }
      ],
      "name": "balanceOf",
      "outputs": [
        {
          "name": "balance",
          "type": "uint256"
        }
      ],
      "payable": false,
      "stateMutability": "view",
      "type": "function"
    },
    {
      "constant": true,
      "inputs": [],
      "name": "balanceOfOwner",
      "outputs": [
        {
          "name": "balance",
          "type": "uint256"
        }
      ],
      "payable": false,
      "stateMutability": "view",
      "type": "function"
    },
    {
      "constant": true,
      "inputs": [],
      "name": "totalSupply",
      "outputs": [
        {
          "name": "supply",
          "type": "uint256"
        }
      ],
      "payable": false,
      "stateMutability": "view",
      "type": "function"
    },
    {
      "constant": true,
      "inputs": [],
      "name": "contractBalance",
      "outputs": [
        {
          "name": "balance",
          "type": "uint256"
        }
      ],
      "payable": false,
      "stateMutability": "view",
      "type": "function"
    },
    {
      "constant": false,
      "inputs": [
        {
          "name": "challengeName",
          "type": "string"
        },
        {
          "name": "challengeDescription",
          "type": "string"
        },
        {
          "name": "challengePrize",
          "type": "uint256"
        },
        {
          "name": "challengeFee",
          "type": "uint256"
        },
        {
          "name": "challengeTarget",
          "type": "uint256"
        },
        {
          "name": "challengeTargetDescription",
          "type": "string"
        }
      ],
      "name": "deployChallenge",
      "outputs": [
        {
          "name": "success",
          "type": "bool"
        }
      ],
      "payable": false,
      "stateMutability": "nonpayable",
      "type": "function"
    },
    {
      "constant": false,
      "inputs": [
        {
          "name": "challengeOwner",
          "type": "address"
        }
      ],
      "name": "challengeAddress",
      "outputs": [
        {
          "name": "challenge",
          "type": "address"
        }
      ],
      "payable": false,
      "stateMutability": "nonpayable",
      "type": "function"
    },
    {
      "constant": false,
      "inputs": [],
      "name": "prizeIssue",
      "outputs": [
        {
          "name": "success",
          "type": "bool"
        }
      ],
      "payable": false,
      "stateMutability": "nonpayable",
      "type": "function"
    },
    {
      "constant": true,
      "inputs": [],
      "name": "getWinner",
      "outputs": [
        {
          "name": "winner",
          "type": "address"
        }
      ],
      "payable": false,
      "stateMutability": "view",
      "type": "function"
    },
    {
      "constant": false,
      "inputs": [
        {
          "name": "challengeOwner",
          "type": "address"
        },
        {
          "name": "tokens",
          "type": "uint256"
        }
      ],
      "name": "partecipateToChallengeOf",
      "outputs": [
        {
          "name": "success",
          "type": "bool"
        }
      ],
      "payable": false,
      "stateMutability": "nonpayable",
      "type": "function"
    },
    {
      "constant": false,
      "inputs": [
        {
          "name": "challengeOwner",
          "type": "address"
        },
        {
          "name": "data",
          "type": "uint256"
        }
      ],
      "name": "depositDataChallenge",
      "outputs": [
        {
          "name": "success",
          "type": "bool"
        }
      ],
      "payable": false,
      "stateMutability": "nonpayable",
      "type": "function"
    },
    {
      "constant": true,
      "inputs": [],
      "name": "getData",
      "outputs": [
        {
          "name": "nameData",
          "type": "string"
        },
        {
          "name": "symbolData",
          "type": "string"
        },
        {
          "name": "totalSupplyData",
          "type": "uint256"
        },
        {
          "name": "stepsTokenRateData",
          "type": "uint256"
        },
        {
          "name": "isRateActiveData",
          "type": "bool"
        },
        {
          "name": "newIssueData",
          "type": "bool"
        }
      ],
      "payable": false,
      "stateMutability": "view",
      "type": "function"
    },
    {
      "constant": false,
      "inputs": [],
      "name": "depositExchangedEther",
      "outputs": [
        {
          "name": "success",
          "type": "bool"
        }
      ],
      "payable": true,
      "stateMutability": "payable",
      "type": "function"
    },
    {
      "constant": false,
      "inputs": [
        {
          "name": "steps",
          "type": "uint256"
        }
      ],
      "name": "depositTokenSteps",
      "outputs": [
        {
          "name": "success",
          "type": "bool"
        }
      ],
      "payable": true,
      "stateMutability": "payable",
      "type": "function"
    },
    {
      "constant": false,
      "inputs": [
        {
          "name": "from",
          "type": "address"
        },
        {
          "name": "to",
          "type": "address"
        },
        {
          "name": "tokens",
          "type": "uint256"
        }
      ],
      "name": "virtualDepositTransferFrom",
      "outputs": [
        {
          "name": "success",
          "type": "bool"
        }
      ],
      "payable": false,
      "stateMutability": "nonpayable",
      "type": "function"
    },
    {
      "constant": false,
      "inputs": [
        {
          "name": "to",
          "type": "address"
        },
        {
          "name": "tokens",
          "type": "uint256"
        }
      ],
      "name": "transfer",
      "outputs": [
        {
          "name": "success",
          "type": "bool"
        }
      ],
      "payable": false,
      "stateMutability": "nonpayable",
      "type": "function"
    },
    {
      "constant": false,
      "inputs": [
        {
          "name": "spender",
          "type": "address"
        },
        {
          "name": "tokens",
          "type": "uint256"
        }
      ],
      "name": "approve",
      "outputs": [
        {
          "name": "success",
          "type": "bool"
        }
      ],
      "payable": false,
      "stateMutability": "nonpayable",
      "type": "function"
    },
    {
      "constant": false,
      "inputs": [
        {
          "name": "from",
          "type": "address"
        },
        {
          "name": "to",
          "type": "address"
        },
        {
          "name": "tokens",
          "type": "uint256"
        }
      ],
      "name": "transferFrom",
      "outputs": [
        {
          "name": "success",
          "type": "bool"
        }
      ],
      "payable": false,
      "stateMutability": "nonpayable",
      "type": "function"
    },
    {
      "constant": true,
      "inputs": [
        {
          "name": "tokenOwner",
          "type": "address"
        },
        {
          "name": "spender",
          "type": "address"
        }
      ],
      "name": "allowance",
      "outputs": [
        {
          "name": "remaining",
          "type": "uint256"
        }
      ],
      "payable": false,
      "stateMutability": "view",
      "type": "function"
    },
    {
      "constant": false,
      "inputs": [
        {
          "name": "amount",
          "type": "uint256"
        }
      ],
      "name": "issueTokens",
      "outputs": [
        {
          "name": "success",
          "type": "bool"
        }
      ],
      "payable": false,
      "stateMutability": "nonpayable",
      "type": "function"
    }
  ],
  "bytecode": "0x60806040523480156200001157600080fd5b5060405162003a5738038062003a5783398101806040528101908080518201929190602001805182019291906020018051906020019092919080519060200190929190805190602001909291908051906020019092919080519060200190929190505050336000806101000a81548173ffffffffffffffffffffffffffffffffffffffff021916908373ffffffffffffffffffffffffffffffffffffffff1602179055508660029080519060200190620000cd92919062000273565b508560039080519060200190620000e692919062000273565b508260058190555082600a0a85026004819055508360068190555081600760006101000a81548160ff02191690831515021790555080600760016101000a81548160ff02191690831515021790555030600760026101000a81548173ffffffffffffffffffffffffffffffffffffffff021916908373ffffffffffffffffffffffffffffffffffffffff160217905550600454600860008060009054906101000a900473ffffffffffffffffffffffffffffffffffffffff1673ffffffffffffffffffffffffffffffffffffffff1673ffffffffffffffffffffffffffffffffffffffff168152602001908152602001600020819055506000809054906101000a900473ffffffffffffffffffffffffffffffffffffffff1673ffffffffffffffffffffffffffffffffffffffff16600073ffffffffffffffffffffffffffffffffffffffff167fddf252ad1be2c89b69c2b068fc378daa952ba7f163c4a11628f55a4df523b3ef6004546040518082815260200191505060405180910390a35050505050505062000322565b828054600181600116156101000203166002900490600052602060002090601f016020900481019282601f10620002b657805160ff1916838001178555620002e7565b82800160010185558215620002e7579182015b82811115620002e6578251825591602001919060010190620002c9565b5b509050620002f69190620002fa565b5090565b6200031f91905b808211156200031b57600081600090555060010162000301565b5090565b90565b61372580620003326000396000f3006080604052600436106200019d576000357c0100000000000000000000000000000000000000000000000000000000900463ffffffff1680624f619514620001a2578062ac4434146200020a57806306fdde031462000292578063095ea7b3146200032857806318160ddd146200039057806323b872dd14620003be578063313ce56714620004465780633bc5de3014620004745780633f75cebd146200059d5780634014df0e14620006235780634585c9ff14620006555780634975d20214620006bd5780635458a0ec14620006eb5780636d7387a1146200081957806370a08231146200083d57806379ba5097146200089757806379f1605e14620008b15780638b7afe2e14620008df5780638bec27e5146200090d5780638da5cb5b14620009475780638e7ea5b214620009a157806395d89b4114620009fb578063966b35141462000a915780639c16d82c1462000aeb578063a5820daa1462000b1d578063a9059cbb1462000b65578063c8ade1141462000bcd578063d4ee1d901462000bff578063dd62ed3e1462000c59578063f2fde38b1462000cd3575b600080fd5b348015620001af57600080fd5b50620001f0600480360381019080803573ffffffffffffffffffffffffffffffffffffffff1690602001909291908035906020019092919050505062000d19565b604051808215151515815260200191505060405180910390f35b3480156200021757600080fd5b5062000278600480360381019080803573ffffffffffffffffffffffffffffffffffffffff169060200190929190803573ffffffffffffffffffffffffffffffffffffffff1690602001909291908035906020019092919050505062000e48565b604051808215151515815260200191505060405180910390f35b3480156200029f57600080fd5b50620002aa62001037565b6040518080602001828103825283818151815260200191508051906020019080838360005b83811015620002ec578082015181840152602081019050620002cf565b50505050905090810190601f1680156200031a5780820380516001836020036101000a031916815260200191505b509250505060405180910390f35b3480156200033557600080fd5b5062000376600480360381019080803573ffffffffffffffffffffffffffffffffffffffff16906020019092919080359060200190929190505050620010d9565b604051808215151515815260200191505060405180910390f35b3480156200039d57600080fd5b50620003a8620011cb565b6040518082815260200191505060405180910390f35b348015620003cb57600080fd5b506200042c600480360381019080803573ffffffffffffffffffffffffffffffffffffffff169060200190929190803573ffffffffffffffffffffffffffffffffffffffff16906020019092919080359060200190929190505050620011d5565b604051808215151515815260200191505060405180910390f35b3480156200045357600080fd5b506200045e62001563565b6040518082815260200191505060405180910390f35b3480156200048157600080fd5b506200048c62001569565b6040518080602001806020018781526020018681526020018515151515815260200184151515158152602001838103835289818151815260200191508051906020019080838360005b83811015620004f2578082015181840152602081019050620004d5565b50505050905090810190601f168015620005205780820380516001836020036101000a031916815260200191505b50838103825288818151815260200191508051906020019080838360005b838110156200055b5780820151818401526020810190506200053e565b50505050905090810190601f168015620005895780820380516001836020036101000a031916815260200191505b509850505050505050505060405180910390f35b348015620005aa57600080fd5b50620005e1600480360381019080803573ffffffffffffffffffffffffffffffffffffffff169060200190929190505050620016f0565b604051808273ffffffffffffffffffffffffffffffffffffffff1673ffffffffffffffffffffffffffffffffffffffff16815260200191505060405180910390f35b3480156200063057600080fd5b506200063b62001759565b604051808215151515815260200191505060405180910390f35b3480156200066257600080fd5b50620006a3600480360381019080803573ffffffffffffffffffffffffffffffffffffffff16906020019092919080359060200190929190505050620018a0565b604051808215151515815260200191505060405180910390f35b348015620006ca57600080fd5b50620006d5620019cf565b6040518082815260200191505060405180910390f35b348015620006f857600080fd5b50620007ff600480360381019080803590602001908201803590602001908080601f0160208091040260200160405190810160405280939291908181526020018383808284378201915050505050509192919290803590602001908201803590602001908080601f0160208091040260200160405190810160405280939291908181526020018383808284378201915050505050509192919290803590602001909291908035906020019092919080359060200190929190803590602001908201803590602001908080601f016020809104026020016040519081016040528093929190818152602001838380828437820191505050505050919291929050505062001a37565b604051808215151515815260200191505060405180910390f35b6200082362001e31565b604051808215151515815260200191505060405180910390f35b3480156200084a57600080fd5b5062000881600480360381019080803573ffffffffffffffffffffffffffffffffffffffff16906020019092919050505062002086565b6040518082815260200191505060405180910390f35b348015620008a457600080fd5b50620008af620020cf565b005b348015620008be57600080fd5b50620008c96200226f565b6040518082815260200191505060405180910390f35b348015620008ec57600080fd5b50620008f762002275565b6040518082815260200191505060405180910390f35b6200092d60048036038101908080359060200190929190505050620022b6565b604051808215151515815260200191505060405180910390f35b3480156200095457600080fd5b506200095f620024e7565b604051808273ffffffffffffffffffffffffffffffffffffffff1673ffffffffffffffffffffffffffffffffffffffff16815260200191505060405180910390f35b348015620009ae57600080fd5b50620009b96200250c565b604051808273ffffffffffffffffffffffffffffffffffffffff1673ffffffffffffffffffffffffffffffffffffffff16815260200191505060405180910390f35b34801562000a0857600080fd5b5062000a1362002619565b6040518080602001828103825283818151815260200191508051906020019080838360005b8381101562000a5557808201518184015260208101905062000a38565b50505050905090810190601f16801562000a835780820380516001836020036101000a031916815260200191505b509250505060405180910390f35b34801562000a9e57600080fd5b5062000aa9620026bb565b604051808273ffffffffffffffffffffffffffffffffffffffff1673ffffffffffffffffffffffffffffffffffffffff16815260200191505060405180910390f35b34801562000af857600080fd5b5062000b03620026e1565b604051808215151515815260200191505060405180910390f35b34801562000b2a57600080fd5b5062000b4b60048036038101908080359060200190929190505050620026f4565b604051808215151515815260200191505060405180910390f35b34801562000b7257600080fd5b5062000bb3600480360381019080803573ffffffffffffffffffffffffffffffffffffffff16906020019092919080359060200190929190505050620028f9565b604051808215151515815260200191505060405180910390f35b34801562000bda57600080fd5b5062000be562002ae7565b604051808215151515815260200191505060405180910390f35b34801562000c0c57600080fd5b5062000c1762002afa565b604051808273ffffffffffffffffffffffffffffffffffffffff1673ffffffffffffffffffffffffffffffffffffffff16815260200191505060405180910390f35b34801562000c6657600080fd5b5062000cbd600480360381019080803573ffffffffffffffffffffffffffffffffffffffff169060200190929190803573ffffffffffffffffffffffffffffffffffffffff16906020019092919050505062002b20565b6040518082815260200191505060405180910390f35b34801562000ce057600080fd5b5062000d17600480360381019080803573ffffffffffffffffffffffffffffffffffffffff16906020019092919050505062002ba7565b005b6000806000831015151562000d2d57600080fd5b600a60008573ffffffffffffffffffffffffffffffffffffffff1673ffffffffffffffffffffffffffffffffffffffff16815260200190815260200160002060009054906101000a900473ffffffffffffffffffffffffffffffffffffffff1690508073ffffffffffffffffffffffffffffffffffffffff166378199fdf846040518263ffffffff167c010000000000000000000000000000000000000000000000000000000002815260040180828152602001915050602060405180830381600087803b15801562000dff57600080fd5b505af115801562000e14573d6000803e3d6000fd5b505050506040513d602081101562000e2b57600080fd5b810190808051906020019092919050505050600191505092915050565b600081600860008673ffffffffffffffffffffffffffffffffffffffff1673ffffffffffffffffffffffffffffffffffffffff168152602001908152602001600020541015151562000e9957600080fd5b62000eed82600860008773ffffffffffffffffffffffffffffffffffffffff1673ffffffffffffffffffffffffffffffffffffffff1681526020019081526020016000205462002c4790919063ffffffff16565b600860008673ffffffffffffffffffffffffffffffffffffffff1673ffffffffffffffffffffffffffffffffffffffff1681526020019081526020016000208190555062000f8482600860008673ffffffffffffffffffffffffffffffffffffffff1673ffffffffffffffffffffffffffffffffffffffff1681526020019081526020016000205462002c6490919063ffffffff16565b600860008573ffffffffffffffffffffffffffffffffffffffff1673ffffffffffffffffffffffffffffffffffffffff168152602001908152602001600020819055508273ffffffffffffffffffffffffffffffffffffffff168473ffffffffffffffffffffffffffffffffffffffff167fddf252ad1be2c89b69c2b068fc378daa952ba7f163c4a11628f55a4df523b3ef846040518082815260200191505060405180910390a3600190509392505050565b60028054600181600116156101000203166002900480601f016020809104026020016040519081016040528092919081815260200182805460018160011615610100020316600290048015620010d15780601f10620010a557610100808354040283529160200191620010d1565b820191906000526020600020905b815481529060010190602001808311620010b357829003601f168201915b505050505081565b600081600960003373ffffffffffffffffffffffffffffffffffffffff1673ffffffffffffffffffffffffffffffffffffffff16815260200190815260200160002060008573ffffffffffffffffffffffffffffffffffffffff1673ffffffffffffffffffffffffffffffffffffffff168152602001908152602001600020819055508273ffffffffffffffffffffffffffffffffffffffff163373ffffffffffffffffffffffffffffffffffffffff167f8c5be1e5ebec7d5bd14f71427d1e84f3dd0314c0f7b2291e5b200ac8c7c3b925846040518082815260200191505060405180910390a36001905092915050565b6000600454905090565b600080600960008673ffffffffffffffffffffffffffffffffffffffff1673ffffffffffffffffffffffffffffffffffffffff16815260200190815260200160002060003373ffffffffffffffffffffffffffffffffffffffff1673ffffffffffffffffffffffffffffffffffffffff16815260200190815260200160002054905082600860008773ffffffffffffffffffffffffffffffffffffffff1673ffffffffffffffffffffffffffffffffffffffff1681526020019081526020016000205410158015620012a75750828110155b1515620012b357600080fd5b6200130783600860008873ffffffffffffffffffffffffffffffffffffffff1673ffffffffffffffffffffffffffffffffffffffff1681526020019081526020016000205462002c4790919063ffffffff16565b600860008773ffffffffffffffffffffffffffffffffffffffff1673ffffffffffffffffffffffffffffffffffffffff16815260200190815260200160002081905550620013db83600960008873ffffffffffffffffffffffffffffffffffffffff1673ffffffffffffffffffffffffffffffffffffffff16815260200190815260200160002060003373ffffffffffffffffffffffffffffffffffffffff1673ffffffffffffffffffffffffffffffffffffffff1681526020019081526020016000205462002c4790919063ffffffff16565b600960008773ffffffffffffffffffffffffffffffffffffffff1673ffffffffffffffffffffffffffffffffffffffff16815260200190815260200160002060003373ffffffffffffffffffffffffffffffffffffffff1673ffffffffffffffffffffffffffffffffffffffff16815260200190815260200160002081905550620014af83600860008773ffffffffffffffffffffffffffffffffffffffff1673ffffffffffffffffffffffffffffffffffffffff1681526020019081526020016000205462002c6490919063ffffffff16565b600860008673ffffffffffffffffffffffffffffffffffffffff1673ffffffffffffffffffffffffffffffffffffffff168152602001908152602001600020819055508373ffffffffffffffffffffffffffffffffffffffff168573ffffffffffffffffffffffffffffffffffffffff167fddf252ad1be2c89b69c2b068fc378daa952ba7f163c4a11628f55a4df523b3ef856040518082815260200191505060405180910390a360019150509392505050565b60055481565b60608060008060008060026003600454600654600760009054906101000a900460ff16600760019054906101000a900460ff16858054600181600116156101000203166002900480601f016020809104026020016040519081016040528092919081815260200182805460018160011615610100020316600290048015620016355780601f10620016095761010080835404028352916020019162001635565b820191906000526020600020905b8154815290600101906020018083116200161757829003601f168201915b50505050509550848054600181600116156101000203166002900480601f016020809104026020016040519081016040528092919081815260200182805460018160011615610100020316600290048015620016d55780601f10620016a957610100808354040283529160200191620016d5565b820191906000526020600020905b815481529060010190602001808311620016b757829003601f168201915b50505050509450955095509550955095509550909192939495565b6000600a60008373ffffffffffffffffffffffffffffffffffffffff1673ffffffffffffffffffffffffffffffffffffffff16815260200190815260200160002060009054906101000a900473ffffffffffffffffffffffffffffffffffffffff169050919050565b600080600a60003373ffffffffffffffffffffffffffffffffffffffff1673ffffffffffffffffffffffffffffffffffffffff16815260200190815260200160002060009054906101000a900473ffffffffffffffffffffffffffffffffffffffff1690508073ffffffffffffffffffffffffffffffffffffffff16634c01711a306040518263ffffffff167c0100000000000000000000000000000000000000000000000000000000028152600401808273ffffffffffffffffffffffffffffffffffffffff1673ffffffffffffffffffffffffffffffffffffffff168152602001915050602060405180830381600087803b1580156200185a57600080fd5b505af11580156200186f573d6000803e3d6000fd5b505050506040513d60208110156200188657600080fd5b810190808051906020019092919050505050600191505090565b60008060008310151515620018b457600080fd5b600a60008573ffffffffffffffffffffffffffffffffffffffff1673ffffffffffffffffffffffffffffffffffffffff16815260200190815260200160002060009054906101000a900473ffffffffffffffffffffffffffffffffffffffff1690508073ffffffffffffffffffffffffffffffffffffffff1663337e9f05846040518263ffffffff167c010000000000000000000000000000000000000000000000000000000002815260040180828152602001915050602060405180830381600087803b1580156200198657600080fd5b505af11580156200199b573d6000803e3d6000fd5b505050506040513d6020811015620019b257600080fd5b810190808051906020019092919050505050600191505092915050565b6000600860008060009054906101000a900473ffffffffffffffffffffffffffffffffffffffff1673ffffffffffffffffffffffffffffffffffffffff1673ffffffffffffffffffffffffffffffffffffffff16815260200190815260200160002054905090565b600080600554600a0a8602600860003373ffffffffffffffffffffffffffffffffffffffff1673ffffffffffffffffffffffffffffffffffffffff1681526020019081526020016000205410151562001e1d578787878787873360055462001a9e62002cdb565b808060200180602001898152602001888152602001878152602001806020018673ffffffffffffffffffffffffffffffffffffffff1673ffffffffffffffffffffffffffffffffffffffff16815260200185815260200184810384528c818151815260200191508051906020019080838360005b8381101562001b2f57808201518184015260208101905062001b12565b50505050905090810190601f16801562001b5d5780820380516001836020036101000a031916815260200191505b5084810383528b818151815260200191508051906020019080838360005b8381101562001b9857808201518184015260208101905062001b7b565b50505050905090810190601f16801562001bc65780820380516001836020036101000a031916815260200191505b50848103825287818151815260200191508051906020019080838360005b8381101562001c0157808201518184015260208101905062001be4565b50505050905090810190601f16801562001c2f5780820380516001836020036101000a031916815260200191505b509b505050505050505050505050604051809103906000f08015801562001c5a573d6000803e3d6000fd5b50905062001cb8600554600a0a8702600860003373ffffffffffffffffffffffffffffffffffffffff1673ffffffffffffffffffffffffffffffffffffffff1681526020019081526020016000205462002c4790919063ffffffff16565b600860003373ffffffffffffffffffffffffffffffffffffffff1673ffffffffffffffffffffffffffffffffffffffff1681526020019081526020016000208190555062001d56600554600a0a8702600860008473ffffffffffffffffffffffffffffffffffffffff1673ffffffffffffffffffffffffffffffffffffffff1681526020019081526020016000205462002c6490919063ffffffff16565b600860008373ffffffffffffffffffffffffffffffffffffffff1673ffffffffffffffffffffffffffffffffffffffff1681526020019081526020016000208190555080600a60003373ffffffffffffffffffffffffffffffffffffffff1673ffffffffffffffffffffffffffffffffffffffff16815260200190815260200160002060006101000a81548173ffffffffffffffffffffffffffffffffffffffff021916908373ffffffffffffffffffffffffffffffffffffffff16021790555062001e22565b600080fd5b60019150509695505050505050565b6000806000341015151562001e4557600080fd5b60011515600760009054906101000a900460ff16151514151562001e6857600080fd5b62001e8264174876e8003462002c8190919063ffffffff16565b9050600062001efb82600860008060009054906101000a900473ffffffffffffffffffffffffffffffffffffffff1673ffffffffffffffffffffffffffffffffffffffff1673ffffffffffffffffffffffffffffffffffffffff1681526020019081526020016000205462002c4790919063ffffffff16565b101515620020795762001f7881600860008060009054906101000a900473ffffffffffffffffffffffffffffffffffffffff1673ffffffffffffffffffffffffffffffffffffffff1673ffffffffffffffffffffffffffffffffffffffff1681526020019081526020016000205462002c4790919063ffffffff16565b600860008060009054906101000a900473ffffffffffffffffffffffffffffffffffffffff1673ffffffffffffffffffffffffffffffffffffffff1673ffffffffffffffffffffffffffffffffffffffff168152602001908152602001600020819055506200203081600860003373ffffffffffffffffffffffffffffffffffffffff1673ffffffffffffffffffffffffffffffffffffffff1681526020019081526020016000205462002c6490919063ffffffff16565b600860003373ffffffffffffffffffffffffffffffffffffffff1673ffffffffffffffffffffffffffffffffffffffff168152602001908152602001600020819055506200207e565b600080fd5b600191505090565b6000600860008373ffffffffffffffffffffffffffffffffffffffff1673ffffffffffffffffffffffffffffffffffffffff168152602001908152602001600020549050919050565b600160009054906101000a900473ffffffffffffffffffffffffffffffffffffffff1673ffffffffffffffffffffffffffffffffffffffff163373ffffffffffffffffffffffffffffffffffffffff161415156200212c57600080fd5b600160009054906101000a900473ffffffffffffffffffffffffffffffffffffffff1673ffffffffffffffffffffffffffffffffffffffff166000809054906101000a900473ffffffffffffffffffffffffffffffffffffffff1673ffffffffffffffffffffffffffffffffffffffff167f8be0079c531659141344cd1fd0a4f28419497f9722a3daafe3b4186f6b6457e060405160405180910390a3600160009054906101000a900473ffffffffffffffffffffffffffffffffffffffff166000806101000a81548173ffffffffffffffffffffffffffffffffffffffff021916908373ffffffffffffffffffffffffffffffffffffffff1602179055506000600160006101000a81548173ffffffffffffffffffffffffffffffffffffffff021916908373ffffffffffffffffffffffffffffffffffffffff160217905550565b60065481565b6000600760029054906101000a900473ffffffffffffffffffffffffffffffffffffffff1673ffffffffffffffffffffffffffffffffffffffff1631905090565b60008060008310151515620022ca57600080fd5b620022e16006548462002ca790919063ffffffff16565b905060006200235a82600860008060009054906101000a900473ffffffffffffffffffffffffffffffffffffffff1673ffffffffffffffffffffffffffffffffffffffff1673ffffffffffffffffffffffffffffffffffffffff1681526020019081526020016000205462002c4790919063ffffffff16565b101515620024d857620023d781600860008060009054906101000a900473ffffffffffffffffffffffffffffffffffffffff1673ffffffffffffffffffffffffffffffffffffffff1673ffffffffffffffffffffffffffffffffffffffff1681526020019081526020016000205462002c4790919063ffffffff16565b600860008060009054906101000a900473ffffffffffffffffffffffffffffffffffffffff1673ffffffffffffffffffffffffffffffffffffffff1673ffffffffffffffffffffffffffffffffffffffff168152602001908152602001600020819055506200248f81600860003373ffffffffffffffffffffffffffffffffffffffff1673ffffffffffffffffffffffffffffffffffffffff1681526020019081526020016000205462002c6490919063ffffffff16565b600860003373ffffffffffffffffffffffffffffffffffffffff1673ffffffffffffffffffffffffffffffffffffffff16815260200190815260200160002081905550620024dd565b600080fd5b6001915050919050565b6000809054906101000a900473ffffffffffffffffffffffffffffffffffffffff1681565b600080600a60003373ffffffffffffffffffffffffffffffffffffffff1673ffffffffffffffffffffffffffffffffffffffff16815260200190815260200160002060009054906101000a900473ffffffffffffffffffffffffffffffffffffffff1690508073ffffffffffffffffffffffffffffffffffffffff16638e7ea5b26040518163ffffffff167c0100000000000000000000000000000000000000000000000000000000028152600401602060405180830381600087803b158015620025d657600080fd5b505af1158015620025eb573d6000803e3d6000fd5b505050506040513d60208110156200260257600080fd5b810190808051906020019092919050505091505090565b60038054600181600116156101000203166002900480601f016020809104026020016040519081016040528092919081815260200182805460018160011615610100020316600290048015620026b35780601f106200268757610100808354040283529160200191620026b3565b820191906000526020600020905b8154815290600101906020018083116200269557829003601f168201915b505050505081565b600760029054906101000a900473ffffffffffffffffffffffffffffffffffffffff1681565b600760019054906101000a900460ff1681565b60008060009054906101000a900473ffffffffffffffffffffffffffffffffffffffff1673ffffffffffffffffffffffffffffffffffffffff163373ffffffffffffffffffffffffffffffffffffffff161415156200275257600080fd5b600760019054906101000a900460ff1615620028eb57620027dd82600860008060009054906101000a900473ffffffffffffffffffffffffffffffffffffffff1673ffffffffffffffffffffffffffffffffffffffff1673ffffffffffffffffffffffffffffffffffffffff1681526020019081526020016000205462002c6490919063ffffffff16565b600860008060009054906101000a900473ffffffffffffffffffffffffffffffffffffffff1673ffffffffffffffffffffffffffffffffffffffff1673ffffffffffffffffffffffffffffffffffffffff16815260200190815260200160002081905550620028588260045462002c6490919063ffffffff16565b6004819055506000809054906101000a900473ffffffffffffffffffffffffffffffffffffffff1673ffffffffffffffffffffffffffffffffffffffff16600073ffffffffffffffffffffffffffffffffffffffff167fddf252ad1be2c89b69c2b068fc378daa952ba7f163c4a11628f55a4df523b3ef846040518082815260200191505060405180910390a3620028f0565b600080fd5b60019050919050565b600081600860003373ffffffffffffffffffffffffffffffffffffffff1673ffffffffffffffffffffffffffffffffffffffff16815260200190815260200160002054101515156200294a57600080fd5b6200299e82600860003373ffffffffffffffffffffffffffffffffffffffff1673ffffffffffffffffffffffffffffffffffffffff1681526020019081526020016000205462002c4790919063ffffffff16565b600860003373ffffffffffffffffffffffffffffffffffffffff1673ffffffffffffffffffffffffffffffffffffffff1681526020019081526020016000208190555062002a3582600860008673ffffffffffffffffffffffffffffffffffffffff1673ffffffffffffffffffffffffffffffffffffffff1681526020019081526020016000205462002c6490919063ffffffff16565b600860008573ffffffffffffffffffffffffffffffffffffffff1673ffffffffffffffffffffffffffffffffffffffff168152602001908152602001600020819055508273ffffffffffffffffffffffffffffffffffffffff163373ffffffffffffffffffffffffffffffffffffffff167fddf252ad1be2c89b69c2b068fc378daa952ba7f163c4a11628f55a4df523b3ef846040518082815260200191505060405180910390a36001905092915050565b600760009054906101000a900460ff1681565b600160009054906101000a900473ffffffffffffffffffffffffffffffffffffffff1681565b6000600960008473ffffffffffffffffffffffffffffffffffffffff1673ffffffffffffffffffffffffffffffffffffffff16815260200190815260200160002060008373ffffffffffffffffffffffffffffffffffffffff1673ffffffffffffffffffffffffffffffffffffffff16815260200190815260200160002054905092915050565b6000809054906101000a900473ffffffffffffffffffffffffffffffffffffffff1673ffffffffffffffffffffffffffffffffffffffff163373ffffffffffffffffffffffffffffffffffffffff1614151562002c0357600080fd5b80600160006101000a81548173ffffffffffffffffffffffffffffffffffffffff021916908373ffffffffffffffffffffffffffffffffffffffff16021790555050565b600082821115151562002c5957600080fd5b818303905092915050565b6000818301905082811015151562002c7b57600080fd5b92915050565b6000808211151562002c9257600080fd5b818381151562002c9e57fe5b04905092915050565b60008183029050600083148062002cc9575081838281151562002cc657fe5b04145b151562002cd557600080fd5b92915050565b604051610a0d8062002ced833901905600608060405234801561001057600080fd5b50604051610a0d380380610a0d83398101806040528101908080518201929190602001805182019291906020018051906020019092919080519060200190929190805190602001909291908051820192919060200180519060200190929190805190602001909291905050508760009080519060200190610092929190610187565b5086600190805190602001906100a9929190610187565b5085600281905550846003819055508360048190555082600690805190602001906100d5929190610187565b5081600860006101000a81548173ffffffffffffffffffffffffffffffffffffffff021916908373ffffffffffffffffffffffffffffffffffffffff1602179055506001600960146101000a81548160ff0219169083151502179055508060058190555030600760006101000a81548173ffffffffffffffffffffffffffffffffffffffff021916908373ffffffffffffffffffffffffffffffffffffffff160217905550505050505050505061022c565b828054600181600116156101000203166002900490600052602060002090601f016020900481019282601f106101c857805160ff19168380011785556101f6565b828001600101855582156101f6579182015b828111156101f55782518255916020019190600101906101da565b5b5090506102039190610207565b5090565b61022991905b8082111561022557600081600090555060010161020d565b5090565b90565b6107d28061023b6000396000f300608060405260043610610099576000357c0100000000000000000000000000000000000000000000000000000000900463ffffffff1680631d2803891461009e578063337e9f05146100cd57806341c0e1b5146101125780634c01711a1461012957806378199fdf14610184578063893d20e8146101c95780638e7ea5b214610220578063ced72f8714610277578063f52f6441146102a2575b600080fd5b3480156100aa57600080fd5b506100b36102fd565b604051808215151515815260200191505060405180910390f35b3480156100d957600080fd5b506100f860048036038101908080359060200190929190505050610314565b604051808215151515815260200191505060405180910390f35b34801561011e57600080fd5b50610127610387565b005b34801561013557600080fd5b5061016a600480360381019080803573ffffffffffffffffffffffffffffffffffffffff16906020019092919050505061041e565b604051808215151515815260200191505060405180910390f35b34801561019057600080fd5b506101af6004803603810190808035906020019092919050505061055d565b604051808215151515815260200191505060405180910390f35b3480156101d557600080fd5b506101de6106a4565b604051808273ffffffffffffffffffffffffffffffffffffffff1673ffffffffffffffffffffffffffffffffffffffff16815260200191505060405180910390f35b34801561022c57600080fd5b506102356106ce565b604051808273ffffffffffffffffffffffffffffffffffffffff1673ffffffffffffffffffffffffffffffffffffffff16815260200191505060405180910390f35b34801561028357600080fd5b5061028c610719565b6040518082815260200191505060405180910390f35b3480156102ae57600080fd5b506102e3600480360381019080803573ffffffffffffffffffffffffffffffffffffffff169060200190929190505050610723565b604051808215151515815260200191505060405180910390f35b6000600960149054906101000a900460ff16905090565b60006003548214151561032657600080fd5b6001600a60003373ffffffffffffffffffffffffffffffffffffffff1673ffffffffffffffffffffffffffffffffffffffff16815260200190815260200160002060006101000a81548160ff02191690831515021790555060019050919050565b600860009054906101000a900473ffffffffffffffffffffffffffffffffffffffff1673ffffffffffffffffffffffffffffffffffffffff163373ffffffffffffffffffffffffffffffffffffffff161415156103e357600080fd5b600860009054906101000a900473ffffffffffffffffffffffffffffffffffffffff1673ffffffffffffffffffffffffffffffffffffffff16ff5b600080600960149054906101000a900460ff161515610549578290508073ffffffffffffffffffffffffffffffffffffffff1663a9059cbb600960009054906101000a900473ffffffffffffffffffffffffffffffffffffffff16600554600a0a600254026040518363ffffffff167c0100000000000000000000000000000000000000000000000000000000028152600401808373ffffffffffffffffffffffffffffffffffffffff1673ffffffffffffffffffffffffffffffffffffffff16815260200182815260200192505050602060405180830381600087803b15801561050857600080fd5b505af115801561051c573d6000803e3d6000fd5b505050506040513d602081101561053257600080fd5b810190808051906020019092919050505050610552565b60009150610557565b600191505b50919050565b60006105b182600b60003373ffffffffffffffffffffffffffffffffffffffff1673ffffffffffffffffffffffffffffffffffffffff1681526020019081526020016000205461078a90919063ffffffff16565b600b60003373ffffffffffffffffffffffffffffffffffffffff1673ffffffffffffffffffffffffffffffffffffffff16815260200190815260200160002081905550600454600b60003373ffffffffffffffffffffffffffffffffffffffff1673ffffffffffffffffffffffffffffffffffffffff1681526020019081526020016000205410151561069b576000600960146101000a81548160ff02191690831515021790555033600960006101000a81548173ffffffffffffffffffffffffffffffffffffffff021916908373ffffffffffffffffffffffffffffffffffffffff1602179055505b60019050919050565b6000600860009054906101000a900473ffffffffffffffffffffffffffffffffffffffff16905090565b6000801515600960149054906101000a900460ff1615151415156106f157600080fd5b600960009054906101000a900473ffffffffffffffffffffffffffffffffffffffff16905090565b6000600354905090565b6000600a60008373ffffffffffffffffffffffffffffffffffffffff1673ffffffffffffffffffffffffffffffffffffffff16815260200190815260200160002060009054906101000a900460ff16156107805760019050610785565b600090505b919050565b600081830190508281101515156107a057600080fd5b929150505600a165627a7a72305820bc40c97d673116cdfe3c1f586bd3cfba3c210a3d8637f422138efc6f026b0d400029a165627a7a723058201fcb4e1887da27151312eeb6706e36bf06f695baeb96a41e9dead6cfb9faf4270029",
  "source": "pragma solidity ^0.4.18;\r\n\r\n\r\n// ----------------------------------------------------------------------------\r\n//  WELLCOIN implementation\r\n//  based on ERC20 Token\r\n//  https://theethereum.wiki/w/index.php/ERC20_Token_Standard \r\n//  Created by: Alberto Carbognin\r\n// ----------------------------------------------------------------------------\r\n\r\nimport \"./Torneo.sol\";\r\n\r\n// ----------------------------------------------------------------------------\r\n// Safe maths\r\n// ----------------------------------------------------------------------------\r\nlibrary SafeMath {\r\n    function add(uint a, uint b) internal pure returns (uint c) {\r\n        c = a + b;\r\n        require(c >= a);\r\n    }\r\n    function sub(uint a, uint b) internal pure returns (uint c) {\r\n        require(b <= a);\r\n        c = a - b;\r\n    }\r\n    function mul(uint a, uint b) internal pure returns (uint c) {\r\n        c = a * b;\r\n        require(a == 0 || c / a == b);\r\n    }\r\n    function div(uint a, uint b) internal pure returns (uint c) {\r\n        require(b > 0);\r\n        c = a / b;\r\n    }\r\n}\r\n\r\n// ----------------------------------------------------------------------------\r\n// Owned contract\r\n// ----------------------------------------------------------------------------\r\ncontract Owned {\r\n    address public owner;\r\n    address public newOwner;\r\n\r\n    event OwnershipTransferred(address indexed _from, address indexed _to);\r\n\r\n    constructor() public {\r\n        owner = msg.sender;\r\n    }\r\n\r\n    modifier onlyOwner {\r\n        require(msg.sender == owner);\r\n        _;\r\n    }\r\n\r\n    function transferOwnership(address _newOwner) public onlyOwner {\r\n        newOwner = _newOwner;\r\n    }\r\n    function acceptOwnership() public {\r\n        require(msg.sender == newOwner);\r\n        emit OwnershipTransferred(owner, newOwner);\r\n        owner = newOwner;\r\n        newOwner = address(0);\r\n    }\r\n}\r\n\r\n\r\n// ----------------------------------------------------------------------------\r\n//  ERC20 Interface\r\n// ----------------------------------------------------------------------------\r\ncontract ERC20Interface {\r\n    function totalSupply() public constant returns (uint);\r\n    function balanceOf(address tokenOwner) public constant returns (uint balance);\r\n    function allowance(address tokenOwner, address spender) public constant returns (uint remaining);\r\n    function transfer(address to, uint tokens) public returns (bool success);\r\n    function approve(address spender, uint tokens) public returns (bool success);\r\n    function transferFrom(address from, address to, uint tokens) public returns (bool success);\r\n\r\n    //events to track operations in real time\r\n    //indexed is needed in order to find events using indexed parameters as filter\r\n    event Transfer(address indexed from, address indexed to, uint tokens);\r\n    event Approval(address indexed tokenOwner, address indexed spender, uint tokens);\r\n}\r\n\r\n\r\n// ----------------------------------------------------------------------------\r\n//  Official Implementation\r\n// ----------------------------------------------------------------------------\r\n\r\ncontract WelCoin is ERC20Interface, Owned {\r\n  //importing library for safe math operations\r\n  using SafeMath for uint;\r\n\r\n  //Describing Contract basic informations\r\n  string public name;\r\n  string public symbol;\r\n  uint public totalSupply;\r\n  uint public decimals;\r\n  uint public stepsTokenRate;\r\n  bool public isRateActive;\r\n  bool public newIssue;\r\n  address public contract_address;\r\n\r\n  //Building Dictionary for Balances Account\r\n  mapping(address => uint) balances;\r\n  //Building Dictionary for allowance per account\r\n  //the first address allows to pay second address of uint amount\r\n  mapping(address => mapping(address => uint)) allowed;\r\n\r\n  mapping(address => address) contractsAddresses;\r\n\r\n  //Constructor\r\n  constructor(\r\n    string initialName,\r\n    string initalSymbol,\r\n    uint initialSupply,\r\n    uint initialStepsTokenRate,\r\n    uint initialDecimals,\r\n    bool initialIsRateActive,\r\n    bool initialNewIssue\r\n    ) public {\r\n      name = initialName;\r\n      symbol = initalSymbol;\r\n      decimals = initialDecimals;\r\n      totalSupply = initialSupply * 10**uint(initialDecimals);\r\n      stepsTokenRate = initialStepsTokenRate;\r\n      isRateActive = initialIsRateActive;\r\n      newIssue = initialNewIssue;\r\n      contract_address = this; //this cointains contract's address information\r\n\r\n      //updating initial balances\r\n      balances[owner] = totalSupply;\r\n\r\n      //fire up Transfer event\r\n      emit Transfer(address(0), owner, totalSupply);\r\n  }\r\n\r\n  //return the balance of a Token Owner\r\n  function balanceOf(address tokenOwner) public constant returns(uint balance) {\r\n    return balances[tokenOwner];\r\n  }\r\n\r\n  //return the balance of Owner\r\n  function balanceOfOwner() public constant returns(uint balance) {\r\n    return balances[owner];\r\n  }\r\n\r\n  function totalSupply() public constant returns(uint supply) {\r\n    return totalSupply;\r\n  }\r\n\r\n  //return balance of the contract \r\n  function contractBalance() public constant returns(uint balance) {\r\n    return contract_address.balance;\r\n  }\r\n\r\n  //deploy new contract \r\n  function deployChallenge(\r\n    string challengeName, \r\n    string challengeDescription, \r\n    uint challengePrize,\r\n    uint challengeFee, \r\n    uint challengeTarget, \r\n    string challengeTargetDescription) public returns(bool success) {\r\n\r\n    if (balances[msg.sender] >= (challengePrize*10**decimals)) {\r\n      Torneo challenge = new Torneo(\r\n      challengeName, \r\n      challengeDescription, \r\n      challengePrize, \r\n      challengeFee, \r\n      challengeTarget, \r\n      challengeTargetDescription,\r\n      msg.sender,\r\n      decimals\r\n      );\r\n\r\n      balances[msg.sender] = balances[msg.sender].sub(challengePrize*10**decimals);\r\n      balances[challenge] = balances[challenge].add(challengePrize*10**decimals);\r\n      contractsAddresses[msg.sender] = challenge;\r\n\r\n    } else {\r\n      revert();\r\n    }\r\n\r\n    \r\n\r\n    return true;\r\n  }\r\n\r\n  function challengeAddress(address challengeOwner) public returns (address challenge) {\r\n    return contractsAddresses[challengeOwner];\r\n  }\r\n\r\n  //automatic prize issuing\r\n  function prizeIssue() public returns(bool success) {\r\n\r\n    Torneo challenge = Torneo(contractsAddresses[msg.sender]);\r\n    challenge.issuePrize(this);\r\n    /*\r\n    uint i = 0;\r\n    \r\n    while(i < contractsAddresses[msg.sender].length) {\r\n\r\n     challenge = Torneo(contractsAddresses[msg.sender][i]);\r\n     challenge.issuePrize(this);\r\n     i += 1;\r\n    }*/\r\n\r\n    \r\n\r\n    return true;\r\n  }\r\n\r\n  function getWinner() public constant returns(address winner) {\r\n    Torneo challenge = Torneo(contractsAddresses[msg.sender]);\r\n    return challenge.getWinner();\r\n  }\r\n\r\n  function partecipateToChallengeOf(address challengeOwner, uint tokens) public returns(bool success){\r\n    require(tokens >= 0);\r\n    Torneo challenge = Torneo(contractsAddresses[challengeOwner]);\r\n    challenge.partecipate(tokens);\r\n    return true;\r\n  }\r\n\r\n  function depositDataChallenge(address challengeOwner, uint data) public returns(bool success){\r\n    require(data >= 0);\r\n    Torneo challenge = Torneo(contractsAddresses[challengeOwner]);\r\n    challenge.updateTarget(data);\r\n    return true;\r\n  }\r\n\r\n\r\n  //return parameters\r\n  function getData() public constant returns(\r\n    string nameData,\r\n    string symbolData,\r\n    uint totalSupplyData,\r\n    uint stepsTokenRateData,\r\n    bool isRateActiveData,\r\n    bool newIssueData\r\n    ) {\r\n    return (name, symbol, totalSupply, stepsTokenRate, isRateActive, newIssue);\r\n  }\r\n\r\n  //deposit ether as token\r\n  function depositExchangedEther() public payable returns(bool success){\r\n    require(msg.value >= 0);\r\n    require(isRateActive == true);\r\n\r\n    //user is using etherTokenExchange rate\r\n    // 1 to change\r\n    uint exchangableToken = msg.value.div(10**11);\r\n\r\n    if (balances[owner].sub(exchangableToken) >= 0) {\r\n\r\n      //write transfer function\r\n      balances[owner] = balances[owner].sub(exchangableToken);\r\n      balances[msg.sender] = balances[msg.sender].add(exchangableToken);\r\n      //only for demo purpose\r\n      //owner.transfer(contract_address.balance); //gas used 2300\r\n\r\n    } else {\r\n\r\n      revert();\r\n    }\r\n\r\n    return true;\r\n    \r\n  }\r\n\r\n  //Step to token assign\r\n  function depositTokenSteps(uint steps) public payable returns(bool success){\r\n\r\n    require (steps >= 0);\r\n\r\n    //user is using etherTokenExchange rate\r\n    uint exchangableToken = steps.mul(stepsTokenRate);\r\n\r\n    if (balances[owner].sub(exchangableToken) >= 0) {\r\n\r\n      //write transfer function\r\n      balances[owner] = balances[owner].sub(exchangableToken);\r\n      balances[msg.sender] = balances[msg.sender].add(exchangableToken);\r\n\r\n    } else {\r\n      revert();\r\n    }\r\n\r\n    return true;\r\n    \r\n  }\r\n\r\n  // ------------------------------------------------------------------------\r\n  // Virtual Deposit `tokens` from the `from` account to the `to` account\r\n  // ------------------------------------------------------------------------\r\n  function virtualDepositTransferFrom(address from, address to, uint tokens) public returns (bool success) {\r\n      require(balances[from] >= tokens);\r\n\r\n      balances[from] = balances[from].sub(tokens);\r\n      balances[to] = balances[to].add(tokens);\r\n      emit Transfer(from, to, tokens);\r\n      return true;\r\n  }\r\n\r\n\r\n  // ------------------------------------------------------------------------\r\n  // Transfer the balance from token owner's account to `to` account\r\n  // - Owner's account must have sufficient balance to transfer\r\n  // ------------------------------------------------------------------------\r\n  function transfer(address to, uint tokens) public returns (bool success) {\r\n      require(balances[msg.sender] >= tokens);\r\n      balances[msg.sender] = balances[msg.sender].sub(tokens);\r\n      balances[to] = balances[to].add(tokens);\r\n      emit Transfer(msg.sender, to, tokens);\r\n      return true;\r\n  }\r\n\r\n  // ------------------------------------------------------------------------\r\n  // Token owner can approve for `spender` to transferFrom(...) `tokens`\r\n  // from the token owner's account\r\n  // ------------------------------------------------------------------------\r\n  function approve(address spender, uint tokens) public returns (bool success) {\r\n      allowed[msg.sender][spender] = tokens;\r\n      emit Approval(msg.sender, spender, tokens);\r\n      return true;\r\n  }\r\n\r\n  // ------------------------------------------------------------------------\r\n  // Transfer `tokens` from the `from` account to the `to` account\r\n  // ------------------------------------------------------------------------\r\n  function transferFrom(address from, address to, uint tokens) public returns (bool success) {\r\n      uint256 allowance = allowed[from][msg.sender];\r\n      require(balances[from] >= tokens && allowance >= tokens);\r\n\r\n      balances[from] = balances[from].sub(tokens);\r\n      allowed[from][msg.sender] = allowed[from][msg.sender].sub(tokens);\r\n      balances[to] = balances[to].add(tokens);\r\n      emit Transfer(from, to, tokens);\r\n      return true;\r\n  }\r\n\r\n\r\n  // ------------------------------------------------------------------------\r\n  // Returns the amount of tokens approved by the owner that can be\r\n  // transferred to the spender's account\r\n  // ------------------------------------------------------------------------\r\n  function allowance(address tokenOwner, address spender) public constant returns (uint remaining) {\r\n      return allowed[tokenOwner][spender];\r\n  }\r\n\r\n  // ------------------------------------------------------------------------\r\n  //  New Token Issuing\r\n  // ------------------------------------------------------------------------\r\n  function issueTokens(uint amount) public returns (bool success) {\r\n      require(msg.sender == owner);\r\n      if (newIssue) {\r\n        balances[owner] = balances[owner].add(amount);\r\n        totalSupply = totalSupply.add(amount);\r\n        emit Transfer(address(0), owner, amount);\r\n      } else {\r\n        revert();\r\n      }\r\n\r\n      return true;\r\n  }\r\n\r\n}",
  "sourcePath": "C:\\Users\\Alberto\\Desktop\\Tirocinio\\SmartContract\\smartcontractdemo\\contracts\\WelCoin.sol",
  "compiler": {
    "name": "solc",
    "version": "0.4.23+commit.124ca40d.Emscripten.clang"
  },
  "schemaVersion": "2.0.0",
  "updatedAt": "2018-05-11T09:42:57.106Z"
}