{
  "contractName": "WelCoin",
  "abi": [
    {
      "constant": true,
      "inputs": [],
      "name": "name",
      "outputs": [
        {
          "name": "",
          "type": "string"
        }
      ],
      "payable": false,
      "stateMutability": "view",
      "type": "function"
    },
    {
      "constant": true,
      "inputs": [],
      "name": "automaticIssue",
      "outputs": [
        {
          "name": "",
          "type": "bool"
        }
      ],
      "payable": false,
      "stateMutability": "view",
      "type": "function"
    },
    {
      "constant": false,
      "inputs": [],
      "name": "acceptOwnership",
      "outputs": [],
      "payable": false,
      "stateMutability": "nonpayable",
      "type": "function"
    },
    {
      "constant": true,
      "inputs": [],
      "name": "owner",
      "outputs": [
        {
          "name": "",
          "type": "address"
        }
      ],
      "payable": false,
      "stateMutability": "view",
      "type": "function"
    },
    {
      "constant": true,
      "inputs": [],
      "name": "symbol",
      "outputs": [
        {
          "name": "",
          "type": "string"
        }
      ],
      "payable": false,
      "stateMutability": "view",
      "type": "function"
    },
    {
      "constant": true,
      "inputs": [],
      "name": "contract_address",
      "outputs": [
        {
          "name": "",
          "type": "address"
        }
      ],
      "payable": false,
      "stateMutability": "view",
      "type": "function"
    },
    {
      "constant": true,
      "inputs": [],
      "name": "etherTokenRate",
      "outputs": [
        {
          "name": "",
          "type": "uint256"
        }
      ],
      "payable": false,
      "stateMutability": "view",
      "type": "function"
    },
    {
      "constant": true,
      "inputs": [],
      "name": "isRateActive",
      "outputs": [
        {
          "name": "",
          "type": "bool"
        }
      ],
      "payable": false,
      "stateMutability": "view",
      "type": "function"
    },
    {
      "constant": true,
      "inputs": [],
      "name": "newOwner",
      "outputs": [
        {
          "name": "",
          "type": "address"
        }
      ],
      "payable": false,
      "stateMutability": "view",
      "type": "function"
    },
    {
      "constant": false,
      "inputs": [
        {
          "name": "_newOwner",
          "type": "address"
        }
      ],
      "name": "transferOwnership",
      "outputs": [],
      "payable": false,
      "stateMutability": "nonpayable",
      "type": "function"
    },
    {
      "inputs": [
        {
          "name": "initialName",
          "type": "string"
        },
        {
          "name": "initalSymbol",
          "type": "string"
        },
        {
          "name": "initialSupply",
          "type": "uint256"
        },
        {
          "name": "initialEtherTokenRate",
          "type": "uint256"
        },
        {
          "name": "initialIsRateActive",
          "type": "bool"
        },
        {
          "name": "initialAutomaticIssue",
          "type": "bool"
        }
      ],
      "payable": false,
      "stateMutability": "nonpayable",
      "type": "constructor"
    },
    {
      "anonymous": false,
      "inputs": [
        {
          "indexed": true,
          "name": "from",
          "type": "address"
        },
        {
          "indexed": true,
          "name": "to",
          "type": "address"
        },
        {
          "indexed": false,
          "name": "tokens",
          "type": "uint256"
        }
      ],
      "name": "Transfer",
      "type": "event"
    },
    {
      "anonymous": false,
      "inputs": [
        {
          "indexed": true,
          "name": "_from",
          "type": "address"
        },
        {
          "indexed": true,
          "name": "_to",
          "type": "address"
        }
      ],
      "name": "OwnershipTransferred",
      "type": "event"
    },
    {
      "constant": true,
      "inputs": [
        {
          "name": "tokenOwner",
          "type": "address"
        }
      ],
      "name": "balanceOf",
      "outputs": [
        {
          "name": "balance",
          "type": "uint256"
        }
      ],
      "payable": false,
      "stateMutability": "view",
      "type": "function"
    },
    {
      "constant": true,
      "inputs": [],
      "name": "balanceOfOwner",
      "outputs": [
        {
          "name": "balance",
          "type": "uint256"
        }
      ],
      "payable": false,
      "stateMutability": "view",
      "type": "function"
    },
    {
      "constant": true,
      "inputs": [],
      "name": "totalSupply",
      "outputs": [
        {
          "name": "supply",
          "type": "uint256"
        }
      ],
      "payable": false,
      "stateMutability": "view",
      "type": "function"
    },
    {
      "constant": true,
      "inputs": [],
      "name": "contractBalance",
      "outputs": [
        {
          "name": "balance",
          "type": "uint256"
        }
      ],
      "payable": false,
      "stateMutability": "view",
      "type": "function"
    },
    {
      "constant": true,
      "inputs": [],
      "name": "getData",
      "outputs": [
        {
          "name": "nameData",
          "type": "string"
        },
        {
          "name": "symbolData",
          "type": "string"
        },
        {
          "name": "totalSupplyData",
          "type": "uint256"
        },
        {
          "name": "etherTokenRateData",
          "type": "uint256"
        },
        {
          "name": "isRateActiveData",
          "type": "bool"
        },
        {
          "name": "automaticIssueData",
          "type": "bool"
        }
      ],
      "payable": false,
      "stateMutability": "view",
      "type": "function"
    },
    {
      "constant": false,
      "inputs": [],
      "name": "depositExchangedEther",
      "outputs": [
        {
          "name": "success",
          "type": "bool"
        }
      ],
      "payable": true,
      "stateMutability": "payable",
      "type": "function"
    },
    {
      "constant": false,
      "inputs": [
        {
          "name": "steps",
          "type": "uint256"
        }
      ],
      "name": "depositTokenSteps",
      "outputs": [
        {
          "name": "success",
          "type": "bool"
        }
      ],
      "payable": true,
      "stateMutability": "payable",
      "type": "function"
    }
  ],
  "bytecode": "0x60806040523480156200001157600080fd5b50604051620015a5380380620015a5833981018060405281019080805182019291906020018051820192919060200180519060200190929190805190602001909291908051906020019092919080519060200190929190505050336000806101000a81548173ffffffffffffffffffffffffffffffffffffffff021916908373ffffffffffffffffffffffffffffffffffffffff1602179055508560029080519060200190620000c392919062000262565b508460039080519060200190620000dc92919062000262565b506012600a0a84026004819055508260058190555081600660006101000a81548160ff02191690831515021790555080600660016101000a81548160ff02191690831515021790555030600660026101000a81548173ffffffffffffffffffffffffffffffffffffffff021916908373ffffffffffffffffffffffffffffffffffffffff160217905550600454600760008060009054906101000a900473ffffffffffffffffffffffffffffffffffffffff1673ffffffffffffffffffffffffffffffffffffffff1673ffffffffffffffffffffffffffffffffffffffff168152602001908152602001600020819055506000809054906101000a900473ffffffffffffffffffffffffffffffffffffffff1673ffffffffffffffffffffffffffffffffffffffff16600073ffffffffffffffffffffffffffffffffffffffff167fddf252ad1be2c89b69c2b068fc378daa952ba7f163c4a11628f55a4df523b3ef6004546040518082815260200191505060405180910390a350505050505062000311565b828054600181600116156101000203166002900490600052602060002090601f016020900481019282601f10620002a557805160ff1916838001178555620002d6565b82800160010185558215620002d6579182015b82811115620002d5578251825591602001919060010190620002b8565b5b509050620002e59190620002e9565b5090565b6200030e91905b808211156200030a576000816000905550600101620002f0565b5090565b90565b61128480620003216000396000f3006080604052600436106100f1576000357c0100000000000000000000000000000000000000000000000000000000900463ffffffff16806306fdde03146100f657806318160ddd146101865780633b17150a146101b15780633bc5de30146101e05780634975d202146103005780636d7387a11461032b57806370a082311461034d57806379ba5097146103a45780638b7afe2e146103bb5780638bec27e5146103e65780638da5cb5b1461041e57806395d89b4114610475578063966b3514146105055780639d527a9b1461055c578063c8ade11414610587578063d4ee1d90146105b6578063f2fde38b1461060d575b600080fd5b34801561010257600080fd5b5061010b610650565b6040518080602001828103825283818151815260200191508051906020019080838360005b8381101561014b578082015181840152602081019050610130565b50505050905090810190601f1680156101785780820380516001836020036101000a031916815260200191505b509250505060405180910390f35b34801561019257600080fd5b5061019b6106ee565b6040518082815260200191505060405180910390f35b3480156101bd57600080fd5b506101c66106f8565b604051808215151515815260200191505060405180910390f35b3480156101ec57600080fd5b506101f561070b565b6040518080602001806020018781526020018681526020018515151515815260200184151515158152602001838103835289818151815260200191508051906020019080838360005b8381101561025957808201518184015260208101905061023e565b50505050905090810190601f1680156102865780820380516001836020036101000a031916815260200191505b50838103825288818151815260200191508051906020019080838360005b838110156102bf5780820151818401526020810190506102a4565b50505050905090810190601f1680156102ec5780820380516001836020036101000a031916815260200191505b509850505050505050505060405180910390f35b34801561030c57600080fd5b5061031561088a565b6040518082815260200191505060405180910390f35b6103336108f2565b604051808215151515815260200191505060405180910390f35b34801561035957600080fd5b5061038e600480360381019080803573ffffffffffffffffffffffffffffffffffffffff169060200190929190505050610bd9565b6040518082815260200191505060405180910390f35b3480156103b057600080fd5b506103b9610c22565b005b3480156103c757600080fd5b506103d0610dc1565b6040518082815260200191505060405180910390f35b61040460048036038101908080359060200190929190505050610e02565b604051808215151515815260200191505060405180910390f35b34801561042a57600080fd5b50610433611028565b604051808273ffffffffffffffffffffffffffffffffffffffff1673ffffffffffffffffffffffffffffffffffffffff16815260200191505060405180910390f35b34801561048157600080fd5b5061048a61104d565b6040518080602001828103825283818151815260200191508051906020019080838360005b838110156104ca5780820151818401526020810190506104af565b50505050905090810190601f1680156104f75780820380516001836020036101000a031916815260200191505b509250505060405180910390f35b34801561051157600080fd5b5061051a6110eb565b604051808273ffffffffffffffffffffffffffffffffffffffff1673ffffffffffffffffffffffffffffffffffffffff16815260200191505060405180910390f35b34801561056857600080fd5b50610571611111565b6040518082815260200191505060405180910390f35b34801561059357600080fd5b5061059c611117565b604051808215151515815260200191505060405180910390f35b3480156105c257600080fd5b506105cb61112a565b604051808273ffffffffffffffffffffffffffffffffffffffff1673ffffffffffffffffffffffffffffffffffffffff16815260200191505060405180910390f35b34801561061957600080fd5b5061064e600480360381019080803573ffffffffffffffffffffffffffffffffffffffff169060200190929190505050611150565b005b60028054600181600116156101000203166002900480601f0160208091040260200160405190810160405280929190818152602001828054600181600116156101000203166002900480156106e65780601f106106bb576101008083540402835291602001916106e6565b820191906000526020600020905b8154815290600101906020018083116106c957829003601f168201915b505050505081565b6000600454905090565b600660019054906101000a900460ff1681565b60608060008060008060026003600454600554600660009054906101000a900460ff16600660019054906101000a900460ff16858054600181600116156101000203166002900480601f0160208091040260200160405190810160405280929190818152602001828054600181600116156101000203166002900480156107d35780601f106107a8576101008083540402835291602001916107d3565b820191906000526020600020905b8154815290600101906020018083116107b657829003601f168201915b50505050509550848054600181600116156101000203166002900480601f01602080910402602001604051908101604052809291908181526020018280546001816001161561010002031660029004801561086f5780601f106108445761010080835404028352916020019161086f565b820191906000526020600020905b81548152906001019060200180831161085257829003601f168201915b50505050509450955095509550955095509550909192939495565b6000600760008060009054906101000a900473ffffffffffffffffffffffffffffffffffffffff1673ffffffffffffffffffffffffffffffffffffffff1673ffffffffffffffffffffffffffffffffffffffff16815260200190815260200160002054905090565b6000806000341015151561090557600080fd5b60011515600660009054906101000a900460ff16151514151561092757600080fd5b61093c600554346111ef90919063ffffffff16565b905060006109b382600760008060009054906101000a900473ffffffffffffffffffffffffffffffffffffffff1673ffffffffffffffffffffffffffffffffffffffff1673ffffffffffffffffffffffffffffffffffffffff1681526020019081526020016000205461122090919063ffffffff16565b101515610bcc57610a2d81600760008060009054906101000a900473ffffffffffffffffffffffffffffffffffffffff1673ffffffffffffffffffffffffffffffffffffffff1673ffffffffffffffffffffffffffffffffffffffff1681526020019081526020016000205461122090919063ffffffff16565b600760008060009054906101000a900473ffffffffffffffffffffffffffffffffffffffff1673ffffffffffffffffffffffffffffffffffffffff1673ffffffffffffffffffffffffffffffffffffffff16815260200190815260200160002081905550610ae381600760003373ffffffffffffffffffffffffffffffffffffffff1673ffffffffffffffffffffffffffffffffffffffff1681526020019081526020016000205461123c90919063ffffffff16565b600760003373ffffffffffffffffffffffffffffffffffffffff1673ffffffffffffffffffffffffffffffffffffffff168152602001908152602001600020819055506000809054906101000a900473ffffffffffffffffffffffffffffffffffffffff1673ffffffffffffffffffffffffffffffffffffffff166108fc600660029054906101000a900473ffffffffffffffffffffffffffffffffffffffff1673ffffffffffffffffffffffffffffffffffffffff16319081150290604051600060405180830381858888f19350505050158015610bc6573d6000803e3d6000fd5b50610bd1565b600080fd5b600191505090565b6000600760008373ffffffffffffffffffffffffffffffffffffffff1673ffffffffffffffffffffffffffffffffffffffff168152602001908152602001600020549050919050565b600160009054906101000a900473ffffffffffffffffffffffffffffffffffffffff1673ffffffffffffffffffffffffffffffffffffffff163373ffffffffffffffffffffffffffffffffffffffff16141515610c7e57600080fd5b600160009054906101000a900473ffffffffffffffffffffffffffffffffffffffff1673ffffffffffffffffffffffffffffffffffffffff166000809054906101000a900473ffffffffffffffffffffffffffffffffffffffff1673ffffffffffffffffffffffffffffffffffffffff167f8be0079c531659141344cd1fd0a4f28419497f9722a3daafe3b4186f6b6457e060405160405180910390a3600160009054906101000a900473ffffffffffffffffffffffffffffffffffffffff166000806101000a81548173ffffffffffffffffffffffffffffffffffffffff021916908373ffffffffffffffffffffffffffffffffffffffff1602179055506000600160006101000a81548173ffffffffffffffffffffffffffffffffffffffff021916908373ffffffffffffffffffffffffffffffffffffffff160217905550565b6000600660029054906101000a900473ffffffffffffffffffffffffffffffffffffffff1673ffffffffffffffffffffffffffffffffffffffff1631905090565b60008060008310151515610e1557600080fd5b610e2a600554846111ef90919063ffffffff16565b90506000610ea182600760008060009054906101000a900473ffffffffffffffffffffffffffffffffffffffff1673ffffffffffffffffffffffffffffffffffffffff1673ffffffffffffffffffffffffffffffffffffffff1681526020019081526020016000205461122090919063ffffffff16565b10151561101957610f1b81600760008060009054906101000a900473ffffffffffffffffffffffffffffffffffffffff1673ffffffffffffffffffffffffffffffffffffffff1673ffffffffffffffffffffffffffffffffffffffff1681526020019081526020016000205461122090919063ffffffff16565b600760008060009054906101000a900473ffffffffffffffffffffffffffffffffffffffff1673ffffffffffffffffffffffffffffffffffffffff1673ffffffffffffffffffffffffffffffffffffffff16815260200190815260200160002081905550610fd181600760003373ffffffffffffffffffffffffffffffffffffffff1673ffffffffffffffffffffffffffffffffffffffff1681526020019081526020016000205461123c90919063ffffffff16565b600760003373ffffffffffffffffffffffffffffffffffffffff1673ffffffffffffffffffffffffffffffffffffffff1681526020019081526020016000208190555061101e565b600080fd5b6001915050919050565b6000809054906101000a900473ffffffffffffffffffffffffffffffffffffffff1681565b60038054600181600116156101000203166002900480601f0160208091040260200160405190810160405280929190818152602001828054600181600116156101000203166002900480156110e35780601f106110b8576101008083540402835291602001916110e3565b820191906000526020600020905b8154815290600101906020018083116110c657829003601f168201915b505050505081565b600660029054906101000a900473ffffffffffffffffffffffffffffffffffffffff1681565b60055481565b600660009054906101000a900460ff1681565b600160009054906101000a900473ffffffffffffffffffffffffffffffffffffffff1681565b6000809054906101000a900473ffffffffffffffffffffffffffffffffffffffff1673ffffffffffffffffffffffffffffffffffffffff163373ffffffffffffffffffffffffffffffffffffffff161415156111ab57600080fd5b80600160006101000a81548173ffffffffffffffffffffffffffffffffffffffff021916908373ffffffffffffffffffffffffffffffffffffffff16021790555050565b60008183029050600083148061120f575081838281151561120c57fe5b04145b151561121a57600080fd5b92915050565b600082821115151561123157600080fd5b818303905092915050565b6000818301905082811015151561125257600080fd5b929150505600a165627a7a72305820182b9f5ebfc7e8292f97a19bcdaddf38f95170ea77eaced6f11d72c48a2ccbd10029",
  "source": "pragma solidity ^0.4.18;\r\n\r\n// ----------------------------------------------------------------------------\r\n//  WELLCOIN implementation\r\n//  based on ERC20 Token\r\n//  https://theethereum.wiki/w/index.php/ERC20_Token_Standard \r\n//  Created by: Alberto Carbognin\r\n// ----------------------------------------------------------------------------\r\n\r\n\r\n// ----------------------------------------------------------------------------\r\n// Safe maths\r\n// ----------------------------------------------------------------------------\r\nlibrary SafeMath {\r\n    function add(uint a, uint b) internal pure returns (uint c) {\r\n        c = a + b;\r\n        require(c >= a);\r\n    }\r\n    function sub(uint a, uint b) internal pure returns (uint c) {\r\n        require(b <= a);\r\n        c = a - b;\r\n    }\r\n    function mul(uint a, uint b) internal pure returns (uint c) {\r\n        c = a * b;\r\n        require(a == 0 || c / a == b);\r\n    }\r\n    function div(uint a, uint b) internal pure returns (uint c) {\r\n        require(b > 0);\r\n        c = a / b;\r\n    }\r\n}\r\n\r\n// ----------------------------------------------------------------------------\r\n// Owned contract\r\n// ----------------------------------------------------------------------------\r\ncontract Owned {\r\n    address public owner;\r\n    address public newOwner;\r\n\r\n    event OwnershipTransferred(address indexed _from, address indexed _to);\r\n\r\n    constructor() public {\r\n        owner = msg.sender;\r\n    }\r\n\r\n    modifier onlyOwner {\r\n        require(msg.sender == owner);\r\n        _;\r\n    }\r\n\r\n    function transferOwnership(address _newOwner) public onlyOwner {\r\n        newOwner = _newOwner;\r\n    }\r\n    function acceptOwnership() public {\r\n        require(msg.sender == newOwner);\r\n        emit OwnershipTransferred(owner, newOwner);\r\n        owner = newOwner;\r\n        newOwner = address(0);\r\n    }\r\n}\r\n\r\n// ----------------------------------------------------------------------------\r\n// \r\n// ----------------------------------------------------------------------------\r\n\r\ncontract WelCoin is Owned {\r\n  //importing library for safe math operations\r\n  using SafeMath for uint;\r\n\r\n  //Describing Contract basic informations\r\n  string public name;\r\n  string public symbol;\r\n  uint public totalSupply;\r\n  uint public etherTokenRate;\r\n  bool public isRateActive;\r\n  bool public automaticIssue;\r\n  address public contract_address;\r\n\r\n  //Building Dictrionary for Balances Account\r\n  mapping(address => uint) balances;\r\n\r\n  //events to track operations in real time\r\n  //indexed is needed in order to find events using indexed parameters as filter\r\n  event Transfer(address indexed from, address indexed to, uint tokens);\r\n\r\n  //Constructor\r\n  constructor(\r\n    string initialName,\r\n    string initalSymbol,\r\n    uint initialSupply,\r\n    uint initialEtherTokenRate,\r\n    bool initialIsRateActive,\r\n    bool initialAutomaticIssue\r\n    ) public {\r\n      name = initialName;\r\n      symbol = initalSymbol;\r\n      totalSupply = initialSupply * 10**uint(18);\r\n      etherTokenRate = initialEtherTokenRate;\r\n      isRateActive = initialIsRateActive;\r\n      automaticIssue = initialAutomaticIssue;\r\n      contract_address = this; //this cointains contract's address information\r\n\r\n      //updating initial balances\r\n      balances[owner] = totalSupply;\r\n\r\n      //fire up Transfer event\r\n      emit Transfer(address(0), owner, totalSupply);\r\n  }\r\n\r\n  //return the balance of a Token Owner\r\n  function balanceOf(address tokenOwner) public constant returns(uint balance) {\r\n    return balances[tokenOwner];\r\n  }\r\n\r\n  //return the balance of Owner\r\n  function balanceOfOwner() public constant returns(uint balance) {\r\n    return balances[owner];\r\n  }\r\n\r\n  function totalSupply() public constant returns(uint supply) {\r\n    return totalSupply;\r\n  }\r\n\r\n  //return balance of the contract \r\n  function contractBalance() public constant returns(uint balance) {\r\n    return contract_address.balance;\r\n  }\r\n\r\n  //return parameters\r\n  function getData() public constant returns(\r\n    string nameData,\r\n    string symbolData,\r\n    uint totalSupplyData,\r\n    uint etherTokenRateData,\r\n    bool isRateActiveData,\r\n    bool automaticIssueData\r\n    ) {\r\n    return (name, symbol, totalSupply, etherTokenRate, isRateActive, automaticIssue);\r\n  }\r\n\r\n  //deposit ether as token\r\n  function depositExchangedEther() public payable returns(bool success){\r\n    require(msg.value >= 0);\r\n    require(isRateActive == true);\r\n\r\n    //user is using etherTokenExchange rate\r\n    uint exchangableToken = msg.value.mul(etherTokenRate);\r\n\r\n    if (balances[owner].sub(exchangableToken) >= 0) {\r\n\r\n      //write transfer function\r\n      balances[owner] = balances[owner].sub(exchangableToken);\r\n      balances[msg.sender] = balances[msg.sender].add(exchangableToken);\r\n      //only for demo purpose\r\n      owner.transfer(contract_address.balance); //gas used 2300\r\n\r\n    } else {\r\n\r\n      revert();\r\n    }\r\n\r\n    return true;\r\n    \r\n  }\r\n\r\n  //Step to token assign\r\n  function depositTokenSteps(uint steps) public payable returns(bool success){\r\n\r\n    require (steps >= 0);\r\n\r\n    //user is using etherTokenExchange rate\r\n    uint exchangableToken = steps.mul(etherTokenRate);\r\n\r\n    if (balances[owner].sub(exchangableToken) >= 0) {\r\n\r\n      //write transfer function\r\n      balances[owner] = balances[owner].sub(exchangableToken);\r\n      balances[msg.sender] = balances[msg.sender].add(exchangableToken);\r\n\r\n    } else {\r\n      revert();\r\n    }\r\n\r\n    return true;\r\n    \r\n  }\r\n\r\n\r\n}",
  "sourcePath": "C:\\Users\\Alberto\\Desktop\\Tirocinio\\SmartContract\\smartcontractdemo\\contracts\\WelCoin.sol",
  "compiler": {
    "name": "solc",
    "version": "0.4.23+commit.124ca40d.Emscripten.clang"
  },
  "schemaVersion": "2.0.0",
  "updatedAt": "2018-04-30T09:55:58.058Z"
}